{
	"contracts/Twitter.sol": {
		"Twitter": {
			"abi": [
				{
					"inputs": [],
					"stateMutability": "nonpayable",
					"type": "constructor"
				},
				{
					"inputs": [
						{
							"internalType": "address",
							"name": "",
							"type": "address"
						}
					],
					"name": "balance",
					"outputs": [
						{
							"internalType": "uint256",
							"name": "",
							"type": "uint256"
						}
					],
					"stateMutability": "view",
					"type": "function"
				},
				{
					"inputs": [
						{
							"internalType": "string",
							"name": "_tweets",
							"type": "string"
						}
					],
					"name": "createTweet",
					"outputs": [],
					"stateMutability": "nonpayable",
					"type": "function"
				},
				{
					"inputs": [
						{
							"internalType": "address",
							"name": "_owner",
							"type": "address"
						}
					],
					"name": "getAllTweets",
					"outputs": [
						{
							"components": [
								{
									"internalType": "address",
									"name": "author",
									"type": "address"
								},
								{
									"internalType": "string",
									"name": "content",
									"type": "string"
								},
								{
									"internalType": "uint256",
									"name": "timestamp",
									"type": "uint256"
								},
								{
									"internalType": "uint256",
									"name": "likes",
									"type": "uint256"
								}
							],
							"internalType": "struct Twitter.Tweet[]",
							"name": "",
							"type": "tuple[]"
						}
					],
					"stateMutability": "view",
					"type": "function"
				},
				{
					"inputs": [
						{
							"internalType": "address",
							"name": "_owner",
							"type": "address"
						},
						{
							"internalType": "uint256",
							"name": "_i",
							"type": "uint256"
						}
					],
					"name": "getTweets",
					"outputs": [
						{
							"components": [
								{
									"internalType": "address",
									"name": "author",
									"type": "address"
								},
								{
									"internalType": "string",
									"name": "content",
									"type": "string"
								},
								{
									"internalType": "uint256",
									"name": "timestamp",
									"type": "uint256"
								},
								{
									"internalType": "uint256",
									"name": "likes",
									"type": "uint256"
								}
							],
							"internalType": "struct Twitter.Tweet",
							"name": "",
							"type": "tuple"
						}
					],
					"stateMutability": "view",
					"type": "function"
				},
				{
					"inputs": [],
					"name": "owner",
					"outputs": [
						{
							"internalType": "address",
							"name": "",
							"type": "address"
						}
					],
					"stateMutability": "view",
					"type": "function"
				},
				{
					"inputs": [],
					"name": "paused",
					"outputs": [
						{
							"internalType": "bool",
							"name": "",
							"type": "bool"
						}
					],
					"stateMutability": "view",
					"type": "function"
				},
				{
					"inputs": [
						{
							"internalType": "address",
							"name": "",
							"type": "address"
						},
						{
							"internalType": "uint256",
							"name": "",
							"type": "uint256"
						}
					],
					"name": "tweets",
					"outputs": [
						{
							"internalType": "address",
							"name": "author",
							"type": "address"
						},
						{
							"internalType": "string",
							"name": "content",
							"type": "string"
						},
						{
							"internalType": "uint256",
							"name": "timestamp",
							"type": "uint256"
						},
						{
							"internalType": "uint256",
							"name": "likes",
							"type": "uint256"
						}
					],
					"stateMutability": "view",
					"type": "function"
				}
			],
			"devdoc": {
				"kind": "dev",
				"methods": {},
				"version": 1
			},
			"evm": {
				"assembly": "    /* \"contracts/Twitter.sol\":62:1603  contract Twitter {... */\n  mstore(0x40, 0x80)\n    /* \"contracts/Twitter.sol\":191:298  constructor(){... */\n  callvalue\n  dup1\n  iszero\n  tag_1\n  jumpi\n  0x00\n  dup1\n  revert\ntag_1:\n  pop\n    /* \"contracts/Twitter.sol\":223:233  msg.sender */\n  caller\n    /* \"contracts/Twitter.sol\":215:220  owner */\n  0x00\n  dup1\n    /* \"contracts/Twitter.sol\":215:233  owner = msg.sender */\n  0x0100\n  exp\n  dup2\n  sload\n  dup2\n  0xffffffffffffffffffffffffffffffffffffffff\n  mul\n  not\n  and\n  swap1\n  dup4\n  0xffffffffffffffffffffffffffffffffffffffff\n  and\n  mul\n  or\n  swap1\n  sstore\n  pop\n    /* \"contracts/Twitter.sol\":253:258  false */\n  0x00\n    /* \"contracts/Twitter.sol\":244:250  paused */\n  dup1\n  0x14\n    /* \"contracts/Twitter.sol\":244:258  paused = false */\n  0x0100\n  exp\n  dup2\n  sload\n  dup2\n  0xff\n  mul\n  not\n  and\n  swap1\n  dup4\n  iszero\n  iszero\n  mul\n  or\n  swap1\n  sstore\n  pop\n    /* \"contracts/Twitter.sol\":286:290  1000 */\n  0x03e8\n    /* \"contracts/Twitter.sol\":269:276  balance */\n  0x01\n    /* \"contracts/Twitter.sol\":269:283  balance[owner] */\n  0x00\n    /* \"contracts/Twitter.sol\":277:282  owner */\n  dup1\n  0x00\n  swap1\n  sload\n  swap1\n  0x0100\n  exp\n  swap1\n  div\n  0xffffffffffffffffffffffffffffffffffffffff\n  and\n    /* \"contracts/Twitter.sol\":269:283  balance[owner] */\n  0xffffffffffffffffffffffffffffffffffffffff\n  and\n  0xffffffffffffffffffffffffffffffffffffffff\n  and\n  dup2\n  mstore\n  0x20\n  add\n  swap1\n  dup2\n  mstore\n  0x20\n  add\n  0x00\n  keccak256\n    /* \"contracts/Twitter.sol\":269:290  balance[owner] = 1000 */\n  dup2\n  swap1\n  sstore\n  pop\n    /* \"contracts/Twitter.sol\":62:1603  contract Twitter {... */\n  dataSize(sub_0)\n  dup1\n  dataOffset(sub_0)\n  0x00\n  codecopy\n  0x00\n  return\nstop\n\nsub_0: assembly {\n        /* \"contracts/Twitter.sol\":62:1603  contract Twitter {... */\n      mstore(0x40, 0x80)\n      callvalue\n      dup1\n      iszero\n      tag_1\n      jumpi\n      0x00\n      dup1\n      revert\n    tag_1:\n      pop\n      jumpi(tag_2, lt(calldatasize, 0x04))\n      shr(0xe0, calldataload(0x00))\n      dup1\n      0x5c975abb\n      gt\n      tag_10\n      jumpi\n      dup1\n      0x5c975abb\n      eq\n      tag_6\n      jumpi\n      dup1\n      0x7c9cd2bc\n      eq\n      tag_7\n      jumpi\n      dup1\n      0x8da5cb5b\n      eq\n      tag_8\n      jumpi\n      dup1\n      0xe3d670d7\n      eq\n      tag_9\n      jumpi\n      jump(tag_2)\n    tag_10:\n      dup1\n      0x05a1b4a9\n      eq\n      tag_3\n      jumpi\n      dup1\n      0x12e7ee1c\n      eq\n      tag_4\n      jumpi\n      dup1\n      0x2cf02026\n      eq\n      tag_5\n      jumpi\n    tag_2:\n      0x00\n      dup1\n      revert\n        /* \"contracts/Twitter.sol\":551:593  mapping (address => Tweet[]) public tweets */\n    tag_3:\n      tag_11\n      0x04\n      dup1\n      calldatasize\n      sub\n      dup2\n      add\n      swap1\n      tag_12\n      swap2\n      swap1\n      tag_13\n      jump\t// in\n    tag_12:\n      tag_14\n      jump\t// in\n    tag_11:\n      mload(0x40)\n      tag_15\n      swap5\n      swap4\n      swap3\n      swap2\n      swap1\n      tag_16\n      jump\t// in\n    tag_15:\n      mload(0x40)\n      dup1\n      swap2\n      sub\n      swap1\n      return\n        /* \"contracts/Twitter.sol\":1479:1594  function getAllTweets(address _owner) public view returns (Tweet[] memory){... */\n    tag_4:\n      tag_17\n      0x04\n      dup1\n      calldatasize\n      sub\n      dup2\n      add\n      swap1\n      tag_18\n      swap2\n      swap1\n      tag_19\n      jump\t// in\n    tag_18:\n      tag_20\n      jump\t// in\n    tag_17:\n      mload(0x40)\n      tag_21\n      swap2\n      swap1\n      tag_22\n      jump\t// in\n    tag_21:\n      mload(0x40)\n      dup1\n      swap2\n      sub\n      swap1\n      return\n        /* \"contracts/Twitter.sol\":1347:1471  function getTweets(address _owner, uint _i) public view returns (Tweet memory)  {... */\n    tag_5:\n      tag_23\n      0x04\n      dup1\n      calldatasize\n      sub\n      dup2\n      add\n      swap1\n      tag_24\n      swap2\n      swap1\n      tag_13\n      jump\t// in\n    tag_24:\n      tag_25\n      jump\t// in\n    tag_23:\n      mload(0x40)\n      tag_26\n      swap2\n      swap1\n      tag_27\n      jump\t// in\n    tag_26:\n      mload(0x40)\n      dup1\n      swap2\n      sub\n      swap1\n      return\n        /* \"contracts/Twitter.sol\":113:131  bool public paused */\n    tag_6:\n      tag_28\n      tag_29\n      jump\t// in\n    tag_28:\n      mload(0x40)\n      tag_30\n      swap2\n      swap1\n      tag_31\n      jump\t// in\n    tag_30:\n      mload(0x40)\n      dup1\n      swap2\n      sub\n      swap1\n      return\n        /* \"contracts/Twitter.sol\":848:1339  function createTweet(string memory  _tweets) public notPaused onlyOwner {... */\n    tag_7:\n      tag_32\n      0x04\n      dup1\n      calldatasize\n      sub\n      dup2\n      add\n      swap1\n      tag_33\n      swap2\n      swap1\n      tag_34\n      jump\t// in\n    tag_33:\n      tag_35\n      jump\t// in\n    tag_32:\n      stop\n        /* \"contracts/Twitter.sol\":86:106  address public owner */\n    tag_8:\n      tag_36\n      tag_37\n      jump\t// in\n    tag_36:\n      mload(0x40)\n      tag_38\n      swap2\n      swap1\n      tag_39\n      jump\t// in\n    tag_38:\n      mload(0x40)\n      dup1\n      swap2\n      sub\n      swap1\n      return\n        /* \"contracts/Twitter.sol\":138:178  mapping (address => uint) public balance */\n    tag_9:\n      tag_40\n      0x04\n      dup1\n      calldatasize\n      sub\n      dup2\n      add\n      swap1\n      tag_41\n      swap2\n      swap1\n      tag_19\n      jump\t// in\n    tag_41:\n      tag_42\n      jump\t// in\n    tag_40:\n      mload(0x40)\n      tag_43\n      swap2\n      swap1\n      tag_44\n      jump\t// in\n    tag_43:\n      mload(0x40)\n      dup1\n      swap2\n      sub\n      swap1\n      return\n        /* \"contracts/Twitter.sol\":551:593  mapping (address => Tweet[]) public tweets */\n    tag_14:\n      mstore(0x20, 0x02)\n      dup2\n      0x00\n      mstore\n      keccak256(0x00, 0x40)\n      dup2\n      dup2\n      sload\n      dup2\n      lt\n      tag_45\n      jumpi\n      0x00\n      dup1\n      revert\n    tag_45:\n      swap1\n      0x00\n      mstore\n      keccak256(0x00, 0x20)\n      swap1\n      0x04\n      mul\n      add\n      0x00\n      swap2\n      pop\n      swap2\n      pop\n      pop\n      dup1\n      0x00\n      add\n      0x00\n      swap1\n      sload\n      swap1\n      0x0100\n      exp\n      swap1\n      div\n      0xffffffffffffffffffffffffffffffffffffffff\n      and\n      swap1\n      dup1\n      0x01\n      add\n      dup1\n      sload\n      tag_47\n      swap1\n      tag_48\n      jump\t// in\n    tag_47:\n      dup1\n      0x1f\n      add\n      0x20\n      dup1\n      swap2\n      div\n      mul\n      0x20\n      add\n      mload(0x40)\n      swap1\n      dup2\n      add\n      0x40\n      mstore\n      dup1\n      swap3\n      swap2\n      swap1\n      dup2\n      dup2\n      mstore\n      0x20\n      add\n      dup3\n      dup1\n      sload\n      tag_49\n      swap1\n      tag_48\n      jump\t// in\n    tag_49:\n      dup1\n      iszero\n      tag_50\n      jumpi\n      dup1\n      0x1f\n      lt\n      tag_51\n      jumpi\n      0x0100\n      dup1\n      dup4\n      sload\n      div\n      mul\n      dup4\n      mstore\n      swap2\n      0x20\n      add\n      swap2\n      jump(tag_50)\n    tag_51:\n      dup3\n      add\n      swap2\n      swap1\n      0x00\n      mstore\n      keccak256(0x00, 0x20)\n      swap1\n    tag_52:\n      dup2\n      sload\n      dup2\n      mstore\n      swap1\n      0x01\n      add\n      swap1\n      0x20\n      add\n      dup1\n      dup4\n      gt\n      tag_52\n      jumpi\n      dup3\n      swap1\n      sub\n      0x1f\n      and\n      dup3\n      add\n      swap2\n    tag_50:\n      pop\n      pop\n      pop\n      pop\n      pop\n      swap1\n      dup1\n      0x02\n      add\n      sload\n      swap1\n      dup1\n      0x03\n      add\n      sload\n      swap1\n      pop\n      dup5\n      jump\t// out\n        /* \"contracts/Twitter.sol\":1479:1594  function getAllTweets(address _owner) public view returns (Tweet[] memory){... */\n    tag_20:\n        /* \"contracts/Twitter.sol\":1538:1552  Tweet[] memory */\n      0x60\n        /* \"contracts/Twitter.sol\":1572:1578  tweets */\n      0x02\n        /* \"contracts/Twitter.sol\":1572:1586  tweets[_owner] */\n      0x00\n        /* \"contracts/Twitter.sol\":1579:1585  _owner */\n      dup4\n        /* \"contracts/Twitter.sol\":1572:1586  tweets[_owner] */\n      0xffffffffffffffffffffffffffffffffffffffff\n      and\n      0xffffffffffffffffffffffffffffffffffffffff\n      and\n      dup2\n      mstore\n      0x20\n      add\n      swap1\n      dup2\n      mstore\n      0x20\n      add\n      0x00\n      keccak256\n        /* \"contracts/Twitter.sol\":1564:1586  return  tweets[_owner] */\n      dup1\n      sload\n      dup1\n      0x20\n      mul\n      0x20\n      add\n      mload(0x40)\n      swap1\n      dup2\n      add\n      0x40\n      mstore\n      dup1\n      swap3\n      swap2\n      swap1\n      dup2\n      dup2\n      mstore\n      0x20\n      add\n      0x00\n      swap1\n    tag_54:\n      dup3\n      dup3\n      lt\n      iszero\n      tag_55\n      jumpi\n      dup4\n      dup3\n      swap1\n      0x00\n      mstore\n      keccak256(0x00, 0x20)\n      swap1\n      0x04\n      mul\n      add\n      mload(0x40)\n      dup1\n      0x80\n      add\n      0x40\n      mstore\n      swap1\n      dup2\n      0x00\n      dup3\n      add\n      0x00\n      swap1\n      sload\n      swap1\n      0x0100\n      exp\n      swap1\n      div\n      0xffffffffffffffffffffffffffffffffffffffff\n      and\n      0xffffffffffffffffffffffffffffffffffffffff\n      and\n      0xffffffffffffffffffffffffffffffffffffffff\n      and\n      dup2\n      mstore\n      0x20\n      add\n      0x01\n      dup3\n      add\n      dup1\n      sload\n      tag_57\n      swap1\n      tag_48\n      jump\t// in\n    tag_57:\n      dup1\n      0x1f\n      add\n      0x20\n      dup1\n      swap2\n      div\n      mul\n      0x20\n      add\n      mload(0x40)\n      swap1\n      dup2\n      add\n      0x40\n      mstore\n      dup1\n      swap3\n      swap2\n      swap1\n      dup2\n      dup2\n      mstore\n      0x20\n      add\n      dup3\n      dup1\n      sload\n      tag_58\n      swap1\n      tag_48\n      jump\t// in\n    tag_58:\n      dup1\n      iszero\n      tag_59\n      jumpi\n      dup1\n      0x1f\n      lt\n      tag_60\n      jumpi\n      0x0100\n      dup1\n      dup4\n      sload\n      div\n      mul\n      dup4\n      mstore\n      swap2\n      0x20\n      add\n      swap2\n      jump(tag_59)\n    tag_60:\n      dup3\n      add\n      swap2\n      swap1\n      0x00\n      mstore\n      keccak256(0x00, 0x20)\n      swap1\n    tag_61:\n      dup2\n      sload\n      dup2\n      mstore\n      swap1\n      0x01\n      add\n      swap1\n      0x20\n      add\n      dup1\n      dup4\n      gt\n      tag_61\n      jumpi\n      dup3\n      swap1\n      sub\n      0x1f\n      and\n      dup3\n      add\n      swap2\n    tag_59:\n      pop\n      pop\n      pop\n      pop\n      pop\n      dup2\n      mstore\n      0x20\n      add\n      0x02\n      dup3\n      add\n      sload\n      dup2\n      mstore\n      0x20\n      add\n      0x03\n      dup3\n      add\n      sload\n      dup2\n      mstore\n      pop\n      pop\n      dup2\n      mstore\n      0x20\n      add\n      swap1\n      0x01\n      add\n      swap1\n      jump(tag_54)\n    tag_55:\n      pop\n      pop\n      pop\n      pop\n      swap1\n      pop\n        /* \"contracts/Twitter.sol\":1479:1594  function getAllTweets(address _owner) public view returns (Tweet[] memory){... */\n      swap2\n      swap1\n      pop\n      jump\t// out\n        /* \"contracts/Twitter.sol\":1347:1471  function getTweets(address _owner, uint _i) public view returns (Tweet memory)  {... */\n    tag_25:\n        /* \"contracts/Twitter.sol\":1412:1424  Tweet memory */\n      tag_62\n      tag_63\n      jump\t// in\n    tag_62:\n        /* \"contracts/Twitter.sol\":1445:1451  tweets */\n      0x02\n        /* \"contracts/Twitter.sol\":1445:1459  tweets[_owner] */\n      0x00\n        /* \"contracts/Twitter.sol\":1452:1458  _owner */\n      dup5\n        /* \"contracts/Twitter.sol\":1445:1459  tweets[_owner] */\n      0xffffffffffffffffffffffffffffffffffffffff\n      and\n      0xffffffffffffffffffffffffffffffffffffffff\n      and\n      dup2\n      mstore\n      0x20\n      add\n      swap1\n      dup2\n      mstore\n      0x20\n      add\n      0x00\n      keccak256\n        /* \"contracts/Twitter.sol\":1460:1462  _i */\n      dup3\n        /* \"contracts/Twitter.sol\":1445:1463  tweets[_owner][_i] */\n      dup2\n      sload\n      dup2\n      lt\n      tag_65\n      jumpi\n      tag_66\n      tag_67\n      jump\t// in\n    tag_66:\n    tag_65:\n      swap1\n      0x00\n      mstore\n      keccak256(0x00, 0x20)\n      swap1\n      0x04\n      mul\n      add\n        /* \"contracts/Twitter.sol\":1438:1463  return tweets[_owner][_i] */\n      mload(0x40)\n      dup1\n      0x80\n      add\n      0x40\n      mstore\n      swap1\n      dup2\n      0x00\n      dup3\n      add\n      0x00\n      swap1\n      sload\n      swap1\n      0x0100\n      exp\n      swap1\n      div\n      0xffffffffffffffffffffffffffffffffffffffff\n      and\n      0xffffffffffffffffffffffffffffffffffffffff\n      and\n      0xffffffffffffffffffffffffffffffffffffffff\n      and\n      dup2\n      mstore\n      0x20\n      add\n      0x01\n      dup3\n      add\n      dup1\n      sload\n      tag_69\n      swap1\n      tag_48\n      jump\t// in\n    tag_69:\n      dup1\n      0x1f\n      add\n      0x20\n      dup1\n      swap2\n      div\n      mul\n      0x20\n      add\n      mload(0x40)\n      swap1\n      dup2\n      add\n      0x40\n      mstore\n      dup1\n      swap3\n      swap2\n      swap1\n      dup2\n      dup2\n      mstore\n      0x20\n      add\n      dup3\n      dup1\n      sload\n      tag_70\n      swap1\n      tag_48\n      jump\t// in\n    tag_70:\n      dup1\n      iszero\n      tag_71\n      jumpi\n      dup1\n      0x1f\n      lt\n      tag_72\n      jumpi\n      0x0100\n      dup1\n      dup4\n      sload\n      div\n      mul\n      dup4\n      mstore\n      swap2\n      0x20\n      add\n      swap2\n      jump(tag_71)\n    tag_72:\n      dup3\n      add\n      swap2\n      swap1\n      0x00\n      mstore\n      keccak256(0x00, 0x20)\n      swap1\n    tag_73:\n      dup2\n      sload\n      dup2\n      mstore\n      swap1\n      0x01\n      add\n      swap1\n      0x20\n      add\n      dup1\n      dup4\n      gt\n      tag_73\n      jumpi\n      dup3\n      swap1\n      sub\n      0x1f\n      and\n      dup3\n      add\n      swap2\n    tag_71:\n      pop\n      pop\n      pop\n      pop\n      pop\n      dup2\n      mstore\n      0x20\n      add\n      0x02\n      dup3\n      add\n      sload\n      dup2\n      mstore\n      0x20\n      add\n      0x03\n      dup3\n      add\n      sload\n      dup2\n      mstore\n      pop\n      pop\n      swap1\n      pop\n        /* \"contracts/Twitter.sol\":1347:1471  function getTweets(address _owner, uint _i) public view returns (Tweet memory)  {... */\n      swap3\n      swap2\n      pop\n      pop\n      jump\t// out\n        /* \"contracts/Twitter.sol\":113:131  bool public paused */\n    tag_29:\n      0x00\n      0x14\n      swap1\n      sload\n      swap1\n      0x0100\n      exp\n      swap1\n      div\n      0xff\n      and\n      dup2\n      jump\t// out\n        /* \"contracts/Twitter.sol\":848:1339  function createTweet(string memory  _tweets) public notPaused onlyOwner {... */\n    tag_35:\n        /* \"contracts/Twitter.sol\":783:789  paused */\n      0x00\n      0x14\n      swap1\n      sload\n      swap1\n      0x0100\n      exp\n      swap1\n      div\n      0xff\n      and\n        /* \"contracts/Twitter.sol\":782:789  !paused */\n      iszero\n        /* \"contracts/Twitter.sol\":774:820  require(!paused , \"The contract is inActive!\") */\n      tag_75\n      jumpi\n      mload(0x40)\n      0x08c379a000000000000000000000000000000000000000000000000000000000\n      dup2\n      mstore\n      0x04\n      add\n      tag_76\n      swap1\n      tag_77\n      jump\t// in\n    tag_76:\n      mload(0x40)\n      dup1\n      swap2\n      sub\n      swap1\n      revert\n    tag_75:\n        /* \"contracts/Twitter.sol\":684:689  owner */\n      0x00\n      dup1\n      sload\n      swap1\n      0x0100\n      exp\n      swap1\n      div\n      0xffffffffffffffffffffffffffffffffffffffff\n      and\n        /* \"contracts/Twitter.sol\":670:689  msg.sender == owner */\n      0xffffffffffffffffffffffffffffffffffffffff\n      and\n        /* \"contracts/Twitter.sol\":670:680  msg.sender */\n      caller\n        /* \"contracts/Twitter.sol\":670:689  msg.sender == owner */\n      0xffffffffffffffffffffffffffffffffffffffff\n      and\n      eq\n        /* \"contracts/Twitter.sol\":662:717  require(msg.sender == owner, \"you are not the owner !\") */\n      tag_79\n      jumpi\n      mload(0x40)\n      0x08c379a000000000000000000000000000000000000000000000000000000000\n      dup2\n      mstore\n      0x04\n      add\n      tag_80\n      swap1\n      tag_81\n      jump\t// in\n    tag_80:\n      mload(0x40)\n      dup1\n      swap2\n      sub\n      swap1\n      revert\n    tag_79:\n        /* \"contracts/Twitter.sol\":497:500  200 */\n      0xc8\n        /* \"contracts/Twitter.sol\":941:982  bytes(_tweets).length <= MAX_TWEET_LENGTH */\n      0xffff\n      and\n        /* \"contracts/Twitter.sol\":947:954  _tweets */\n      dup2\n        /* \"contracts/Twitter.sol\":941:962  bytes(_tweets).length */\n      mload\n        /* \"contracts/Twitter.sol\":941:982  bytes(_tweets).length <= MAX_TWEET_LENGTH */\n      gt\n      iszero\n        /* \"contracts/Twitter.sol\":933:1004  require(bytes(_tweets).length <= MAX_TWEET_LENGTH  , \"Tweet is long !\") */\n      tag_83\n      jumpi\n      mload(0x40)\n      0x08c379a000000000000000000000000000000000000000000000000000000000\n      dup2\n      mstore\n      0x04\n      add\n      tag_84\n      swap1\n      tag_85\n      jump\t// in\n    tag_84:\n      mload(0x40)\n      dup1\n      swap2\n      sub\n      swap1\n      revert\n    tag_83:\n        /* \"contracts/Twitter.sol\":542:544  10 */\n      0x0a\n        /* \"contracts/Twitter.sol\":1023:1064  bytes(_tweets).length >= MIN_TWEET_LENGTH */\n      0xffff\n      and\n        /* \"contracts/Twitter.sol\":1029:1036  _tweets */\n      dup2\n        /* \"contracts/Twitter.sol\":1023:1044  bytes(_tweets).length */\n      mload\n        /* \"contracts/Twitter.sol\":1023:1064  bytes(_tweets).length >= MIN_TWEET_LENGTH */\n      lt\n      iszero\n        /* \"contracts/Twitter.sol\":1015:1091  require(bytes(_tweets).length >= MIN_TWEET_LENGTH , \"Tweet is so small !\"  ) */\n      tag_86\n      jumpi\n      mload(0x40)\n      0x08c379a000000000000000000000000000000000000000000000000000000000\n      dup2\n      mstore\n      0x04\n      add\n      tag_87\n      swap1\n      tag_88\n      jump\t// in\n    tag_87:\n      mload(0x40)\n      dup1\n      swap2\n      sub\n      swap1\n      revert\n    tag_86:\n        /* \"contracts/Twitter.sol\":1112:1133  Tweet memory newTweet */\n      0x00\n        /* \"contracts/Twitter.sol\":1136:1287  Tweet ({... */\n      mload(0x40)\n      dup1\n      0x80\n      add\n      0x40\n      mstore\n      dup1\n        /* \"contracts/Twitter.sol\":1167:1177  msg.sender */\n      caller\n        /* \"contracts/Twitter.sol\":1136:1287  Tweet ({... */\n      0xffffffffffffffffffffffffffffffffffffffff\n      and\n      dup2\n      mstore\n      0x20\n      add\n        /* \"contracts/Twitter.sol\":1202:1209  _tweets */\n      dup4\n        /* \"contracts/Twitter.sol\":1136:1287  Tweet ({... */\n      dup2\n      mstore\n      0x20\n      add\n        /* \"contracts/Twitter.sol\":1236:1251  block.timestamp */\n      timestamp\n        /* \"contracts/Twitter.sol\":1136:1287  Tweet ({... */\n      dup2\n      mstore\n      0x20\n      add\n        /* \"contracts/Twitter.sol\":1274:1275  0 */\n      0x00\n        /* \"contracts/Twitter.sol\":1136:1287  Tweet ({... */\n      dup2\n      mstore\n      pop\n        /* \"contracts/Twitter.sol\":1112:1287  Tweet memory newTweet = Tweet ({... */\n      swap1\n      pop\n        /* \"contracts/Twitter.sol\":1298:1304  tweets */\n      0x02\n        /* \"contracts/Twitter.sol\":1298:1316  tweets[msg.sender] */\n      0x00\n        /* \"contracts/Twitter.sol\":1305:1315  msg.sender */\n      caller\n        /* \"contracts/Twitter.sol\":1298:1316  tweets[msg.sender] */\n      0xffffffffffffffffffffffffffffffffffffffff\n      and\n      0xffffffffffffffffffffffffffffffffffffffff\n      and\n      dup2\n      mstore\n      0x20\n      add\n      swap1\n      dup2\n      mstore\n      0x20\n      add\n      0x00\n      keccak256\n        /* \"contracts/Twitter.sol\":1322:1330  newTweet */\n      dup2\n        /* \"contracts/Twitter.sol\":1298:1331  tweets[msg.sender].push(newTweet) */\n      swap1\n      dup1\n      0x01\n      dup2\n      sload\n      add\n      dup1\n      dup3\n      sstore\n      dup1\n      swap2\n      pop\n      pop\n      0x01\n      swap1\n      sub\n      swap1\n      0x00\n      mstore\n      keccak256(0x00, 0x20)\n      swap1\n      0x04\n      mul\n      add\n      0x00\n      swap1\n      swap2\n      swap1\n      swap2\n      swap1\n      swap2\n      pop\n      0x00\n      dup3\n      add\n      mload\n      dup2\n      0x00\n      add\n      exp(0x0100, 0x00)\n      dup2\n      sload\n      dup2\n      0xffffffffffffffffffffffffffffffffffffffff\n      mul\n      not\n      and\n      swap1\n      dup4\n      0xffffffffffffffffffffffffffffffffffffffff\n      and\n      mul\n      or\n      swap1\n      sstore\n      pop\n      0x20\n      dup3\n      add\n      mload\n      dup2\n      0x01\n      add\n      swap1\n      dup2\n      tag_90\n      swap2\n      swap1\n      tag_91\n      jump\t// in\n    tag_90:\n      pop\n      0x40\n      dup3\n      add\n      mload\n      dup2\n      0x02\n      add\n      sstore\n      0x60\n      dup3\n      add\n      mload\n      dup2\n      0x03\n      add\n      sstore\n      pop\n      pop\n        /* \"contracts/Twitter.sol\":920:1339  {... */\n      pop\n        /* \"contracts/Twitter.sol\":848:1339  function createTweet(string memory  _tweets) public notPaused onlyOwner {... */\n      pop\n      jump\t// out\n        /* \"contracts/Twitter.sol\":86:106  address public owner */\n    tag_37:\n      0x00\n      dup1\n      sload\n      swap1\n      0x0100\n      exp\n      swap1\n      div\n      0xffffffffffffffffffffffffffffffffffffffff\n      and\n      dup2\n      jump\t// out\n        /* \"contracts/Twitter.sol\":138:178  mapping (address => uint) public balance */\n    tag_42:\n      mstore(0x20, 0x01)\n      dup1\n      0x00\n      mstore\n      keccak256(0x00, 0x40)\n      0x00\n      swap2\n      pop\n      swap1\n      pop\n      sload\n      dup2\n      jump\t// out\n    tag_63:\n      mload(0x40)\n      dup1\n      0x80\n      add\n      0x40\n      mstore\n      dup1\n      and(0xffffffffffffffffffffffffffffffffffffffff, 0x00)\n      dup2\n      mstore\n      0x20\n      add\n      0x60\n      dup2\n      mstore\n      0x20\n      add\n      0x00\n      dup2\n      mstore\n      0x20\n      add\n      0x00\n      dup2\n      mstore\n      pop\n      swap1\n      jump\t// out\n        /* \"#utility.yul\":7:82   */\n    tag_92:\n        /* \"#utility.yul\":40:46   */\n      0x00\n        /* \"#utility.yul\":73:75   */\n      0x40\n        /* \"#utility.yul\":67:76   */\n      mload\n        /* \"#utility.yul\":57:76   */\n      swap1\n      pop\n        /* \"#utility.yul\":7:82   */\n      swap1\n      jump\t// out\n        /* \"#utility.yul\":88:205   */\n    tag_93:\n        /* \"#utility.yul\":197:198   */\n      0x00\n        /* \"#utility.yul\":194:195   */\n      dup1\n        /* \"#utility.yul\":187:199   */\n      revert\n        /* \"#utility.yul\":211:328   */\n    tag_94:\n        /* \"#utility.yul\":320:321   */\n      0x00\n        /* \"#utility.yul\":317:318   */\n      dup1\n        /* \"#utility.yul\":310:322   */\n      revert\n        /* \"#utility.yul\":334:460   */\n    tag_95:\n        /* \"#utility.yul\":371:378   */\n      0x00\n        /* \"#utility.yul\":411:453   */\n      0xffffffffffffffffffffffffffffffffffffffff\n        /* \"#utility.yul\":404:409   */\n      dup3\n        /* \"#utility.yul\":400:454   */\n      and\n        /* \"#utility.yul\":389:454   */\n      swap1\n      pop\n        /* \"#utility.yul\":334:460   */\n      swap2\n      swap1\n      pop\n      jump\t// out\n        /* \"#utility.yul\":466:562   */\n    tag_96:\n        /* \"#utility.yul\":503:510   */\n      0x00\n        /* \"#utility.yul\":532:556   */\n      tag_162\n        /* \"#utility.yul\":550:555   */\n      dup3\n        /* \"#utility.yul\":532:556   */\n      tag_95\n      jump\t// in\n    tag_162:\n        /* \"#utility.yul\":521:556   */\n      swap1\n      pop\n        /* \"#utility.yul\":466:562   */\n      swap2\n      swap1\n      pop\n      jump\t// out\n        /* \"#utility.yul\":568:690   */\n    tag_97:\n        /* \"#utility.yul\":641:665   */\n      tag_164\n        /* \"#utility.yul\":659:664   */\n      dup2\n        /* \"#utility.yul\":641:665   */\n      tag_96\n      jump\t// in\n    tag_164:\n        /* \"#utility.yul\":634:639   */\n      dup2\n        /* \"#utility.yul\":631:666   */\n      eq\n        /* \"#utility.yul\":621:684   */\n      tag_165\n      jumpi\n        /* \"#utility.yul\":680:681   */\n      0x00\n        /* \"#utility.yul\":677:678   */\n      dup1\n        /* \"#utility.yul\":670:682   */\n      revert\n        /* \"#utility.yul\":621:684   */\n    tag_165:\n        /* \"#utility.yul\":568:690   */\n      pop\n      jump\t// out\n        /* \"#utility.yul\":696:835   */\n    tag_98:\n        /* \"#utility.yul\":742:747   */\n      0x00\n        /* \"#utility.yul\":780:786   */\n      dup2\n        /* \"#utility.yul\":767:787   */\n      calldataload\n        /* \"#utility.yul\":758:787   */\n      swap1\n      pop\n        /* \"#utility.yul\":796:829   */\n      tag_167\n        /* \"#utility.yul\":823:828   */\n      dup2\n        /* \"#utility.yul\":796:829   */\n      tag_97\n      jump\t// in\n    tag_167:\n        /* \"#utility.yul\":696:835   */\n      swap3\n      swap2\n      pop\n      pop\n      jump\t// out\n        /* \"#utility.yul\":841:918   */\n    tag_99:\n        /* \"#utility.yul\":878:885   */\n      0x00\n        /* \"#utility.yul\":907:912   */\n      dup2\n        /* \"#utility.yul\":896:912   */\n      swap1\n      pop\n        /* \"#utility.yul\":841:918   */\n      swap2\n      swap1\n      pop\n      jump\t// out\n        /* \"#utility.yul\":924:1046   */\n    tag_100:\n        /* \"#utility.yul\":997:1021   */\n      tag_170\n        /* \"#utility.yul\":1015:1020   */\n      dup2\n        /* \"#utility.yul\":997:1021   */\n      tag_99\n      jump\t// in\n    tag_170:\n        /* \"#utility.yul\":990:995   */\n      dup2\n        /* \"#utility.yul\":987:1022   */\n      eq\n        /* \"#utility.yul\":977:1040   */\n      tag_171\n      jumpi\n        /* \"#utility.yul\":1036:1037   */\n      0x00\n        /* \"#utility.yul\":1033:1034   */\n      dup1\n        /* \"#utility.yul\":1026:1038   */\n      revert\n        /* \"#utility.yul\":977:1040   */\n    tag_171:\n        /* \"#utility.yul\":924:1046   */\n      pop\n      jump\t// out\n        /* \"#utility.yul\":1052:1191   */\n    tag_101:\n        /* \"#utility.yul\":1098:1103   */\n      0x00\n        /* \"#utility.yul\":1136:1142   */\n      dup2\n        /* \"#utility.yul\":1123:1143   */\n      calldataload\n        /* \"#utility.yul\":1114:1143   */\n      swap1\n      pop\n        /* \"#utility.yul\":1152:1185   */\n      tag_173\n        /* \"#utility.yul\":1179:1184   */\n      dup2\n        /* \"#utility.yul\":1152:1185   */\n      tag_100\n      jump\t// in\n    tag_173:\n        /* \"#utility.yul\":1052:1191   */\n      swap3\n      swap2\n      pop\n      pop\n      jump\t// out\n        /* \"#utility.yul\":1197:1671   */\n    tag_13:\n        /* \"#utility.yul\":1265:1271   */\n      0x00\n        /* \"#utility.yul\":1273:1279   */\n      dup1\n        /* \"#utility.yul\":1322:1324   */\n      0x40\n        /* \"#utility.yul\":1310:1319   */\n      dup4\n        /* \"#utility.yul\":1301:1308   */\n      dup6\n        /* \"#utility.yul\":1297:1320   */\n      sub\n        /* \"#utility.yul\":1293:1325   */\n      slt\n        /* \"#utility.yul\":1290:1409   */\n      iszero\n      tag_175\n      jumpi\n        /* \"#utility.yul\":1328:1407   */\n      tag_176\n      tag_93\n      jump\t// in\n    tag_176:\n        /* \"#utility.yul\":1290:1409   */\n    tag_175:\n        /* \"#utility.yul\":1448:1449   */\n      0x00\n        /* \"#utility.yul\":1473:1526   */\n      tag_177\n        /* \"#utility.yul\":1518:1525   */\n      dup6\n        /* \"#utility.yul\":1509:1515   */\n      dup3\n        /* \"#utility.yul\":1498:1507   */\n      dup7\n        /* \"#utility.yul\":1494:1516   */\n      add\n        /* \"#utility.yul\":1473:1526   */\n      tag_98\n      jump\t// in\n    tag_177:\n        /* \"#utility.yul\":1463:1526   */\n      swap3\n      pop\n        /* \"#utility.yul\":1419:1536   */\n      pop\n        /* \"#utility.yul\":1575:1577   */\n      0x20\n        /* \"#utility.yul\":1601:1654   */\n      tag_178\n        /* \"#utility.yul\":1646:1653   */\n      dup6\n        /* \"#utility.yul\":1637:1643   */\n      dup3\n        /* \"#utility.yul\":1626:1635   */\n      dup7\n        /* \"#utility.yul\":1622:1644   */\n      add\n        /* \"#utility.yul\":1601:1654   */\n      tag_101\n      jump\t// in\n    tag_178:\n        /* \"#utility.yul\":1591:1654   */\n      swap2\n      pop\n        /* \"#utility.yul\":1546:1664   */\n      pop\n        /* \"#utility.yul\":1197:1671   */\n      swap3\n      pop\n      swap3\n      swap1\n      pop\n      jump\t// out\n        /* \"#utility.yul\":1677:1795   */\n    tag_102:\n        /* \"#utility.yul\":1764:1788   */\n      tag_180\n        /* \"#utility.yul\":1782:1787   */\n      dup2\n        /* \"#utility.yul\":1764:1788   */\n      tag_96\n      jump\t// in\n    tag_180:\n        /* \"#utility.yul\":1759:1762   */\n      dup3\n        /* \"#utility.yul\":1752:1789   */\n      mstore\n        /* \"#utility.yul\":1677:1795   */\n      pop\n      pop\n      jump\t// out\n        /* \"#utility.yul\":1801:1900   */\n    tag_103:\n        /* \"#utility.yul\":1853:1859   */\n      0x00\n        /* \"#utility.yul\":1887:1892   */\n      dup2\n        /* \"#utility.yul\":1881:1893   */\n      mload\n        /* \"#utility.yul\":1871:1893   */\n      swap1\n      pop\n        /* \"#utility.yul\":1801:1900   */\n      swap2\n      swap1\n      pop\n      jump\t// out\n        /* \"#utility.yul\":1906:2075   */\n    tag_104:\n        /* \"#utility.yul\":1990:2001   */\n      0x00\n        /* \"#utility.yul\":2024:2030   */\n      dup3\n        /* \"#utility.yul\":2019:2022   */\n      dup3\n        /* \"#utility.yul\":2012:2031   */\n      mstore\n        /* \"#utility.yul\":2064:2068   */\n      0x20\n        /* \"#utility.yul\":2059:2062   */\n      dup3\n        /* \"#utility.yul\":2055:2069   */\n      add\n        /* \"#utility.yul\":2040:2069   */\n      swap1\n      pop\n        /* \"#utility.yul\":1906:2075   */\n      swap3\n      swap2\n      pop\n      pop\n      jump\t// out\n        /* \"#utility.yul\":2081:2220   */\n    tag_105:\n        /* \"#utility.yul\":2170:2176   */\n      dup3\n        /* \"#utility.yul\":2165:2168   */\n      dup2\n        /* \"#utility.yul\":2160:2163   */\n      dup4\n        /* \"#utility.yul\":2154:2177   */\n      mcopy\n        /* \"#utility.yul\":2211:2212   */\n      0x00\n        /* \"#utility.yul\":2202:2208   */\n      dup4\n        /* \"#utility.yul\":2197:2200   */\n      dup4\n        /* \"#utility.yul\":2193:2209   */\n      add\n        /* \"#utility.yul\":2186:2213   */\n      mstore\n        /* \"#utility.yul\":2081:2220   */\n      pop\n      pop\n      pop\n      jump\t// out\n        /* \"#utility.yul\":2226:2328   */\n    tag_106:\n        /* \"#utility.yul\":2267:2273   */\n      0x00\n        /* \"#utility.yul\":2318:2320   */\n      0x1f\n        /* \"#utility.yul\":2314:2321   */\n      not\n        /* \"#utility.yul\":2309:2311   */\n      0x1f\n        /* \"#utility.yul\":2302:2307   */\n      dup4\n        /* \"#utility.yul\":2298:2312   */\n      add\n        /* \"#utility.yul\":2294:2322   */\n      and\n        /* \"#utility.yul\":2284:2322   */\n      swap1\n      pop\n        /* \"#utility.yul\":2226:2328   */\n      swap2\n      swap1\n      pop\n      jump\t// out\n        /* \"#utility.yul\":2334:2711   */\n    tag_107:\n        /* \"#utility.yul\":2422:2425   */\n      0x00\n        /* \"#utility.yul\":2450:2489   */\n      tag_186\n        /* \"#utility.yul\":2483:2488   */\n      dup3\n        /* \"#utility.yul\":2450:2489   */\n      tag_103\n      jump\t// in\n    tag_186:\n        /* \"#utility.yul\":2505:2576   */\n      tag_187\n        /* \"#utility.yul\":2569:2575   */\n      dup2\n        /* \"#utility.yul\":2564:2567   */\n      dup6\n        /* \"#utility.yul\":2505:2576   */\n      tag_104\n      jump\t// in\n    tag_187:\n        /* \"#utility.yul\":2498:2576   */\n      swap4\n      pop\n        /* \"#utility.yul\":2585:2650   */\n      tag_188\n        /* \"#utility.yul\":2643:2649   */\n      dup2\n        /* \"#utility.yul\":2638:2641   */\n      dup6\n        /* \"#utility.yul\":2631:2635   */\n      0x20\n        /* \"#utility.yul\":2624:2629   */\n      dup7\n        /* \"#utility.yul\":2620:2636   */\n      add\n        /* \"#utility.yul\":2585:2650   */\n      tag_105\n      jump\t// in\n    tag_188:\n        /* \"#utility.yul\":2675:2704   */\n      tag_189\n        /* \"#utility.yul\":2697:2703   */\n      dup2\n        /* \"#utility.yul\":2675:2704   */\n      tag_106\n      jump\t// in\n    tag_189:\n        /* \"#utility.yul\":2670:2673   */\n      dup5\n        /* \"#utility.yul\":2666:2705   */\n      add\n        /* \"#utility.yul\":2659:2705   */\n      swap2\n      pop\n        /* \"#utility.yul\":2426:2711   */\n      pop\n        /* \"#utility.yul\":2334:2711   */\n      swap3\n      swap2\n      pop\n      pop\n      jump\t// out\n        /* \"#utility.yul\":2717:2835   */\n    tag_108:\n        /* \"#utility.yul\":2804:2828   */\n      tag_191\n        /* \"#utility.yul\":2822:2827   */\n      dup2\n        /* \"#utility.yul\":2804:2828   */\n      tag_99\n      jump\t// in\n    tag_191:\n        /* \"#utility.yul\":2799:2802   */\n      dup3\n        /* \"#utility.yul\":2792:2829   */\n      mstore\n        /* \"#utility.yul\":2717:2835   */\n      pop\n      pop\n      jump\t// out\n        /* \"#utility.yul\":2841:3485   */\n    tag_16:\n        /* \"#utility.yul\":3038:3042   */\n      0x00\n        /* \"#utility.yul\":3076:3079   */\n      0x80\n        /* \"#utility.yul\":3065:3074   */\n      dup3\n        /* \"#utility.yul\":3061:3080   */\n      add\n        /* \"#utility.yul\":3053:3080   */\n      swap1\n      pop\n        /* \"#utility.yul\":3090:3161   */\n      tag_193\n        /* \"#utility.yul\":3158:3159   */\n      0x00\n        /* \"#utility.yul\":3147:3156   */\n      dup4\n        /* \"#utility.yul\":3143:3160   */\n      add\n        /* \"#utility.yul\":3134:3140   */\n      dup8\n        /* \"#utility.yul\":3090:3161   */\n      tag_102\n      jump\t// in\n    tag_193:\n        /* \"#utility.yul\":3208:3217   */\n      dup2\n        /* \"#utility.yul\":3202:3206   */\n      dup2\n        /* \"#utility.yul\":3198:3218   */\n      sub\n        /* \"#utility.yul\":3193:3195   */\n      0x20\n        /* \"#utility.yul\":3182:3191   */\n      dup4\n        /* \"#utility.yul\":3178:3196   */\n      add\n        /* \"#utility.yul\":3171:3219   */\n      mstore\n        /* \"#utility.yul\":3236:3314   */\n      tag_194\n        /* \"#utility.yul\":3309:3313   */\n      dup2\n        /* \"#utility.yul\":3300:3306   */\n      dup7\n        /* \"#utility.yul\":3236:3314   */\n      tag_107\n      jump\t// in\n    tag_194:\n        /* \"#utility.yul\":3228:3314   */\n      swap1\n      pop\n        /* \"#utility.yul\":3324:3396   */\n      tag_195\n        /* \"#utility.yul\":3392:3394   */\n      0x40\n        /* \"#utility.yul\":3381:3390   */\n      dup4\n        /* \"#utility.yul\":3377:3395   */\n      add\n        /* \"#utility.yul\":3368:3374   */\n      dup6\n        /* \"#utility.yul\":3324:3396   */\n      tag_108\n      jump\t// in\n    tag_195:\n        /* \"#utility.yul\":3406:3478   */\n      tag_196\n        /* \"#utility.yul\":3474:3476   */\n      0x60\n        /* \"#utility.yul\":3463:3472   */\n      dup4\n        /* \"#utility.yul\":3459:3477   */\n      add\n        /* \"#utility.yul\":3450:3456   */\n      dup5\n        /* \"#utility.yul\":3406:3478   */\n      tag_108\n      jump\t// in\n    tag_196:\n        /* \"#utility.yul\":2841:3485   */\n      swap6\n      swap5\n      pop\n      pop\n      pop\n      pop\n      pop\n      jump\t// out\n        /* \"#utility.yul\":3491:3820   */\n    tag_19:\n        /* \"#utility.yul\":3550:3556   */\n      0x00\n        /* \"#utility.yul\":3599:3601   */\n      0x20\n        /* \"#utility.yul\":3587:3596   */\n      dup3\n        /* \"#utility.yul\":3578:3585   */\n      dup5\n        /* \"#utility.yul\":3574:3597   */\n      sub\n        /* \"#utility.yul\":3570:3602   */\n      slt\n        /* \"#utility.yul\":3567:3686   */\n      iszero\n      tag_198\n      jumpi\n        /* \"#utility.yul\":3605:3684   */\n      tag_199\n      tag_93\n      jump\t// in\n    tag_199:\n        /* \"#utility.yul\":3567:3686   */\n    tag_198:\n        /* \"#utility.yul\":3725:3726   */\n      0x00\n        /* \"#utility.yul\":3750:3803   */\n      tag_200\n        /* \"#utility.yul\":3795:3802   */\n      dup5\n        /* \"#utility.yul\":3786:3792   */\n      dup3\n        /* \"#utility.yul\":3775:3784   */\n      dup6\n        /* \"#utility.yul\":3771:3793   */\n      add\n        /* \"#utility.yul\":3750:3803   */\n      tag_98\n      jump\t// in\n    tag_200:\n        /* \"#utility.yul\":3740:3803   */\n      swap2\n      pop\n        /* \"#utility.yul\":3696:3813   */\n      pop\n        /* \"#utility.yul\":3491:3820   */\n      swap3\n      swap2\n      pop\n      pop\n      jump\t// out\n        /* \"#utility.yul\":3826:3961   */\n    tag_109:\n        /* \"#utility.yul\":3914:3920   */\n      0x00\n        /* \"#utility.yul\":3948:3953   */\n      dup2\n        /* \"#utility.yul\":3942:3954   */\n      mload\n        /* \"#utility.yul\":3932:3954   */\n      swap1\n      pop\n        /* \"#utility.yul\":3826:3961   */\n      swap2\n      swap1\n      pop\n      jump\t// out\n        /* \"#utility.yul\":3967:4172   */\n    tag_110:\n        /* \"#utility.yul\":4087:4098   */\n      0x00\n        /* \"#utility.yul\":4121:4127   */\n      dup3\n        /* \"#utility.yul\":4116:4119   */\n      dup3\n        /* \"#utility.yul\":4109:4128   */\n      mstore\n        /* \"#utility.yul\":4161:4165   */\n      0x20\n        /* \"#utility.yul\":4156:4159   */\n      dup3\n        /* \"#utility.yul\":4152:4166   */\n      add\n        /* \"#utility.yul\":4137:4166   */\n      swap1\n      pop\n        /* \"#utility.yul\":3967:4172   */\n      swap3\n      swap2\n      pop\n      pop\n      jump\t// out\n        /* \"#utility.yul\":4178:4331   */\n    tag_111:\n        /* \"#utility.yul\":4266:4270   */\n      0x00\n        /* \"#utility.yul\":4289:4292   */\n      dup2\n        /* \"#utility.yul\":4281:4292   */\n      swap1\n      pop\n        /* \"#utility.yul\":4319:4323   */\n      0x20\n        /* \"#utility.yul\":4314:4317   */\n      dup3\n        /* \"#utility.yul\":4310:4324   */\n      add\n        /* \"#utility.yul\":4302:4324   */\n      swap1\n      pop\n        /* \"#utility.yul\":4178:4331   */\n      swap2\n      swap1\n      pop\n      jump\t// out\n        /* \"#utility.yul\":4337:4445   */\n    tag_112:\n        /* \"#utility.yul\":4414:4438   */\n      tag_205\n        /* \"#utility.yul\":4432:4437   */\n      dup2\n        /* \"#utility.yul\":4414:4438   */\n      tag_96\n      jump\t// in\n    tag_205:\n        /* \"#utility.yul\":4409:4412   */\n      dup3\n        /* \"#utility.yul\":4402:4439   */\n      mstore\n        /* \"#utility.yul\":4337:4445   */\n      pop\n      pop\n      jump\t// out\n        /* \"#utility.yul\":4451:4610   */\n    tag_113:\n        /* \"#utility.yul\":4525:4536   */\n      0x00\n        /* \"#utility.yul\":4559:4565   */\n      dup3\n        /* \"#utility.yul\":4554:4557   */\n      dup3\n        /* \"#utility.yul\":4547:4566   */\n      mstore\n        /* \"#utility.yul\":4599:4603   */\n      0x20\n        /* \"#utility.yul\":4594:4597   */\n      dup3\n        /* \"#utility.yul\":4590:4604   */\n      add\n        /* \"#utility.yul\":4575:4604   */\n      swap1\n      pop\n        /* \"#utility.yul\":4451:4610   */\n      swap3\n      swap2\n      pop\n      pop\n      jump\t// out\n        /* \"#utility.yul\":4616:4973   */\n    tag_114:\n        /* \"#utility.yul\":4694:4697   */\n      0x00\n        /* \"#utility.yul\":4722:4761   */\n      tag_208\n        /* \"#utility.yul\":4755:4760   */\n      dup3\n        /* \"#utility.yul\":4722:4761   */\n      tag_103\n      jump\t// in\n    tag_208:\n        /* \"#utility.yul\":4777:4838   */\n      tag_209\n        /* \"#utility.yul\":4831:4837   */\n      dup2\n        /* \"#utility.yul\":4826:4829   */\n      dup6\n        /* \"#utility.yul\":4777:4838   */\n      tag_113\n      jump\t// in\n    tag_209:\n        /* \"#utility.yul\":4770:4838   */\n      swap4\n      pop\n        /* \"#utility.yul\":4847:4912   */\n      tag_210\n        /* \"#utility.yul\":4905:4911   */\n      dup2\n        /* \"#utility.yul\":4900:4903   */\n      dup6\n        /* \"#utility.yul\":4893:4897   */\n      0x20\n        /* \"#utility.yul\":4886:4891   */\n      dup7\n        /* \"#utility.yul\":4882:4898   */\n      add\n        /* \"#utility.yul\":4847:4912   */\n      tag_105\n      jump\t// in\n    tag_210:\n        /* \"#utility.yul\":4937:4966   */\n      tag_211\n        /* \"#utility.yul\":4959:4965   */\n      dup2\n        /* \"#utility.yul\":4937:4966   */\n      tag_106\n      jump\t// in\n    tag_211:\n        /* \"#utility.yul\":4932:4935   */\n      dup5\n        /* \"#utility.yul\":4928:4967   */\n      add\n        /* \"#utility.yul\":4921:4967   */\n      swap2\n      pop\n        /* \"#utility.yul\":4698:4973   */\n      pop\n        /* \"#utility.yul\":4616:4973   */\n      swap3\n      swap2\n      pop\n      pop\n      jump\t// out\n        /* \"#utility.yul\":4979:5087   */\n    tag_115:\n        /* \"#utility.yul\":5056:5080   */\n      tag_213\n        /* \"#utility.yul\":5074:5079   */\n      dup2\n        /* \"#utility.yul\":5056:5080   */\n      tag_99\n      jump\t// in\n    tag_213:\n        /* \"#utility.yul\":5051:5054   */\n      dup3\n        /* \"#utility.yul\":5044:5081   */\n      mstore\n        /* \"#utility.yul\":4979:5087   */\n      pop\n      pop\n      jump\t// out\n        /* \"#utility.yul\":5145:6092   */\n    tag_116:\n        /* \"#utility.yul\":5246:5249   */\n      0x00\n        /* \"#utility.yul\":5282:5286   */\n      0x80\n        /* \"#utility.yul\":5277:5280   */\n      dup4\n        /* \"#utility.yul\":5273:5287   */\n      add\n        /* \"#utility.yul\":5371:5375   */\n      0x00\n        /* \"#utility.yul\":5364:5369   */\n      dup4\n        /* \"#utility.yul\":5360:5376   */\n      add\n        /* \"#utility.yul\":5354:5377   */\n      mload\n        /* \"#utility.yul\":5390:5453   */\n      tag_215\n        /* \"#utility.yul\":5447:5451   */\n      0x00\n        /* \"#utility.yul\":5442:5445   */\n      dup7\n        /* \"#utility.yul\":5438:5452   */\n      add\n        /* \"#utility.yul\":5424:5436   */\n      dup3\n        /* \"#utility.yul\":5390:5453   */\n      tag_112\n      jump\t// in\n    tag_215:\n        /* \"#utility.yul\":5297:5463   */\n      pop\n        /* \"#utility.yul\":5548:5552   */\n      0x20\n        /* \"#utility.yul\":5541:5546   */\n      dup4\n        /* \"#utility.yul\":5537:5553   */\n      add\n        /* \"#utility.yul\":5531:5554   */\n      mload\n        /* \"#utility.yul\":5601:5604   */\n      dup5\n        /* \"#utility.yul\":5595:5599   */\n      dup3\n        /* \"#utility.yul\":5591:5605   */\n      sub\n        /* \"#utility.yul\":5584:5588   */\n      0x20\n        /* \"#utility.yul\":5579:5582   */\n      dup7\n        /* \"#utility.yul\":5575:5589   */\n      add\n        /* \"#utility.yul\":5568:5606   */\n      mstore\n        /* \"#utility.yul\":5627:5700   */\n      tag_216\n        /* \"#utility.yul\":5695:5699   */\n      dup3\n        /* \"#utility.yul\":5681:5693   */\n      dup3\n        /* \"#utility.yul\":5627:5700   */\n      tag_114\n      jump\t// in\n    tag_216:\n        /* \"#utility.yul\":5619:5700   */\n      swap2\n      pop\n        /* \"#utility.yul\":5473:5711   */\n      pop\n        /* \"#utility.yul\":5798:5802   */\n      0x40\n        /* \"#utility.yul\":5791:5796   */\n      dup4\n        /* \"#utility.yul\":5787:5803   */\n      add\n        /* \"#utility.yul\":5781:5804   */\n      mload\n        /* \"#utility.yul\":5817:5880   */\n      tag_217\n        /* \"#utility.yul\":5874:5878   */\n      0x40\n        /* \"#utility.yul\":5869:5872   */\n      dup7\n        /* \"#utility.yul\":5865:5879   */\n      add\n        /* \"#utility.yul\":5851:5863   */\n      dup3\n        /* \"#utility.yul\":5817:5880   */\n      tag_115\n      jump\t// in\n    tag_217:\n        /* \"#utility.yul\":5721:5890   */\n      pop\n        /* \"#utility.yul\":5973:5977   */\n      0x60\n        /* \"#utility.yul\":5966:5971   */\n      dup4\n        /* \"#utility.yul\":5962:5978   */\n      add\n        /* \"#utility.yul\":5956:5979   */\n      mload\n        /* \"#utility.yul\":5992:6055   */\n      tag_218\n        /* \"#utility.yul\":6049:6053   */\n      0x60\n        /* \"#utility.yul\":6044:6047   */\n      dup7\n        /* \"#utility.yul\":6040:6054   */\n      add\n        /* \"#utility.yul\":6026:6038   */\n      dup3\n        /* \"#utility.yul\":5992:6055   */\n      tag_115\n      jump\t// in\n    tag_218:\n        /* \"#utility.yul\":5900:6065   */\n      pop\n        /* \"#utility.yul\":6082:6086   */\n      dup1\n        /* \"#utility.yul\":6075:6086   */\n      swap2\n      pop\n        /* \"#utility.yul\":5251:6092   */\n      pop\n        /* \"#utility.yul\":5145:6092   */\n      swap3\n      swap2\n      pop\n      pop\n      jump\t// out\n        /* \"#utility.yul\":6098:6338   */\n    tag_117:\n        /* \"#utility.yul\":6209:6219   */\n      0x00\n        /* \"#utility.yul\":6244:6332   */\n      tag_220\n        /* \"#utility.yul\":6328:6331   */\n      dup4\n        /* \"#utility.yul\":6320:6326   */\n      dup4\n        /* \"#utility.yul\":6244:6332   */\n      tag_116\n      jump\t// in\n    tag_220:\n        /* \"#utility.yul\":6230:6332   */\n      swap1\n      pop\n        /* \"#utility.yul\":6098:6338   */\n      swap3\n      swap2\n      pop\n      pop\n      jump\t// out\n        /* \"#utility.yul\":6344:6478   */\n    tag_118:\n        /* \"#utility.yul\":6435:6439   */\n      0x00\n        /* \"#utility.yul\":6467:6471   */\n      0x20\n        /* \"#utility.yul\":6462:6465   */\n      dup3\n        /* \"#utility.yul\":6458:6472   */\n      add\n        /* \"#utility.yul\":6450:6472   */\n      swap1\n      pop\n        /* \"#utility.yul\":6344:6478   */\n      swap2\n      swap1\n      pop\n      jump\t// out\n        /* \"#utility.yul\":6540:7619   */\n    tag_119:\n        /* \"#utility.yul\":6701:6704   */\n      0x00\n        /* \"#utility.yul\":6730:6805   */\n      tag_223\n        /* \"#utility.yul\":6799:6804   */\n      dup3\n        /* \"#utility.yul\":6730:6805   */\n      tag_109\n      jump\t// in\n    tag_223:\n        /* \"#utility.yul\":6821:6928   */\n      tag_224\n        /* \"#utility.yul\":6921:6927   */\n      dup2\n        /* \"#utility.yul\":6916:6919   */\n      dup6\n        /* \"#utility.yul\":6821:6928   */\n      tag_110\n      jump\t// in\n    tag_224:\n        /* \"#utility.yul\":6814:6928   */\n      swap4\n      pop\n        /* \"#utility.yul\":6954:6957   */\n      dup4\n        /* \"#utility.yul\":6999:7003   */\n      0x20\n        /* \"#utility.yul\":6991:6997   */\n      dup3\n        /* \"#utility.yul\":6987:7004   */\n      mul\n        /* \"#utility.yul\":6982:6985   */\n      dup6\n        /* \"#utility.yul\":6978:7005   */\n      add\n        /* \"#utility.yul\":7029:7106   */\n      tag_225\n        /* \"#utility.yul\":7100:7105   */\n      dup6\n        /* \"#utility.yul\":7029:7106   */\n      tag_111\n      jump\t// in\n    tag_225:\n        /* \"#utility.yul\":7129:7136   */\n      dup1\n        /* \"#utility.yul\":7160:7161   */\n      0x00\n        /* \"#utility.yul\":7145:7574   */\n    tag_226:\n        /* \"#utility.yul\":7170:7176   */\n      dup6\n        /* \"#utility.yul\":7167:7168   */\n      dup2\n        /* \"#utility.yul\":7164:7177   */\n      lt\n        /* \"#utility.yul\":7145:7574   */\n      iszero\n      tag_228\n      jumpi\n        /* \"#utility.yul\":7241:7250   */\n      dup5\n        /* \"#utility.yul\":7235:7239   */\n      dup5\n        /* \"#utility.yul\":7231:7251   */\n      sub\n        /* \"#utility.yul\":7226:7229   */\n      dup10\n        /* \"#utility.yul\":7219:7252   */\n      mstore\n        /* \"#utility.yul\":7292:7298   */\n      dup2\n        /* \"#utility.yul\":7286:7299   */\n      mload\n        /* \"#utility.yul\":7320:7426   */\n      tag_229\n        /* \"#utility.yul\":7421:7425   */\n      dup6\n        /* \"#utility.yul\":7406:7419   */\n      dup3\n        /* \"#utility.yul\":7320:7426   */\n      tag_117\n      jump\t// in\n    tag_229:\n        /* \"#utility.yul\":7312:7426   */\n      swap5\n      pop\n        /* \"#utility.yul\":7449:7530   */\n      tag_230\n        /* \"#utility.yul\":7523:7529   */\n      dup4\n        /* \"#utility.yul\":7449:7530   */\n      tag_118\n      jump\t// in\n    tag_230:\n        /* \"#utility.yul\":7439:7530   */\n      swap3\n      pop\n        /* \"#utility.yul\":7559:7563   */\n      0x20\n        /* \"#utility.yul\":7554:7557   */\n      dup11\n        /* \"#utility.yul\":7550:7564   */\n      add\n        /* \"#utility.yul\":7543:7564   */\n      swap10\n      pop\n        /* \"#utility.yul\":7205:7574   */\n      pop\n        /* \"#utility.yul\":7192:7193   */\n      0x01\n        /* \"#utility.yul\":7189:7190   */\n      dup2\n        /* \"#utility.yul\":7185:7194   */\n      add\n        /* \"#utility.yul\":7180:7194   */\n      swap1\n      pop\n        /* \"#utility.yul\":7145:7574   */\n      jump(tag_226)\n    tag_228:\n        /* \"#utility.yul\":7149:7163   */\n      pop\n        /* \"#utility.yul\":7590:7594   */\n      dup3\n        /* \"#utility.yul\":7583:7594   */\n      swap8\n      pop\n        /* \"#utility.yul\":7610:7613   */\n      dup8\n        /* \"#utility.yul\":7603:7613   */\n      swap6\n      pop\n        /* \"#utility.yul\":6706:7619   */\n      pop\n      pop\n      pop\n      pop\n      pop\n        /* \"#utility.yul\":6540:7619   */\n      swap3\n      swap2\n      pop\n      pop\n      jump\t// out\n        /* \"#utility.yul\":7625:8082   */\n    tag_22:\n        /* \"#utility.yul\":7810:7814   */\n      0x00\n        /* \"#utility.yul\":7848:7850   */\n      0x20\n        /* \"#utility.yul\":7837:7846   */\n      dup3\n        /* \"#utility.yul\":7833:7851   */\n      add\n        /* \"#utility.yul\":7825:7851   */\n      swap1\n      pop\n        /* \"#utility.yul\":7897:7906   */\n      dup2\n        /* \"#utility.yul\":7891:7895   */\n      dup2\n        /* \"#utility.yul\":7887:7907   */\n      sub\n        /* \"#utility.yul\":7883:7884   */\n      0x00\n        /* \"#utility.yul\":7872:7881   */\n      dup4\n        /* \"#utility.yul\":7868:7885   */\n      add\n        /* \"#utility.yul\":7861:7908   */\n      mstore\n        /* \"#utility.yul\":7925:8075   */\n      tag_232\n        /* \"#utility.yul\":8070:8074   */\n      dup2\n        /* \"#utility.yul\":8061:8067   */\n      dup5\n        /* \"#utility.yul\":7925:8075   */\n      tag_119\n      jump\t// in\n    tag_232:\n        /* \"#utility.yul\":7917:8075   */\n      swap1\n      pop\n        /* \"#utility.yul\":7625:8082   */\n      swap3\n      swap2\n      pop\n      pop\n      jump\t// out\n        /* \"#utility.yul\":8140:9097   */\n    tag_120:\n        /* \"#utility.yul\":8251:8254   */\n      0x00\n        /* \"#utility.yul\":8287:8291   */\n      0x80\n        /* \"#utility.yul\":8282:8285   */\n      dup4\n        /* \"#utility.yul\":8278:8292   */\n      add\n        /* \"#utility.yul\":8376:8380   */\n      0x00\n        /* \"#utility.yul\":8369:8374   */\n      dup4\n        /* \"#utility.yul\":8365:8381   */\n      add\n        /* \"#utility.yul\":8359:8382   */\n      mload\n        /* \"#utility.yul\":8395:8458   */\n      tag_234\n        /* \"#utility.yul\":8452:8456   */\n      0x00\n        /* \"#utility.yul\":8447:8450   */\n      dup7\n        /* \"#utility.yul\":8443:8457   */\n      add\n        /* \"#utility.yul\":8429:8441   */\n      dup3\n        /* \"#utility.yul\":8395:8458   */\n      tag_112\n      jump\t// in\n    tag_234:\n        /* \"#utility.yul\":8302:8468   */\n      pop\n        /* \"#utility.yul\":8553:8557   */\n      0x20\n        /* \"#utility.yul\":8546:8551   */\n      dup4\n        /* \"#utility.yul\":8542:8558   */\n      add\n        /* \"#utility.yul\":8536:8559   */\n      mload\n        /* \"#utility.yul\":8606:8609   */\n      dup5\n        /* \"#utility.yul\":8600:8604   */\n      dup3\n        /* \"#utility.yul\":8596:8610   */\n      sub\n        /* \"#utility.yul\":8589:8593   */\n      0x20\n        /* \"#utility.yul\":8584:8587   */\n      dup7\n        /* \"#utility.yul\":8580:8594   */\n      add\n        /* \"#utility.yul\":8573:8611   */\n      mstore\n        /* \"#utility.yul\":8632:8705   */\n      tag_235\n        /* \"#utility.yul\":8700:8704   */\n      dup3\n        /* \"#utility.yul\":8686:8698   */\n      dup3\n        /* \"#utility.yul\":8632:8705   */\n      tag_114\n      jump\t// in\n    tag_235:\n        /* \"#utility.yul\":8624:8705   */\n      swap2\n      pop\n        /* \"#utility.yul\":8478:8716   */\n      pop\n        /* \"#utility.yul\":8803:8807   */\n      0x40\n        /* \"#utility.yul\":8796:8801   */\n      dup4\n        /* \"#utility.yul\":8792:8808   */\n      add\n        /* \"#utility.yul\":8786:8809   */\n      mload\n        /* \"#utility.yul\":8822:8885   */\n      tag_236\n        /* \"#utility.yul\":8879:8883   */\n      0x40\n        /* \"#utility.yul\":8874:8877   */\n      dup7\n        /* \"#utility.yul\":8870:8884   */\n      add\n        /* \"#utility.yul\":8856:8868   */\n      dup3\n        /* \"#utility.yul\":8822:8885   */\n      tag_115\n      jump\t// in\n    tag_236:\n        /* \"#utility.yul\":8726:8895   */\n      pop\n        /* \"#utility.yul\":8978:8982   */\n      0x60\n        /* \"#utility.yul\":8971:8976   */\n      dup4\n        /* \"#utility.yul\":8967:8983   */\n      add\n        /* \"#utility.yul\":8961:8984   */\n      mload\n        /* \"#utility.yul\":8997:9060   */\n      tag_237\n        /* \"#utility.yul\":9054:9058   */\n      0x60\n        /* \"#utility.yul\":9049:9052   */\n      dup7\n        /* \"#utility.yul\":9045:9059   */\n      add\n        /* \"#utility.yul\":9031:9043   */\n      dup3\n        /* \"#utility.yul\":8997:9060   */\n      tag_115\n      jump\t// in\n    tag_237:\n        /* \"#utility.yul\":8905:9070   */\n      pop\n        /* \"#utility.yul\":9087:9091   */\n      dup1\n        /* \"#utility.yul\":9080:9091   */\n      swap2\n      pop\n        /* \"#utility.yul\":8256:9097   */\n      pop\n        /* \"#utility.yul\":8140:9097   */\n      swap3\n      swap2\n      pop\n      pop\n      jump\t// out\n        /* \"#utility.yul\":9103:9460   */\n    tag_27:\n        /* \"#utility.yul\":9238:9242   */\n      0x00\n        /* \"#utility.yul\":9276:9278   */\n      0x20\n        /* \"#utility.yul\":9265:9274   */\n      dup3\n        /* \"#utility.yul\":9261:9279   */\n      add\n        /* \"#utility.yul\":9253:9279   */\n      swap1\n      pop\n        /* \"#utility.yul\":9325:9334   */\n      dup2\n        /* \"#utility.yul\":9319:9323   */\n      dup2\n        /* \"#utility.yul\":9315:9335   */\n      sub\n        /* \"#utility.yul\":9311:9312   */\n      0x00\n        /* \"#utility.yul\":9300:9309   */\n      dup4\n        /* \"#utility.yul\":9296:9313   */\n      add\n        /* \"#utility.yul\":9289:9336   */\n      mstore\n        /* \"#utility.yul\":9353:9453   */\n      tag_239\n        /* \"#utility.yul\":9448:9452   */\n      dup2\n        /* \"#utility.yul\":9439:9445   */\n      dup5\n        /* \"#utility.yul\":9353:9453   */\n      tag_120\n      jump\t// in\n    tag_239:\n        /* \"#utility.yul\":9345:9453   */\n      swap1\n      pop\n        /* \"#utility.yul\":9103:9460   */\n      swap3\n      swap2\n      pop\n      pop\n      jump\t// out\n        /* \"#utility.yul\":9466:9556   */\n    tag_121:\n        /* \"#utility.yul\":9500:9507   */\n      0x00\n        /* \"#utility.yul\":9543:9548   */\n      dup2\n        /* \"#utility.yul\":9536:9549   */\n      iszero\n        /* \"#utility.yul\":9529:9550   */\n      iszero\n        /* \"#utility.yul\":9518:9550   */\n      swap1\n      pop\n        /* \"#utility.yul\":9466:9556   */\n      swap2\n      swap1\n      pop\n      jump\t// out\n        /* \"#utility.yul\":9562:9671   */\n    tag_122:\n        /* \"#utility.yul\":9643:9664   */\n      tag_242\n        /* \"#utility.yul\":9658:9663   */\n      dup2\n        /* \"#utility.yul\":9643:9664   */\n      tag_121\n      jump\t// in\n    tag_242:\n        /* \"#utility.yul\":9638:9641   */\n      dup3\n        /* \"#utility.yul\":9631:9665   */\n      mstore\n        /* \"#utility.yul\":9562:9671   */\n      pop\n      pop\n      jump\t// out\n        /* \"#utility.yul\":9677:9887   */\n    tag_31:\n        /* \"#utility.yul\":9764:9768   */\n      0x00\n        /* \"#utility.yul\":9802:9804   */\n      0x20\n        /* \"#utility.yul\":9791:9800   */\n      dup3\n        /* \"#utility.yul\":9787:9805   */\n      add\n        /* \"#utility.yul\":9779:9805   */\n      swap1\n      pop\n        /* \"#utility.yul\":9815:9880   */\n      tag_244\n        /* \"#utility.yul\":9877:9878   */\n      0x00\n        /* \"#utility.yul\":9866:9875   */\n      dup4\n        /* \"#utility.yul\":9862:9879   */\n      add\n        /* \"#utility.yul\":9853:9859   */\n      dup5\n        /* \"#utility.yul\":9815:9880   */\n      tag_122\n      jump\t// in\n    tag_244:\n        /* \"#utility.yul\":9677:9887   */\n      swap3\n      swap2\n      pop\n      pop\n      jump\t// out\n        /* \"#utility.yul\":9893:10010   */\n    tag_123:\n        /* \"#utility.yul\":10002:10003   */\n      0x00\n        /* \"#utility.yul\":9999:10000   */\n      dup1\n        /* \"#utility.yul\":9992:10004   */\n      revert\n        /* \"#utility.yul\":10016:10133   */\n    tag_124:\n        /* \"#utility.yul\":10125:10126   */\n      0x00\n        /* \"#utility.yul\":10122:10123   */\n      dup1\n        /* \"#utility.yul\":10115:10127   */\n      revert\n        /* \"#utility.yul\":10139:10319   */\n    tag_125:\n        /* \"#utility.yul\":10187:10264   */\n      0x4e487b7100000000000000000000000000000000000000000000000000000000\n        /* \"#utility.yul\":10184:10185   */\n      0x00\n        /* \"#utility.yul\":10177:10265   */\n      mstore\n        /* \"#utility.yul\":10284:10288   */\n      0x41\n        /* \"#utility.yul\":10281:10282   */\n      0x04\n        /* \"#utility.yul\":10274:10289   */\n      mstore\n        /* \"#utility.yul\":10308:10312   */\n      0x24\n        /* \"#utility.yul\":10305:10306   */\n      0x00\n        /* \"#utility.yul\":10298:10313   */\n      revert\n        /* \"#utility.yul\":10325:10606   */\n    tag_126:\n        /* \"#utility.yul\":10408:10435   */\n      tag_249\n        /* \"#utility.yul\":10430:10434   */\n      dup3\n        /* \"#utility.yul\":10408:10435   */\n      tag_106\n      jump\t// in\n    tag_249:\n        /* \"#utility.yul\":10400:10406   */\n      dup2\n        /* \"#utility.yul\":10396:10436   */\n      add\n        /* \"#utility.yul\":10538:10544   */\n      dup2\n        /* \"#utility.yul\":10526:10536   */\n      dup2\n        /* \"#utility.yul\":10523:10545   */\n      lt\n        /* \"#utility.yul\":10502:10520   */\n      0xffffffffffffffff\n        /* \"#utility.yul\":10490:10500   */\n      dup3\n        /* \"#utility.yul\":10487:10521   */\n      gt\n        /* \"#utility.yul\":10484:10546   */\n      or\n        /* \"#utility.yul\":10481:10569   */\n      iszero\n      tag_250\n      jumpi\n        /* \"#utility.yul\":10549:10567   */\n      tag_251\n      tag_125\n      jump\t// in\n    tag_251:\n        /* \"#utility.yul\":10481:10569   */\n    tag_250:\n        /* \"#utility.yul\":10589:10599   */\n      dup1\n        /* \"#utility.yul\":10585:10587   */\n      0x40\n        /* \"#utility.yul\":10578:10600   */\n      mstore\n        /* \"#utility.yul\":10368:10606   */\n      pop\n        /* \"#utility.yul\":10325:10606   */\n      pop\n      pop\n      jump\t// out\n        /* \"#utility.yul\":10612:10741   */\n    tag_127:\n        /* \"#utility.yul\":10646:10652   */\n      0x00\n        /* \"#utility.yul\":10673:10693   */\n      tag_253\n      tag_92\n      jump\t// in\n    tag_253:\n        /* \"#utility.yul\":10663:10693   */\n      swap1\n      pop\n        /* \"#utility.yul\":10702:10735   */\n      tag_254\n        /* \"#utility.yul\":10730:10734   */\n      dup3\n        /* \"#utility.yul\":10722:10728   */\n      dup3\n        /* \"#utility.yul\":10702:10735   */\n      tag_126\n      jump\t// in\n    tag_254:\n        /* \"#utility.yul\":10612:10741   */\n      swap2\n      swap1\n      pop\n      jump\t// out\n        /* \"#utility.yul\":10747:11055   */\n    tag_128:\n        /* \"#utility.yul\":10809:10813   */\n      0x00\n        /* \"#utility.yul\":10899:10917   */\n      0xffffffffffffffff\n        /* \"#utility.yul\":10891:10897   */\n      dup3\n        /* \"#utility.yul\":10888:10918   */\n      gt\n        /* \"#utility.yul\":10885:10941   */\n      iszero\n      tag_256\n      jumpi\n        /* \"#utility.yul\":10921:10939   */\n      tag_257\n      tag_125\n      jump\t// in\n    tag_257:\n        /* \"#utility.yul\":10885:10941   */\n    tag_256:\n        /* \"#utility.yul\":10959:10988   */\n      tag_258\n        /* \"#utility.yul\":10981:10987   */\n      dup3\n        /* \"#utility.yul\":10959:10988   */\n      tag_106\n      jump\t// in\n    tag_258:\n        /* \"#utility.yul\":10951:10988   */\n      swap1\n      pop\n        /* \"#utility.yul\":11043:11047   */\n      0x20\n        /* \"#utility.yul\":11037:11041   */\n      dup2\n        /* \"#utility.yul\":11033:11048   */\n      add\n        /* \"#utility.yul\":11025:11048   */\n      swap1\n      pop\n        /* \"#utility.yul\":10747:11055   */\n      swap2\n      swap1\n      pop\n      jump\t// out\n        /* \"#utility.yul\":11061:11209   */\n    tag_129:\n        /* \"#utility.yul\":11159:11165   */\n      dup3\n        /* \"#utility.yul\":11154:11157   */\n      dup2\n        /* \"#utility.yul\":11149:11152   */\n      dup4\n        /* \"#utility.yul\":11136:11166   */\n      calldatacopy\n        /* \"#utility.yul\":11200:11201   */\n      0x00\n        /* \"#utility.yul\":11191:11197   */\n      dup4\n        /* \"#utility.yul\":11186:11189   */\n      dup4\n        /* \"#utility.yul\":11182:11198   */\n      add\n        /* \"#utility.yul\":11175:11202   */\n      mstore\n        /* \"#utility.yul\":11061:11209   */\n      pop\n      pop\n      pop\n      jump\t// out\n        /* \"#utility.yul\":11215:11640   */\n    tag_130:\n        /* \"#utility.yul\":11293:11298   */\n      0x00\n        /* \"#utility.yul\":11318:11384   */\n      tag_261\n        /* \"#utility.yul\":11334:11383   */\n      tag_262\n        /* \"#utility.yul\":11376:11382   */\n      dup5\n        /* \"#utility.yul\":11334:11383   */\n      tag_128\n      jump\t// in\n    tag_262:\n        /* \"#utility.yul\":11318:11384   */\n      tag_127\n      jump\t// in\n    tag_261:\n        /* \"#utility.yul\":11309:11384   */\n      swap1\n      pop\n        /* \"#utility.yul\":11407:11413   */\n      dup3\n        /* \"#utility.yul\":11400:11405   */\n      dup2\n        /* \"#utility.yul\":11393:11414   */\n      mstore\n        /* \"#utility.yul\":11445:11449   */\n      0x20\n        /* \"#utility.yul\":11438:11443   */\n      dup2\n        /* \"#utility.yul\":11434:11450   */\n      add\n        /* \"#utility.yul\":11483:11486   */\n      dup5\n        /* \"#utility.yul\":11474:11480   */\n      dup5\n        /* \"#utility.yul\":11469:11472   */\n      dup5\n        /* \"#utility.yul\":11465:11481   */\n      add\n        /* \"#utility.yul\":11462:11487   */\n      gt\n        /* \"#utility.yul\":11459:11571   */\n      iszero\n      tag_263\n      jumpi\n        /* \"#utility.yul\":11490:11569   */\n      tag_264\n      tag_124\n      jump\t// in\n    tag_264:\n        /* \"#utility.yul\":11459:11571   */\n    tag_263:\n        /* \"#utility.yul\":11580:11634   */\n      tag_265\n        /* \"#utility.yul\":11627:11633   */\n      dup5\n        /* \"#utility.yul\":11622:11625   */\n      dup3\n        /* \"#utility.yul\":11617:11620   */\n      dup6\n        /* \"#utility.yul\":11580:11634   */\n      tag_129\n      jump\t// in\n    tag_265:\n        /* \"#utility.yul\":11299:11640   */\n      pop\n        /* \"#utility.yul\":11215:11640   */\n      swap4\n      swap3\n      pop\n      pop\n      pop\n      jump\t// out\n        /* \"#utility.yul\":11660:12000   */\n    tag_131:\n        /* \"#utility.yul\":11716:11721   */\n      0x00\n        /* \"#utility.yul\":11765:11768   */\n      dup3\n        /* \"#utility.yul\":11758:11762   */\n      0x1f\n        /* \"#utility.yul\":11750:11756   */\n      dup4\n        /* \"#utility.yul\":11746:11763   */\n      add\n        /* \"#utility.yul\":11742:11769   */\n      slt\n        /* \"#utility.yul\":11732:11854   */\n      tag_267\n      jumpi\n        /* \"#utility.yul\":11773:11852   */\n      tag_268\n      tag_123\n      jump\t// in\n    tag_268:\n        /* \"#utility.yul\":11732:11854   */\n    tag_267:\n        /* \"#utility.yul\":11890:11896   */\n      dup2\n        /* \"#utility.yul\":11877:11897   */\n      calldataload\n        /* \"#utility.yul\":11915:11994   */\n      tag_269\n        /* \"#utility.yul\":11990:11993   */\n      dup5\n        /* \"#utility.yul\":11982:11988   */\n      dup3\n        /* \"#utility.yul\":11975:11979   */\n      0x20\n        /* \"#utility.yul\":11967:11973   */\n      dup7\n        /* \"#utility.yul\":11963:11980   */\n      add\n        /* \"#utility.yul\":11915:11994   */\n      tag_130\n      jump\t// in\n    tag_269:\n        /* \"#utility.yul\":11906:11994   */\n      swap2\n      pop\n        /* \"#utility.yul\":11722:12000   */\n      pop\n        /* \"#utility.yul\":11660:12000   */\n      swap3\n      swap2\n      pop\n      pop\n      jump\t// out\n        /* \"#utility.yul\":12006:12515   */\n    tag_34:\n        /* \"#utility.yul\":12075:12081   */\n      0x00\n        /* \"#utility.yul\":12124:12126   */\n      0x20\n        /* \"#utility.yul\":12112:12121   */\n      dup3\n        /* \"#utility.yul\":12103:12110   */\n      dup5\n        /* \"#utility.yul\":12099:12122   */\n      sub\n        /* \"#utility.yul\":12095:12127   */\n      slt\n        /* \"#utility.yul\":12092:12211   */\n      iszero\n      tag_271\n      jumpi\n        /* \"#utility.yul\":12130:12209   */\n      tag_272\n      tag_93\n      jump\t// in\n    tag_272:\n        /* \"#utility.yul\":12092:12211   */\n    tag_271:\n        /* \"#utility.yul\":12278:12279   */\n      0x00\n        /* \"#utility.yul\":12267:12276   */\n      dup3\n        /* \"#utility.yul\":12263:12280   */\n      add\n        /* \"#utility.yul\":12250:12281   */\n      calldataload\n        /* \"#utility.yul\":12308:12326   */\n      0xffffffffffffffff\n        /* \"#utility.yul\":12300:12306   */\n      dup2\n        /* \"#utility.yul\":12297:12327   */\n      gt\n        /* \"#utility.yul\":12294:12411   */\n      iszero\n      tag_273\n      jumpi\n        /* \"#utility.yul\":12330:12409   */\n      tag_274\n      tag_94\n      jump\t// in\n    tag_274:\n        /* \"#utility.yul\":12294:12411   */\n    tag_273:\n        /* \"#utility.yul\":12435:12498   */\n      tag_275\n        /* \"#utility.yul\":12490:12497   */\n      dup5\n        /* \"#utility.yul\":12481:12487   */\n      dup3\n        /* \"#utility.yul\":12470:12479   */\n      dup6\n        /* \"#utility.yul\":12466:12488   */\n      add\n        /* \"#utility.yul\":12435:12498   */\n      tag_131\n      jump\t// in\n    tag_275:\n        /* \"#utility.yul\":12425:12498   */\n      swap2\n      pop\n        /* \"#utility.yul\":12221:12508   */\n      pop\n        /* \"#utility.yul\":12006:12515   */\n      swap3\n      swap2\n      pop\n      pop\n      jump\t// out\n        /* \"#utility.yul\":12521:12743   */\n    tag_39:\n        /* \"#utility.yul\":12614:12618   */\n      0x00\n        /* \"#utility.yul\":12652:12654   */\n      0x20\n        /* \"#utility.yul\":12641:12650   */\n      dup3\n        /* \"#utility.yul\":12637:12655   */\n      add\n        /* \"#utility.yul\":12629:12655   */\n      swap1\n      pop\n        /* \"#utility.yul\":12665:12736   */\n      tag_277\n        /* \"#utility.yul\":12733:12734   */\n      0x00\n        /* \"#utility.yul\":12722:12731   */\n      dup4\n        /* \"#utility.yul\":12718:12735   */\n      add\n        /* \"#utility.yul\":12709:12715   */\n      dup5\n        /* \"#utility.yul\":12665:12736   */\n      tag_102\n      jump\t// in\n    tag_277:\n        /* \"#utility.yul\":12521:12743   */\n      swap3\n      swap2\n      pop\n      pop\n      jump\t// out\n        /* \"#utility.yul\":12749:12971   */\n    tag_44:\n        /* \"#utility.yul\":12842:12846   */\n      0x00\n        /* \"#utility.yul\":12880:12882   */\n      0x20\n        /* \"#utility.yul\":12869:12878   */\n      dup3\n        /* \"#utility.yul\":12865:12883   */\n      add\n        /* \"#utility.yul\":12857:12883   */\n      swap1\n      pop\n        /* \"#utility.yul\":12893:12964   */\n      tag_279\n        /* \"#utility.yul\":12961:12962   */\n      0x00\n        /* \"#utility.yul\":12950:12959   */\n      dup4\n        /* \"#utility.yul\":12946:12963   */\n      add\n        /* \"#utility.yul\":12937:12943   */\n      dup5\n        /* \"#utility.yul\":12893:12964   */\n      tag_108\n      jump\t// in\n    tag_279:\n        /* \"#utility.yul\":12749:12971   */\n      swap3\n      swap2\n      pop\n      pop\n      jump\t// out\n        /* \"#utility.yul\":12977:13157   */\n    tag_132:\n        /* \"#utility.yul\":13025:13102   */\n      0x4e487b7100000000000000000000000000000000000000000000000000000000\n        /* \"#utility.yul\":13022:13023   */\n      0x00\n        /* \"#utility.yul\":13015:13103   */\n      mstore\n        /* \"#utility.yul\":13122:13126   */\n      0x22\n        /* \"#utility.yul\":13119:13120   */\n      0x04\n        /* \"#utility.yul\":13112:13127   */\n      mstore\n        /* \"#utility.yul\":13146:13150   */\n      0x24\n        /* \"#utility.yul\":13143:13144   */\n      0x00\n        /* \"#utility.yul\":13136:13151   */\n      revert\n        /* \"#utility.yul\":13163:13483   */\n    tag_48:\n        /* \"#utility.yul\":13207:13213   */\n      0x00\n        /* \"#utility.yul\":13244:13245   */\n      0x02\n        /* \"#utility.yul\":13238:13242   */\n      dup3\n        /* \"#utility.yul\":13234:13246   */\n      div\n        /* \"#utility.yul\":13224:13246   */\n      swap1\n      pop\n        /* \"#utility.yul\":13291:13292   */\n      0x01\n        /* \"#utility.yul\":13285:13289   */\n      dup3\n        /* \"#utility.yul\":13281:13293   */\n      and\n        /* \"#utility.yul\":13312:13330   */\n      dup1\n        /* \"#utility.yul\":13302:13383   */\n      tag_282\n      jumpi\n        /* \"#utility.yul\":13368:13372   */\n      0x7f\n        /* \"#utility.yul\":13360:13366   */\n      dup3\n        /* \"#utility.yul\":13356:13373   */\n      and\n        /* \"#utility.yul\":13346:13373   */\n      swap2\n      pop\n        /* \"#utility.yul\":13302:13383   */\n    tag_282:\n        /* \"#utility.yul\":13430:13432   */\n      0x20\n        /* \"#utility.yul\":13422:13428   */\n      dup3\n        /* \"#utility.yul\":13419:13433   */\n      lt\n        /* \"#utility.yul\":13399:13417   */\n      dup2\n        /* \"#utility.yul\":13396:13434   */\n      sub\n        /* \"#utility.yul\":13393:13477   */\n      tag_283\n      jumpi\n        /* \"#utility.yul\":13449:13467   */\n      tag_284\n      tag_132\n      jump\t// in\n    tag_284:\n        /* \"#utility.yul\":13393:13477   */\n    tag_283:\n        /* \"#utility.yul\":13214:13483   */\n      pop\n        /* \"#utility.yul\":13163:13483   */\n      swap2\n      swap1\n      pop\n      jump\t// out\n        /* \"#utility.yul\":13489:13669   */\n    tag_67:\n        /* \"#utility.yul\":13537:13614   */\n      0x4e487b7100000000000000000000000000000000000000000000000000000000\n        /* \"#utility.yul\":13534:13535   */\n      0x00\n        /* \"#utility.yul\":13527:13615   */\n      mstore\n        /* \"#utility.yul\":13634:13638   */\n      0x32\n        /* \"#utility.yul\":13631:13632   */\n      0x04\n        /* \"#utility.yul\":13624:13639   */\n      mstore\n        /* \"#utility.yul\":13658:13662   */\n      0x24\n        /* \"#utility.yul\":13655:13656   */\n      0x00\n        /* \"#utility.yul\":13648:13663   */\n      revert\n        /* \"#utility.yul\":13675:13850   */\n    tag_133:\n        /* \"#utility.yul\":13815:13842   */\n      0x54686520636f6e747261637420697320696e4163746976652100000000000000\n        /* \"#utility.yul\":13811:13812   */\n      0x00\n        /* \"#utility.yul\":13803:13809   */\n      dup3\n        /* \"#utility.yul\":13799:13813   */\n      add\n        /* \"#utility.yul\":13792:13843   */\n      mstore\n        /* \"#utility.yul\":13675:13850   */\n      pop\n      jump\t// out\n        /* \"#utility.yul\":13856:14222   */\n    tag_134:\n        /* \"#utility.yul\":13998:14001   */\n      0x00\n        /* \"#utility.yul\":14019:14086   */\n      tag_288\n        /* \"#utility.yul\":14083:14085   */\n      0x19\n        /* \"#utility.yul\":14078:14081   */\n      dup4\n        /* \"#utility.yul\":14019:14086   */\n      tag_104\n      jump\t// in\n    tag_288:\n        /* \"#utility.yul\":14012:14086   */\n      swap2\n      pop\n        /* \"#utility.yul\":14095:14188   */\n      tag_289\n        /* \"#utility.yul\":14184:14187   */\n      dup3\n        /* \"#utility.yul\":14095:14188   */\n      tag_133\n      jump\t// in\n    tag_289:\n        /* \"#utility.yul\":14213:14215   */\n      0x20\n        /* \"#utility.yul\":14208:14211   */\n      dup3\n        /* \"#utility.yul\":14204:14216   */\n      add\n        /* \"#utility.yul\":14197:14216   */\n      swap1\n      pop\n        /* \"#utility.yul\":13856:14222   */\n      swap2\n      swap1\n      pop\n      jump\t// out\n        /* \"#utility.yul\":14228:14647   */\n    tag_77:\n        /* \"#utility.yul\":14394:14398   */\n      0x00\n        /* \"#utility.yul\":14432:14434   */\n      0x20\n        /* \"#utility.yul\":14421:14430   */\n      dup3\n        /* \"#utility.yul\":14417:14435   */\n      add\n        /* \"#utility.yul\":14409:14435   */\n      swap1\n      pop\n        /* \"#utility.yul\":14481:14490   */\n      dup2\n        /* \"#utility.yul\":14475:14479   */\n      dup2\n        /* \"#utility.yul\":14471:14491   */\n      sub\n        /* \"#utility.yul\":14467:14468   */\n      0x00\n        /* \"#utility.yul\":14456:14465   */\n      dup4\n        /* \"#utility.yul\":14452:14469   */\n      add\n        /* \"#utility.yul\":14445:14492   */\n      mstore\n        /* \"#utility.yul\":14509:14640   */\n      tag_291\n        /* \"#utility.yul\":14635:14639   */\n      dup2\n        /* \"#utility.yul\":14509:14640   */\n      tag_134\n      jump\t// in\n    tag_291:\n        /* \"#utility.yul\":14501:14640   */\n      swap1\n      pop\n        /* \"#utility.yul\":14228:14647   */\n      swap2\n      swap1\n      pop\n      jump\t// out\n        /* \"#utility.yul\":14653:14826   */\n    tag_135:\n        /* \"#utility.yul\":14793:14818   */\n      0x796f7520617265206e6f7420746865206f776e65722021000000000000000000\n        /* \"#utility.yul\":14789:14790   */\n      0x00\n        /* \"#utility.yul\":14781:14787   */\n      dup3\n        /* \"#utility.yul\":14777:14791   */\n      add\n        /* \"#utility.yul\":14770:14819   */\n      mstore\n        /* \"#utility.yul\":14653:14826   */\n      pop\n      jump\t// out\n        /* \"#utility.yul\":14832:15198   */\n    tag_136:\n        /* \"#utility.yul\":14974:14977   */\n      0x00\n        /* \"#utility.yul\":14995:15062   */\n      tag_294\n        /* \"#utility.yul\":15059:15061   */\n      0x17\n        /* \"#utility.yul\":15054:15057   */\n      dup4\n        /* \"#utility.yul\":14995:15062   */\n      tag_104\n      jump\t// in\n    tag_294:\n        /* \"#utility.yul\":14988:15062   */\n      swap2\n      pop\n        /* \"#utility.yul\":15071:15164   */\n      tag_295\n        /* \"#utility.yul\":15160:15163   */\n      dup3\n        /* \"#utility.yul\":15071:15164   */\n      tag_135\n      jump\t// in\n    tag_295:\n        /* \"#utility.yul\":15189:15191   */\n      0x20\n        /* \"#utility.yul\":15184:15187   */\n      dup3\n        /* \"#utility.yul\":15180:15192   */\n      add\n        /* \"#utility.yul\":15173:15192   */\n      swap1\n      pop\n        /* \"#utility.yul\":14832:15198   */\n      swap2\n      swap1\n      pop\n      jump\t// out\n        /* \"#utility.yul\":15204:15623   */\n    tag_81:\n        /* \"#utility.yul\":15370:15374   */\n      0x00\n        /* \"#utility.yul\":15408:15410   */\n      0x20\n        /* \"#utility.yul\":15397:15406   */\n      dup3\n        /* \"#utility.yul\":15393:15411   */\n      add\n        /* \"#utility.yul\":15385:15411   */\n      swap1\n      pop\n        /* \"#utility.yul\":15457:15466   */\n      dup2\n        /* \"#utility.yul\":15451:15455   */\n      dup2\n        /* \"#utility.yul\":15447:15467   */\n      sub\n        /* \"#utility.yul\":15443:15444   */\n      0x00\n        /* \"#utility.yul\":15432:15441   */\n      dup4\n        /* \"#utility.yul\":15428:15445   */\n      add\n        /* \"#utility.yul\":15421:15468   */\n      mstore\n        /* \"#utility.yul\":15485:15616   */\n      tag_297\n        /* \"#utility.yul\":15611:15615   */\n      dup2\n        /* \"#utility.yul\":15485:15616   */\n      tag_136\n      jump\t// in\n    tag_297:\n        /* \"#utility.yul\":15477:15616   */\n      swap1\n      pop\n        /* \"#utility.yul\":15204:15623   */\n      swap2\n      swap1\n      pop\n      jump\t// out\n        /* \"#utility.yul\":15629:15794   */\n    tag_137:\n        /* \"#utility.yul\":15769:15786   */\n      0x5477656574206973206c6f6e6720210000000000000000000000000000000000\n        /* \"#utility.yul\":15765:15766   */\n      0x00\n        /* \"#utility.yul\":15757:15763   */\n      dup3\n        /* \"#utility.yul\":15753:15767   */\n      add\n        /* \"#utility.yul\":15746:15787   */\n      mstore\n        /* \"#utility.yul\":15629:15794   */\n      pop\n      jump\t// out\n        /* \"#utility.yul\":15800:16166   */\n    tag_138:\n        /* \"#utility.yul\":15942:15945   */\n      0x00\n        /* \"#utility.yul\":15963:16030   */\n      tag_300\n        /* \"#utility.yul\":16027:16029   */\n      0x0f\n        /* \"#utility.yul\":16022:16025   */\n      dup4\n        /* \"#utility.yul\":15963:16030   */\n      tag_104\n      jump\t// in\n    tag_300:\n        /* \"#utility.yul\":15956:16030   */\n      swap2\n      pop\n        /* \"#utility.yul\":16039:16132   */\n      tag_301\n        /* \"#utility.yul\":16128:16131   */\n      dup3\n        /* \"#utility.yul\":16039:16132   */\n      tag_137\n      jump\t// in\n    tag_301:\n        /* \"#utility.yul\":16157:16159   */\n      0x20\n        /* \"#utility.yul\":16152:16155   */\n      dup3\n        /* \"#utility.yul\":16148:16160   */\n      add\n        /* \"#utility.yul\":16141:16160   */\n      swap1\n      pop\n        /* \"#utility.yul\":15800:16166   */\n      swap2\n      swap1\n      pop\n      jump\t// out\n        /* \"#utility.yul\":16172:16591   */\n    tag_85:\n        /* \"#utility.yul\":16338:16342   */\n      0x00\n        /* \"#utility.yul\":16376:16378   */\n      0x20\n        /* \"#utility.yul\":16365:16374   */\n      dup3\n        /* \"#utility.yul\":16361:16379   */\n      add\n        /* \"#utility.yul\":16353:16379   */\n      swap1\n      pop\n        /* \"#utility.yul\":16425:16434   */\n      dup2\n        /* \"#utility.yul\":16419:16423   */\n      dup2\n        /* \"#utility.yul\":16415:16435   */\n      sub\n        /* \"#utility.yul\":16411:16412   */\n      0x00\n        /* \"#utility.yul\":16400:16409   */\n      dup4\n        /* \"#utility.yul\":16396:16413   */\n      add\n        /* \"#utility.yul\":16389:16436   */\n      mstore\n        /* \"#utility.yul\":16453:16584   */\n      tag_303\n        /* \"#utility.yul\":16579:16583   */\n      dup2\n        /* \"#utility.yul\":16453:16584   */\n      tag_138\n      jump\t// in\n    tag_303:\n        /* \"#utility.yul\":16445:16584   */\n      swap1\n      pop\n        /* \"#utility.yul\":16172:16591   */\n      swap2\n      swap1\n      pop\n      jump\t// out\n        /* \"#utility.yul\":16597:16766   */\n    tag_139:\n        /* \"#utility.yul\":16737:16758   */\n      0x547765657420697320736f20736d616c6c202100000000000000000000000000\n        /* \"#utility.yul\":16733:16734   */\n      0x00\n        /* \"#utility.yul\":16725:16731   */\n      dup3\n        /* \"#utility.yul\":16721:16735   */\n      add\n        /* \"#utility.yul\":16714:16759   */\n      mstore\n        /* \"#utility.yul\":16597:16766   */\n      pop\n      jump\t// out\n        /* \"#utility.yul\":16772:17138   */\n    tag_140:\n        /* \"#utility.yul\":16914:16917   */\n      0x00\n        /* \"#utility.yul\":16935:17002   */\n      tag_306\n        /* \"#utility.yul\":16999:17001   */\n      0x13\n        /* \"#utility.yul\":16994:16997   */\n      dup4\n        /* \"#utility.yul\":16935:17002   */\n      tag_104\n      jump\t// in\n    tag_306:\n        /* \"#utility.yul\":16928:17002   */\n      swap2\n      pop\n        /* \"#utility.yul\":17011:17104   */\n      tag_307\n        /* \"#utility.yul\":17100:17103   */\n      dup3\n        /* \"#utility.yul\":17011:17104   */\n      tag_139\n      jump\t// in\n    tag_307:\n        /* \"#utility.yul\":17129:17131   */\n      0x20\n        /* \"#utility.yul\":17124:17127   */\n      dup3\n        /* \"#utility.yul\":17120:17132   */\n      add\n        /* \"#utility.yul\":17113:17132   */\n      swap1\n      pop\n        /* \"#utility.yul\":16772:17138   */\n      swap2\n      swap1\n      pop\n      jump\t// out\n        /* \"#utility.yul\":17144:17563   */\n    tag_88:\n        /* \"#utility.yul\":17310:17314   */\n      0x00\n        /* \"#utility.yul\":17348:17350   */\n      0x20\n        /* \"#utility.yul\":17337:17346   */\n      dup3\n        /* \"#utility.yul\":17333:17351   */\n      add\n        /* \"#utility.yul\":17325:17351   */\n      swap1\n      pop\n        /* \"#utility.yul\":17397:17406   */\n      dup2\n        /* \"#utility.yul\":17391:17395   */\n      dup2\n        /* \"#utility.yul\":17387:17407   */\n      sub\n        /* \"#utility.yul\":17383:17384   */\n      0x00\n        /* \"#utility.yul\":17372:17381   */\n      dup4\n        /* \"#utility.yul\":17368:17385   */\n      add\n        /* \"#utility.yul\":17361:17408   */\n      mstore\n        /* \"#utility.yul\":17425:17556   */\n      tag_309\n        /* \"#utility.yul\":17551:17555   */\n      dup2\n        /* \"#utility.yul\":17425:17556   */\n      tag_140\n      jump\t// in\n    tag_309:\n        /* \"#utility.yul\":17417:17556   */\n      swap1\n      pop\n        /* \"#utility.yul\":17144:17563   */\n      swap2\n      swap1\n      pop\n      jump\t// out\n        /* \"#utility.yul\":17569:17710   */\n    tag_141:\n        /* \"#utility.yul\":17618:17622   */\n      0x00\n        /* \"#utility.yul\":17641:17644   */\n      dup2\n        /* \"#utility.yul\":17633:17644   */\n      swap1\n      pop\n        /* \"#utility.yul\":17664:17667   */\n      dup2\n        /* \"#utility.yul\":17661:17662   */\n      0x00\n        /* \"#utility.yul\":17654:17668   */\n      mstore\n        /* \"#utility.yul\":17698:17702   */\n      0x20\n        /* \"#utility.yul\":17695:17696   */\n      0x00\n        /* \"#utility.yul\":17685:17703   */\n      keccak256\n        /* \"#utility.yul\":17677:17703   */\n      swap1\n      pop\n        /* \"#utility.yul\":17569:17710   */\n      swap2\n      swap1\n      pop\n      jump\t// out\n        /* \"#utility.yul\":17716:17809   */\n    tag_142:\n        /* \"#utility.yul\":17753:17759   */\n      0x00\n        /* \"#utility.yul\":17800:17802   */\n      0x20\n        /* \"#utility.yul\":17795:17797   */\n      0x1f\n        /* \"#utility.yul\":17788:17793   */\n      dup4\n        /* \"#utility.yul\":17784:17798   */\n      add\n        /* \"#utility.yul\":17780:17803   */\n      div\n        /* \"#utility.yul\":17770:17803   */\n      swap1\n      pop\n        /* \"#utility.yul\":17716:17809   */\n      swap2\n      swap1\n      pop\n      jump\t// out\n        /* \"#utility.yul\":17815:17922   */\n    tag_143:\n        /* \"#utility.yul\":17859:17867   */\n      0x00\n        /* \"#utility.yul\":17909:17914   */\n      dup3\n        /* \"#utility.yul\":17903:17907   */\n      dup3\n        /* \"#utility.yul\":17899:17915   */\n      shl\n        /* \"#utility.yul\":17878:17915   */\n      swap1\n      pop\n        /* \"#utility.yul\":17815:17922   */\n      swap3\n      swap2\n      pop\n      pop\n      jump\t// out\n        /* \"#utility.yul\":17928:18321   */\n    tag_144:\n        /* \"#utility.yul\":17997:18003   */\n      0x00\n        /* \"#utility.yul\":18047:18048   */\n      0x08\n        /* \"#utility.yul\":18035:18045   */\n      dup4\n        /* \"#utility.yul\":18031:18049   */\n      mul\n        /* \"#utility.yul\":18070:18167   */\n      tag_314\n        /* \"#utility.yul\":18100:18166   */\n      0xffffffffffffffffffffffffffffffffffffffffffffffffffffffffffffffff\n        /* \"#utility.yul\":18089:18098   */\n      dup3\n        /* \"#utility.yul\":18070:18167   */\n      tag_143\n      jump\t// in\n    tag_314:\n        /* \"#utility.yul\":18188:18227   */\n      tag_315\n        /* \"#utility.yul\":18218:18226   */\n      dup7\n        /* \"#utility.yul\":18207:18216   */\n      dup4\n        /* \"#utility.yul\":18188:18227   */\n      tag_143\n      jump\t// in\n    tag_315:\n        /* \"#utility.yul\":18176:18227   */\n      swap6\n      pop\n        /* \"#utility.yul\":18260:18264   */\n      dup1\n        /* \"#utility.yul\":18256:18265   */\n      not\n        /* \"#utility.yul\":18249:18254   */\n      dup5\n        /* \"#utility.yul\":18245:18266   */\n      and\n        /* \"#utility.yul\":18236:18266   */\n      swap4\n      pop\n        /* \"#utility.yul\":18309:18313   */\n      dup1\n        /* \"#utility.yul\":18299:18307   */\n      dup7\n        /* \"#utility.yul\":18295:18314   */\n      and\n        /* \"#utility.yul\":18288:18293   */\n      dup5\n        /* \"#utility.yul\":18285:18315   */\n      or\n        /* \"#utility.yul\":18275:18315   */\n      swap3\n      pop\n        /* \"#utility.yul\":18004:18321   */\n      pop\n      pop\n        /* \"#utility.yul\":17928:18321   */\n      swap4\n      swap3\n      pop\n      pop\n      pop\n      jump\t// out\n        /* \"#utility.yul\":18327:18387   */\n    tag_145:\n        /* \"#utility.yul\":18355:18358   */\n      0x00\n        /* \"#utility.yul\":18376:18381   */\n      dup2\n        /* \"#utility.yul\":18369:18381   */\n      swap1\n      pop\n        /* \"#utility.yul\":18327:18387   */\n      swap2\n      swap1\n      pop\n      jump\t// out\n        /* \"#utility.yul\":18393:18535   */\n    tag_146:\n        /* \"#utility.yul\":18443:18452   */\n      0x00\n        /* \"#utility.yul\":18476:18529   */\n      tag_318\n        /* \"#utility.yul\":18494:18528   */\n      tag_319\n        /* \"#utility.yul\":18503:18527   */\n      tag_320\n        /* \"#utility.yul\":18521:18526   */\n      dup5\n        /* \"#utility.yul\":18503:18527   */\n      tag_99\n      jump\t// in\n    tag_320:\n        /* \"#utility.yul\":18494:18528   */\n      tag_145\n      jump\t// in\n    tag_319:\n        /* \"#utility.yul\":18476:18529   */\n      tag_99\n      jump\t// in\n    tag_318:\n        /* \"#utility.yul\":18463:18529   */\n      swap1\n      pop\n        /* \"#utility.yul\":18393:18535   */\n      swap2\n      swap1\n      pop\n      jump\t// out\n        /* \"#utility.yul\":18541:18616   */\n    tag_147:\n        /* \"#utility.yul\":18584:18587   */\n      0x00\n        /* \"#utility.yul\":18605:18610   */\n      dup2\n        /* \"#utility.yul\":18598:18610   */\n      swap1\n      pop\n        /* \"#utility.yul\":18541:18616   */\n      swap2\n      swap1\n      pop\n      jump\t// out\n        /* \"#utility.yul\":18622:18891   */\n    tag_148:\n        /* \"#utility.yul\":18732:18771   */\n      tag_323\n        /* \"#utility.yul\":18763:18770   */\n      dup4\n        /* \"#utility.yul\":18732:18771   */\n      tag_146\n      jump\t// in\n    tag_323:\n        /* \"#utility.yul\":18793:18884   */\n      tag_324\n        /* \"#utility.yul\":18842:18883   */\n      tag_325\n        /* \"#utility.yul\":18866:18882   */\n      dup3\n        /* \"#utility.yul\":18842:18883   */\n      tag_147\n      jump\t// in\n    tag_325:\n        /* \"#utility.yul\":18834:18840   */\n      dup5\n        /* \"#utility.yul\":18827:18831   */\n      dup5\n        /* \"#utility.yul\":18821:18832   */\n      sload\n        /* \"#utility.yul\":18793:18884   */\n      tag_144\n      jump\t// in\n    tag_324:\n        /* \"#utility.yul\":18787:18791   */\n      dup3\n        /* \"#utility.yul\":18780:18885   */\n      sstore\n        /* \"#utility.yul\":18698:18891   */\n      pop\n        /* \"#utility.yul\":18622:18891   */\n      pop\n      pop\n      pop\n      jump\t// out\n        /* \"#utility.yul\":18897:18970   */\n    tag_149:\n        /* \"#utility.yul\":18942:18945   */\n      0x00\n        /* \"#utility.yul\":18897:18970   */\n      swap1\n      jump\t// out\n        /* \"#utility.yul\":18976:19165   */\n    tag_150:\n        /* \"#utility.yul\":19053:19085   */\n      tag_328\n      tag_149\n      jump\t// in\n    tag_328:\n        /* \"#utility.yul\":19094:19159   */\n      tag_329\n        /* \"#utility.yul\":19152:19158   */\n      dup2\n        /* \"#utility.yul\":19144:19150   */\n      dup5\n        /* \"#utility.yul\":19138:19142   */\n      dup5\n        /* \"#utility.yul\":19094:19159   */\n      tag_148\n      jump\t// in\n    tag_329:\n        /* \"#utility.yul\":19029:19165   */\n      pop\n        /* \"#utility.yul\":18976:19165   */\n      pop\n      pop\n      jump\t// out\n        /* \"#utility.yul\":19171:19357   */\n    tag_151:\n        /* \"#utility.yul\":19231:19351   */\n    tag_331:\n        /* \"#utility.yul\":19248:19251   */\n      dup2\n        /* \"#utility.yul\":19241:19246   */\n      dup2\n        /* \"#utility.yul\":19238:19252   */\n      lt\n        /* \"#utility.yul\":19231:19351   */\n      iszero\n      tag_333\n      jumpi\n        /* \"#utility.yul\":19302:19341   */\n      tag_334\n        /* \"#utility.yul\":19339:19340   */\n      0x00\n        /* \"#utility.yul\":19332:19337   */\n      dup3\n        /* \"#utility.yul\":19302:19341   */\n      tag_150\n      jump\t// in\n    tag_334:\n        /* \"#utility.yul\":19275:19276   */\n      0x01\n        /* \"#utility.yul\":19268:19273   */\n      dup2\n        /* \"#utility.yul\":19264:19277   */\n      add\n        /* \"#utility.yul\":19255:19277   */\n      swap1\n      pop\n        /* \"#utility.yul\":19231:19351   */\n      jump(tag_331)\n    tag_333:\n        /* \"#utility.yul\":19171:19357   */\n      pop\n      pop\n      jump\t// out\n        /* \"#utility.yul\":19363:19906   */\n    tag_152:\n        /* \"#utility.yul\":19464:19466   */\n      0x1f\n        /* \"#utility.yul\":19459:19462   */\n      dup3\n        /* \"#utility.yul\":19456:19467   */\n      gt\n        /* \"#utility.yul\":19453:19899   */\n      iszero\n      tag_336\n      jumpi\n        /* \"#utility.yul\":19498:19536   */\n      tag_337\n        /* \"#utility.yul\":19530:19535   */\n      dup2\n        /* \"#utility.yul\":19498:19536   */\n      tag_141\n      jump\t// in\n    tag_337:\n        /* \"#utility.yul\":19582:19611   */\n      tag_338\n        /* \"#utility.yul\":19600:19610   */\n      dup5\n        /* \"#utility.yul\":19582:19611   */\n      tag_142\n      jump\t// in\n    tag_338:\n        /* \"#utility.yul\":19572:19580   */\n      dup2\n        /* \"#utility.yul\":19568:19612   */\n      add\n        /* \"#utility.yul\":19765:19767   */\n      0x20\n        /* \"#utility.yul\":19753:19763   */\n      dup6\n        /* \"#utility.yul\":19750:19768   */\n      lt\n        /* \"#utility.yul\":19747:19796   */\n      iszero\n      tag_339\n      jumpi\n        /* \"#utility.yul\":19786:19794   */\n      dup2\n        /* \"#utility.yul\":19771:19794   */\n      swap1\n      pop\n        /* \"#utility.yul\":19747:19796   */\n    tag_339:\n        /* \"#utility.yul\":19809:19889   */\n      tag_340\n        /* \"#utility.yul\":19865:19887   */\n      tag_341\n        /* \"#utility.yul\":19883:19886   */\n      dup6\n        /* \"#utility.yul\":19865:19887   */\n      tag_142\n      jump\t// in\n    tag_341:\n        /* \"#utility.yul\":19855:19863   */\n      dup4\n        /* \"#utility.yul\":19851:19888   */\n      add\n        /* \"#utility.yul\":19838:19849   */\n      dup3\n        /* \"#utility.yul\":19809:19889   */\n      tag_151\n      jump\t// in\n    tag_340:\n        /* \"#utility.yul\":19468:19899   */\n      pop\n      pop\n        /* \"#utility.yul\":19453:19899   */\n    tag_336:\n        /* \"#utility.yul\":19363:19906   */\n      pop\n      pop\n      pop\n      jump\t// out\n        /* \"#utility.yul\":19912:20029   */\n    tag_153:\n        /* \"#utility.yul\":19966:19974   */\n      0x00\n        /* \"#utility.yul\":20016:20021   */\n      dup3\n        /* \"#utility.yul\":20010:20014   */\n      dup3\n        /* \"#utility.yul\":20006:20022   */\n      shr\n        /* \"#utility.yul\":19985:20022   */\n      swap1\n      pop\n        /* \"#utility.yul\":19912:20029   */\n      swap3\n      swap2\n      pop\n      pop\n      jump\t// out\n        /* \"#utility.yul\":20035:20204   */\n    tag_154:\n        /* \"#utility.yul\":20079:20085   */\n      0x00\n        /* \"#utility.yul\":20112:20163   */\n      tag_344\n        /* \"#utility.yul\":20160:20161   */\n      0x00\n        /* \"#utility.yul\":20156:20162   */\n      not\n        /* \"#utility.yul\":20148:20153   */\n      dup5\n        /* \"#utility.yul\":20145:20146   */\n      0x08\n        /* \"#utility.yul\":20141:20154   */\n      mul\n        /* \"#utility.yul\":20112:20163   */\n      tag_153\n      jump\t// in\n    tag_344:\n        /* \"#utility.yul\":20108:20164   */\n      not\n        /* \"#utility.yul\":20193:20197   */\n      dup1\n        /* \"#utility.yul\":20187:20191   */\n      dup4\n        /* \"#utility.yul\":20183:20198   */\n      and\n        /* \"#utility.yul\":20173:20198   */\n      swap2\n      pop\n        /* \"#utility.yul\":20086:20204   */\n      pop\n        /* \"#utility.yul\":20035:20204   */\n      swap3\n      swap2\n      pop\n      pop\n      jump\t// out\n        /* \"#utility.yul\":20209:20504   */\n    tag_155:\n        /* \"#utility.yul\":20285:20289   */\n      0x00\n        /* \"#utility.yul\":20431:20460   */\n      tag_346\n        /* \"#utility.yul\":20456:20459   */\n      dup4\n        /* \"#utility.yul\":20450:20454   */\n      dup4\n        /* \"#utility.yul\":20431:20460   */\n      tag_154\n      jump\t// in\n    tag_346:\n        /* \"#utility.yul\":20423:20460   */\n      swap2\n      pop\n        /* \"#utility.yul\":20493:20496   */\n      dup3\n        /* \"#utility.yul\":20490:20491   */\n      0x02\n        /* \"#utility.yul\":20486:20497   */\n      mul\n        /* \"#utility.yul\":20480:20484   */\n      dup3\n        /* \"#utility.yul\":20477:20498   */\n      or\n        /* \"#utility.yul\":20469:20498   */\n      swap1\n      pop\n        /* \"#utility.yul\":20209:20504   */\n      swap3\n      swap2\n      pop\n      pop\n      jump\t// out\n        /* \"#utility.yul\":20509:21904   */\n    tag_91:\n        /* \"#utility.yul\":20626:20663   */\n      tag_348\n        /* \"#utility.yul\":20659:20662   */\n      dup3\n        /* \"#utility.yul\":20626:20663   */\n      tag_103\n      jump\t// in\n    tag_348:\n        /* \"#utility.yul\":20728:20746   */\n      0xffffffffffffffff\n        /* \"#utility.yul\":20720:20726   */\n      dup2\n        /* \"#utility.yul\":20717:20747   */\n      gt\n        /* \"#utility.yul\":20714:20770   */\n      iszero\n      tag_349\n      jumpi\n        /* \"#utility.yul\":20750:20768   */\n      tag_350\n      tag_125\n      jump\t// in\n    tag_350:\n        /* \"#utility.yul\":20714:20770   */\n    tag_349:\n        /* \"#utility.yul\":20794:20832   */\n      tag_351\n        /* \"#utility.yul\":20826:20830   */\n      dup3\n        /* \"#utility.yul\":20820:20831   */\n      sload\n        /* \"#utility.yul\":20794:20832   */\n      tag_48\n      jump\t// in\n    tag_351:\n        /* \"#utility.yul\":20879:20946   */\n      tag_352\n        /* \"#utility.yul\":20939:20945   */\n      dup3\n        /* \"#utility.yul\":20931:20937   */\n      dup3\n        /* \"#utility.yul\":20925:20929   */\n      dup6\n        /* \"#utility.yul\":20879:20946   */\n      tag_152\n      jump\t// in\n    tag_352:\n        /* \"#utility.yul\":20973:20974   */\n      0x00\n        /* \"#utility.yul\":20997:21001   */\n      0x20\n        /* \"#utility.yul\":20984:21001   */\n      swap1\n      pop\n        /* \"#utility.yul\":21029:21031   */\n      0x1f\n        /* \"#utility.yul\":21021:21027   */\n      dup4\n        /* \"#utility.yul\":21018:21032   */\n      gt\n        /* \"#utility.yul\":21046:21047   */\n      0x01\n        /* \"#utility.yul\":21041:21659   */\n      dup2\n      eq\n      tag_354\n      jumpi\n        /* \"#utility.yul\":21703:21704   */\n      0x00\n        /* \"#utility.yul\":21720:21726   */\n      dup5\n        /* \"#utility.yul\":21717:21794   */\n      iszero\n      tag_355\n      jumpi\n        /* \"#utility.yul\":21769:21778   */\n      dup3\n        /* \"#utility.yul\":21764:21767   */\n      dup8\n        /* \"#utility.yul\":21760:21779   */\n      add\n        /* \"#utility.yul\":21754:21780   */\n      mload\n        /* \"#utility.yul\":21745:21780   */\n      swap1\n      pop\n        /* \"#utility.yul\":21717:21794   */\n    tag_355:\n        /* \"#utility.yul\":21820:21887   */\n      tag_356\n        /* \"#utility.yul\":21880:21886   */\n      dup6\n        /* \"#utility.yul\":21873:21878   */\n      dup3\n        /* \"#utility.yul\":21820:21887   */\n      tag_155\n      jump\t// in\n    tag_356:\n        /* \"#utility.yul\":21814:21818   */\n      dup7\n        /* \"#utility.yul\":21807:21888   */\n      sstore\n        /* \"#utility.yul\":21676:21898   */\n      pop\n        /* \"#utility.yul\":21011:21898   */\n      jump(tag_353)\n        /* \"#utility.yul\":21041:21659   */\n    tag_354:\n        /* \"#utility.yul\":21093:21097   */\n      0x1f\n        /* \"#utility.yul\":21089:21098   */\n      not\n        /* \"#utility.yul\":21081:21087   */\n      dup5\n        /* \"#utility.yul\":21077:21099   */\n      and\n        /* \"#utility.yul\":21127:21164   */\n      tag_357\n        /* \"#utility.yul\":21159:21163   */\n      dup7\n        /* \"#utility.yul\":21127:21164   */\n      tag_141\n      jump\t// in\n    tag_357:\n        /* \"#utility.yul\":21186:21187   */\n      0x00\n        /* \"#utility.yul\":21200:21408   */\n    tag_358:\n        /* \"#utility.yul\":21214:21221   */\n      dup3\n        /* \"#utility.yul\":21211:21212   */\n      dup2\n        /* \"#utility.yul\":21208:21222   */\n      lt\n        /* \"#utility.yul\":21200:21408   */\n      iszero\n      tag_360\n      jumpi\n        /* \"#utility.yul\":21293:21302   */\n      dup5\n        /* \"#utility.yul\":21288:21291   */\n      dup10\n        /* \"#utility.yul\":21284:21303   */\n      add\n        /* \"#utility.yul\":21278:21304   */\n      mload\n        /* \"#utility.yul\":21270:21276   */\n      dup3\n        /* \"#utility.yul\":21263:21305   */\n      sstore\n        /* \"#utility.yul\":21344:21345   */\n      0x01\n        /* \"#utility.yul\":21336:21342   */\n      dup3\n        /* \"#utility.yul\":21332:21346   */\n      add\n        /* \"#utility.yul\":21322:21346   */\n      swap2\n      pop\n        /* \"#utility.yul\":21391:21393   */\n      0x20\n        /* \"#utility.yul\":21380:21389   */\n      dup6\n        /* \"#utility.yul\":21376:21394   */\n      add\n        /* \"#utility.yul\":21363:21394   */\n      swap5\n      pop\n        /* \"#utility.yul\":21237:21241   */\n      0x20\n        /* \"#utility.yul\":21234:21235   */\n      dup2\n        /* \"#utility.yul\":21230:21242   */\n      add\n        /* \"#utility.yul\":21225:21242   */\n      swap1\n      pop\n        /* \"#utility.yul\":21200:21408   */\n      jump(tag_358)\n    tag_360:\n        /* \"#utility.yul\":21436:21442   */\n      dup7\n        /* \"#utility.yul\":21427:21434   */\n      dup4\n        /* \"#utility.yul\":21424:21443   */\n      lt\n        /* \"#utility.yul\":21421:21600   */\n      iszero\n      tag_361\n      jumpi\n        /* \"#utility.yul\":21494:21503   */\n      dup5\n        /* \"#utility.yul\":21489:21492   */\n      dup10\n        /* \"#utility.yul\":21485:21504   */\n      add\n        /* \"#utility.yul\":21479:21505   */\n      mload\n        /* \"#utility.yul\":21537:21585   */\n      tag_362\n        /* \"#utility.yul\":21579:21583   */\n      0x1f\n        /* \"#utility.yul\":21571:21577   */\n      dup10\n        /* \"#utility.yul\":21567:21584   */\n      and\n        /* \"#utility.yul\":21556:21565   */\n      dup3\n        /* \"#utility.yul\":21537:21585   */\n      tag_154\n      jump\t// in\n    tag_362:\n        /* \"#utility.yul\":21529:21535   */\n      dup4\n        /* \"#utility.yul\":21522:21586   */\n      sstore\n        /* \"#utility.yul\":21444:21600   */\n      pop\n        /* \"#utility.yul\":21421:21600   */\n    tag_361:\n        /* \"#utility.yul\":21646:21647   */\n      0x01\n        /* \"#utility.yul\":21642:21643   */\n      0x02\n        /* \"#utility.yul\":21634:21640   */\n      dup9\n        /* \"#utility.yul\":21630:21644   */\n      mul\n        /* \"#utility.yul\":21626:21648   */\n      add\n        /* \"#utility.yul\":21620:21624   */\n      dup9\n        /* \"#utility.yul\":21613:21649   */\n      sstore\n        /* \"#utility.yul\":21048:21659   */\n      pop\n      pop\n      pop\n        /* \"#utility.yul\":21011:21898   */\n    tag_353:\n      pop\n        /* \"#utility.yul\":20601:21904   */\n      pop\n      pop\n      pop\n        /* \"#utility.yul\":20509:21904   */\n      pop\n      pop\n      jump\t// out\n\n    auxdata: 0xa26469706673582212201183fd12cd5abef41c8bb8311774cede1dac8ceb500c497c637995d794f543fd64736f6c634300081a0033\n}\n",
				"bytecode": {
					"linkReferences": {},
					"object": "6080604052348015600e575f80fd5b50335f806101000a81548173ffffffffffffffffffffffffffffffffffffffff021916908373ffffffffffffffffffffffffffffffffffffffff1602179055505f8060146101000a81548160ff0219169083151502179055506103e860015f805f9054906101000a900473ffffffffffffffffffffffffffffffffffffffff1673ffffffffffffffffffffffffffffffffffffffff1673ffffffffffffffffffffffffffffffffffffffff1681526020019081526020015f208190555061132d806100d85f395ff3fe608060405234801561000f575f80fd5b506004361061007b575f3560e01c80635c975abb116100595780635c975abb146101125780637c9cd2bc146101305780638da5cb5b1461014c578063e3d670d71461016a5761007b565b806305a1b4a91461007f57806312e7ee1c146100b25780632cf02026146100e2575b5f80fd5b61009960048036038101906100949190610927565b61019a565b6040516100a994939291906109f3565b60405180910390f35b6100cc60048036038101906100c79190610a3d565b610285565b6040516100d99190610be9565b60405180910390f35b6100fc60048036038101906100f79190610927565b610416565b6040516101099190610c69565b60405180910390f35b61011a610584565b6040516101279190610ca3565b60405180910390f35b61014a60048036038101906101459190610de8565b610596565b005b610154610816565b6040516101619190610e2f565b60405180910390f35b610184600480360381019061017f9190610a3d565b610839565b6040516101919190610e48565b60405180910390f35b6002602052815f5260405f2081815481106101b3575f80fd5b905f5260205f2090600402015f9150915050805f015f9054906101000a900473ffffffffffffffffffffffffffffffffffffffff16908060010180546101f890610e8e565b80601f016020809104026020016040519081016040528092919081815260200182805461022490610e8e565b801561026f5780601f106102465761010080835404028352916020019161026f565b820191905f5260205f20905b81548152906001019060200180831161025257829003601f168201915b5050505050908060020154908060030154905084565b606060025f8373ffffffffffffffffffffffffffffffffffffffff1673ffffffffffffffffffffffffffffffffffffffff1681526020019081526020015f20805480602002602001604051908101604052809291908181526020015f905b8282101561040b578382905f5260205f2090600402016040518060800160405290815f82015f9054906101000a900473ffffffffffffffffffffffffffffffffffffffff1673ffffffffffffffffffffffffffffffffffffffff1673ffffffffffffffffffffffffffffffffffffffff16815260200160018201805461036890610e8e565b80601f016020809104026020016040519081016040528092919081815260200182805461039490610e8e565b80156103df5780601f106103b6576101008083540402835291602001916103df565b820191905f5260205f20905b8154815290600101906020018083116103c257829003601f168201915b5050505050815260200160028201548152602001600382015481525050815260200190600101906102e3565b505050509050919050565b61041e61084e565b60025f8473ffffffffffffffffffffffffffffffffffffffff1673ffffffffffffffffffffffffffffffffffffffff1681526020019081526020015f20828154811061046d5761046c610ebe565b5b905f5260205f2090600402016040518060800160405290815f82015f9054906101000a900473ffffffffffffffffffffffffffffffffffffffff1673ffffffffffffffffffffffffffffffffffffffff1673ffffffffffffffffffffffffffffffffffffffff1681526020016001820180546104e890610e8e565b80601f016020809104026020016040519081016040528092919081815260200182805461051490610e8e565b801561055f5780601f106105365761010080835404028352916020019161055f565b820191905f5260205f20905b81548152906001019060200180831161054257829003601f168201915b5050505050815260200160028201548152602001600382015481525050905092915050565b5f60149054906101000a900460ff1681565b5f60149054906101000a900460ff16156105e5576040517f08c379a00000000000000000000000000000000000000000000000000000000081526004016105dc90610f35565b60405180910390fd5b5f8054906101000a900473ffffffffffffffffffffffffffffffffffffffff1673ffffffffffffffffffffffffffffffffffffffff163373ffffffffffffffffffffffffffffffffffffffff1614610672576040517f08c379a000000000000000000000000000000000000000000000000000000000815260040161066990610f9d565b60405180910390fd5b60c861ffff16815111156106bb576040517f08c379a00000000000000000000000000000000000000000000000000000000081526004016106b290611005565b60405180910390fd5b600a61ffff1681511015610704576040517f08c379a00000000000000000000000000000000000000000000000000000000081526004016106fb9061106d565b60405180910390fd5b5f60405180608001604052803373ffffffffffffffffffffffffffffffffffffffff1681526020018381526020014281526020015f815250905060025f3373ffffffffffffffffffffffffffffffffffffffff1673ffffffffffffffffffffffffffffffffffffffff1681526020019081526020015f2081908060018154018082558091505060019003905f5260205f2090600402015f909190919091505f820151815f015f6101000a81548173ffffffffffffffffffffffffffffffffffffffff021916908373ffffffffffffffffffffffffffffffffffffffff16021790555060208201518160010190816107fb9190611228565b50604082015181600201556060820151816003015550505050565b5f8054906101000a900473ffffffffffffffffffffffffffffffffffffffff1681565b6001602052805f5260405f205f915090505481565b60405180608001604052805f73ffffffffffffffffffffffffffffffffffffffff168152602001606081526020015f81526020015f81525090565b5f604051905090565b5f80fd5b5f80fd5b5f73ffffffffffffffffffffffffffffffffffffffff82169050919050565b5f6108c38261089a565b9050919050565b6108d3816108b9565b81146108dd575f80fd5b50565b5f813590506108ee816108ca565b92915050565b5f819050919050565b610906816108f4565b8114610910575f80fd5b50565b5f81359050610921816108fd565b92915050565b5f806040838503121561093d5761093c610892565b5b5f61094a858286016108e0565b925050602061095b85828601610913565b9150509250929050565b61096e816108b9565b82525050565b5f81519050919050565b5f82825260208201905092915050565b8281835e5f83830152505050565b5f601f19601f8301169050919050565b5f6109b682610974565b6109c0818561097e565b93506109d081856020860161098e565b6109d98161099c565b840191505092915050565b6109ed816108f4565b82525050565b5f608082019050610a065f830187610965565b8181036020830152610a1881866109ac565b9050610a2760408301856109e4565b610a3460608301846109e4565b95945050505050565b5f60208284031215610a5257610a51610892565b5b5f610a5f848285016108e0565b91505092915050565b5f81519050919050565b5f82825260208201905092915050565b5f819050602082019050919050565b610a9a816108b9565b82525050565b5f82825260208201905092915050565b5f610aba82610974565b610ac48185610aa0565b9350610ad481856020860161098e565b610add8161099c565b840191505092915050565b610af1816108f4565b82525050565b5f608083015f830151610b0c5f860182610a91565b5060208301518482036020860152610b248282610ab0565b9150506040830151610b396040860182610ae8565b506060830151610b4c6060860182610ae8565b508091505092915050565b5f610b628383610af7565b905092915050565b5f602082019050919050565b5f610b8082610a68565b610b8a8185610a72565b935083602082028501610b9c85610a82565b805f5b85811015610bd75784840389528151610bb88582610b57565b9450610bc383610b6a565b925060208a01995050600181019050610b9f565b50829750879550505050505092915050565b5f6020820190508181035f830152610c018184610b76565b905092915050565b5f608083015f830151610c1e5f860182610a91565b5060208301518482036020860152610c368282610ab0565b9150506040830151610c4b6040860182610ae8565b506060830151610c5e6060860182610ae8565b508091505092915050565b5f6020820190508181035f830152610c818184610c09565b905092915050565b5f8115159050919050565b610c9d81610c89565b82525050565b5f602082019050610cb65f830184610c94565b92915050565b5f80fd5b5f80fd5b7f4e487b71000000000000000000000000000000000000000000000000000000005f52604160045260245ffd5b610cfa8261099c565b810181811067ffffffffffffffff82111715610d1957610d18610cc4565b5b80604052505050565b5f610d2b610889565b9050610d378282610cf1565b919050565b5f67ffffffffffffffff821115610d5657610d55610cc4565b5b610d5f8261099c565b9050602081019050919050565b828183375f83830152505050565b5f610d8c610d8784610d3c565b610d22565b905082815260208101848484011115610da857610da7610cc0565b5b610db3848285610d6c565b509392505050565b5f82601f830112610dcf57610dce610cbc565b5b8135610ddf848260208601610d7a565b91505092915050565b5f60208284031215610dfd57610dfc610892565b5b5f82013567ffffffffffffffff811115610e1a57610e19610896565b5b610e2684828501610dbb565b91505092915050565b5f602082019050610e425f830184610965565b92915050565b5f602082019050610e5b5f8301846109e4565b92915050565b7f4e487b71000000000000000000000000000000000000000000000000000000005f52602260045260245ffd5b5f6002820490506001821680610ea557607f821691505b602082108103610eb857610eb7610e61565b5b50919050565b7f4e487b71000000000000000000000000000000000000000000000000000000005f52603260045260245ffd5b7f54686520636f6e747261637420697320696e41637469766521000000000000005f82015250565b5f610f1f60198361097e565b9150610f2a82610eeb565b602082019050919050565b5f6020820190508181035f830152610f4c81610f13565b9050919050565b7f796f7520617265206e6f7420746865206f776e657220210000000000000000005f82015250565b5f610f8760178361097e565b9150610f9282610f53565b602082019050919050565b5f6020820190508181035f830152610fb481610f7b565b9050919050565b7f5477656574206973206c6f6e67202100000000000000000000000000000000005f82015250565b5f610fef600f8361097e565b9150610ffa82610fbb565b602082019050919050565b5f6020820190508181035f83015261101c81610fe3565b9050919050565b7f547765657420697320736f20736d616c6c2021000000000000000000000000005f82015250565b5f61105760138361097e565b915061106282611023565b602082019050919050565b5f6020820190508181035f8301526110848161104b565b9050919050565b5f819050815f5260205f209050919050565b5f6020601f8301049050919050565b5f82821b905092915050565b5f600883026110e77fffffffffffffffffffffffffffffffffffffffffffffffffffffffffffffffff826110ac565b6110f186836110ac565b95508019841693508086168417925050509392505050565b5f819050919050565b5f61112c611127611122846108f4565b611109565b6108f4565b9050919050565b5f819050919050565b61114583611112565b61115961115182611133565b8484546110b8565b825550505050565b5f90565b61116d611161565b61117881848461113c565b505050565b5b8181101561119b576111905f82611165565b60018101905061117e565b5050565b601f8211156111e0576111b18161108b565b6111ba8461109d565b810160208510156111c9578190505b6111dd6111d58561109d565b83018261117d565b50505b505050565b5f82821c905092915050565b5f6112005f19846008026111e5565b1980831691505092915050565b5f61121883836111f1565b9150826002028217905092915050565b61123182610974565b67ffffffffffffffff81111561124a57611249610cc4565b5b6112548254610e8e565b61125f82828561119f565b5f60209050601f831160018114611290575f841561127e578287015190505b611288858261120d565b8655506112ef565b601f19841661129e8661108b565b5f5b828110156112c5578489015182556001820191506020850194506020810190506112a0565b868310156112e257848901516112de601f8916826111f1565b8355505b6001600288020188555050505b50505050505056fea26469706673582212201183fd12cd5abef41c8bb8311774cede1dac8ceb500c497c637995d794f543fd64736f6c634300081a0033",
					"opcodes": "PUSH1 0x80 PUSH1 0x40 MSTORE CALLVALUE DUP1 ISZERO PUSH1 0xE JUMPI PUSH0 DUP1 REVERT JUMPDEST POP CALLER PUSH0 DUP1 PUSH2 0x100 EXP DUP2 SLOAD DUP2 PUSH20 0xFFFFFFFFFFFFFFFFFFFFFFFFFFFFFFFFFFFFFFFF MUL NOT AND SWAP1 DUP4 PUSH20 0xFFFFFFFFFFFFFFFFFFFFFFFFFFFFFFFFFFFFFFFF AND MUL OR SWAP1 SSTORE POP PUSH0 DUP1 PUSH1 0x14 PUSH2 0x100 EXP DUP2 SLOAD DUP2 PUSH1 0xFF MUL NOT AND SWAP1 DUP4 ISZERO ISZERO MUL OR SWAP1 SSTORE POP PUSH2 0x3E8 PUSH1 0x1 PUSH0 DUP1 PUSH0 SWAP1 SLOAD SWAP1 PUSH2 0x100 EXP SWAP1 DIV PUSH20 0xFFFFFFFFFFFFFFFFFFFFFFFFFFFFFFFFFFFFFFFF AND PUSH20 0xFFFFFFFFFFFFFFFFFFFFFFFFFFFFFFFFFFFFFFFF AND PUSH20 0xFFFFFFFFFFFFFFFFFFFFFFFFFFFFFFFFFFFFFFFF AND DUP2 MSTORE PUSH1 0x20 ADD SWAP1 DUP2 MSTORE PUSH1 0x20 ADD PUSH0 KECCAK256 DUP2 SWAP1 SSTORE POP PUSH2 0x132D DUP1 PUSH2 0xD8 PUSH0 CODECOPY PUSH0 RETURN INVALID PUSH1 0x80 PUSH1 0x40 MSTORE CALLVALUE DUP1 ISZERO PUSH2 0xF JUMPI PUSH0 DUP1 REVERT JUMPDEST POP PUSH1 0x4 CALLDATASIZE LT PUSH2 0x7B JUMPI PUSH0 CALLDATALOAD PUSH1 0xE0 SHR DUP1 PUSH4 0x5C975ABB GT PUSH2 0x59 JUMPI DUP1 PUSH4 0x5C975ABB EQ PUSH2 0x112 JUMPI DUP1 PUSH4 0x7C9CD2BC EQ PUSH2 0x130 JUMPI DUP1 PUSH4 0x8DA5CB5B EQ PUSH2 0x14C JUMPI DUP1 PUSH4 0xE3D670D7 EQ PUSH2 0x16A JUMPI PUSH2 0x7B JUMP JUMPDEST DUP1 PUSH4 0x5A1B4A9 EQ PUSH2 0x7F JUMPI DUP1 PUSH4 0x12E7EE1C EQ PUSH2 0xB2 JUMPI DUP1 PUSH4 0x2CF02026 EQ PUSH2 0xE2 JUMPI JUMPDEST PUSH0 DUP1 REVERT JUMPDEST PUSH2 0x99 PUSH1 0x4 DUP1 CALLDATASIZE SUB DUP2 ADD SWAP1 PUSH2 0x94 SWAP2 SWAP1 PUSH2 0x927 JUMP JUMPDEST PUSH2 0x19A JUMP JUMPDEST PUSH1 0x40 MLOAD PUSH2 0xA9 SWAP5 SWAP4 SWAP3 SWAP2 SWAP1 PUSH2 0x9F3 JUMP JUMPDEST PUSH1 0x40 MLOAD DUP1 SWAP2 SUB SWAP1 RETURN JUMPDEST PUSH2 0xCC PUSH1 0x4 DUP1 CALLDATASIZE SUB DUP2 ADD SWAP1 PUSH2 0xC7 SWAP2 SWAP1 PUSH2 0xA3D JUMP JUMPDEST PUSH2 0x285 JUMP JUMPDEST PUSH1 0x40 MLOAD PUSH2 0xD9 SWAP2 SWAP1 PUSH2 0xBE9 JUMP JUMPDEST PUSH1 0x40 MLOAD DUP1 SWAP2 SUB SWAP1 RETURN JUMPDEST PUSH2 0xFC PUSH1 0x4 DUP1 CALLDATASIZE SUB DUP2 ADD SWAP1 PUSH2 0xF7 SWAP2 SWAP1 PUSH2 0x927 JUMP JUMPDEST PUSH2 0x416 JUMP JUMPDEST PUSH1 0x40 MLOAD PUSH2 0x109 SWAP2 SWAP1 PUSH2 0xC69 JUMP JUMPDEST PUSH1 0x40 MLOAD DUP1 SWAP2 SUB SWAP1 RETURN JUMPDEST PUSH2 0x11A PUSH2 0x584 JUMP JUMPDEST PUSH1 0x40 MLOAD PUSH2 0x127 SWAP2 SWAP1 PUSH2 0xCA3 JUMP JUMPDEST PUSH1 0x40 MLOAD DUP1 SWAP2 SUB SWAP1 RETURN JUMPDEST PUSH2 0x14A PUSH1 0x4 DUP1 CALLDATASIZE SUB DUP2 ADD SWAP1 PUSH2 0x145 SWAP2 SWAP1 PUSH2 0xDE8 JUMP JUMPDEST PUSH2 0x596 JUMP JUMPDEST STOP JUMPDEST PUSH2 0x154 PUSH2 0x816 JUMP JUMPDEST PUSH1 0x40 MLOAD PUSH2 0x161 SWAP2 SWAP1 PUSH2 0xE2F JUMP JUMPDEST PUSH1 0x40 MLOAD DUP1 SWAP2 SUB SWAP1 RETURN JUMPDEST PUSH2 0x184 PUSH1 0x4 DUP1 CALLDATASIZE SUB DUP2 ADD SWAP1 PUSH2 0x17F SWAP2 SWAP1 PUSH2 0xA3D JUMP JUMPDEST PUSH2 0x839 JUMP JUMPDEST PUSH1 0x40 MLOAD PUSH2 0x191 SWAP2 SWAP1 PUSH2 0xE48 JUMP JUMPDEST PUSH1 0x40 MLOAD DUP1 SWAP2 SUB SWAP1 RETURN JUMPDEST PUSH1 0x2 PUSH1 0x20 MSTORE DUP2 PUSH0 MSTORE PUSH1 0x40 PUSH0 KECCAK256 DUP2 DUP2 SLOAD DUP2 LT PUSH2 0x1B3 JUMPI PUSH0 DUP1 REVERT JUMPDEST SWAP1 PUSH0 MSTORE PUSH1 0x20 PUSH0 KECCAK256 SWAP1 PUSH1 0x4 MUL ADD PUSH0 SWAP2 POP SWAP2 POP POP DUP1 PUSH0 ADD PUSH0 SWAP1 SLOAD SWAP1 PUSH2 0x100 EXP SWAP1 DIV PUSH20 0xFFFFFFFFFFFFFFFFFFFFFFFFFFFFFFFFFFFFFFFF AND SWAP1 DUP1 PUSH1 0x1 ADD DUP1 SLOAD PUSH2 0x1F8 SWAP1 PUSH2 0xE8E JUMP JUMPDEST DUP1 PUSH1 0x1F ADD PUSH1 0x20 DUP1 SWAP2 DIV MUL PUSH1 0x20 ADD PUSH1 0x40 MLOAD SWAP1 DUP2 ADD PUSH1 0x40 MSTORE DUP1 SWAP3 SWAP2 SWAP1 DUP2 DUP2 MSTORE PUSH1 0x20 ADD DUP3 DUP1 SLOAD PUSH2 0x224 SWAP1 PUSH2 0xE8E JUMP JUMPDEST DUP1 ISZERO PUSH2 0x26F JUMPI DUP1 PUSH1 0x1F LT PUSH2 0x246 JUMPI PUSH2 0x100 DUP1 DUP4 SLOAD DIV MUL DUP4 MSTORE SWAP2 PUSH1 0x20 ADD SWAP2 PUSH2 0x26F JUMP JUMPDEST DUP3 ADD SWAP2 SWAP1 PUSH0 MSTORE PUSH1 0x20 PUSH0 KECCAK256 SWAP1 JUMPDEST DUP2 SLOAD DUP2 MSTORE SWAP1 PUSH1 0x1 ADD SWAP1 PUSH1 0x20 ADD DUP1 DUP4 GT PUSH2 0x252 JUMPI DUP3 SWAP1 SUB PUSH1 0x1F AND DUP3 ADD SWAP2 JUMPDEST POP POP POP POP POP SWAP1 DUP1 PUSH1 0x2 ADD SLOAD SWAP1 DUP1 PUSH1 0x3 ADD SLOAD SWAP1 POP DUP5 JUMP JUMPDEST PUSH1 0x60 PUSH1 0x2 PUSH0 DUP4 PUSH20 0xFFFFFFFFFFFFFFFFFFFFFFFFFFFFFFFFFFFFFFFF AND PUSH20 0xFFFFFFFFFFFFFFFFFFFFFFFFFFFFFFFFFFFFFFFF AND DUP2 MSTORE PUSH1 0x20 ADD SWAP1 DUP2 MSTORE PUSH1 0x20 ADD PUSH0 KECCAK256 DUP1 SLOAD DUP1 PUSH1 0x20 MUL PUSH1 0x20 ADD PUSH1 0x40 MLOAD SWAP1 DUP2 ADD PUSH1 0x40 MSTORE DUP1 SWAP3 SWAP2 SWAP1 DUP2 DUP2 MSTORE PUSH1 0x20 ADD PUSH0 SWAP1 JUMPDEST DUP3 DUP3 LT ISZERO PUSH2 0x40B JUMPI DUP4 DUP3 SWAP1 PUSH0 MSTORE PUSH1 0x20 PUSH0 KECCAK256 SWAP1 PUSH1 0x4 MUL ADD PUSH1 0x40 MLOAD DUP1 PUSH1 0x80 ADD PUSH1 0x40 MSTORE SWAP1 DUP2 PUSH0 DUP3 ADD PUSH0 SWAP1 SLOAD SWAP1 PUSH2 0x100 EXP SWAP1 DIV PUSH20 0xFFFFFFFFFFFFFFFFFFFFFFFFFFFFFFFFFFFFFFFF AND PUSH20 0xFFFFFFFFFFFFFFFFFFFFFFFFFFFFFFFFFFFFFFFF AND PUSH20 0xFFFFFFFFFFFFFFFFFFFFFFFFFFFFFFFFFFFFFFFF AND DUP2 MSTORE PUSH1 0x20 ADD PUSH1 0x1 DUP3 ADD DUP1 SLOAD PUSH2 0x368 SWAP1 PUSH2 0xE8E JUMP JUMPDEST DUP1 PUSH1 0x1F ADD PUSH1 0x20 DUP1 SWAP2 DIV MUL PUSH1 0x20 ADD PUSH1 0x40 MLOAD SWAP1 DUP2 ADD PUSH1 0x40 MSTORE DUP1 SWAP3 SWAP2 SWAP1 DUP2 DUP2 MSTORE PUSH1 0x20 ADD DUP3 DUP1 SLOAD PUSH2 0x394 SWAP1 PUSH2 0xE8E JUMP JUMPDEST DUP1 ISZERO PUSH2 0x3DF JUMPI DUP1 PUSH1 0x1F LT PUSH2 0x3B6 JUMPI PUSH2 0x100 DUP1 DUP4 SLOAD DIV MUL DUP4 MSTORE SWAP2 PUSH1 0x20 ADD SWAP2 PUSH2 0x3DF JUMP JUMPDEST DUP3 ADD SWAP2 SWAP1 PUSH0 MSTORE PUSH1 0x20 PUSH0 KECCAK256 SWAP1 JUMPDEST DUP2 SLOAD DUP2 MSTORE SWAP1 PUSH1 0x1 ADD SWAP1 PUSH1 0x20 ADD DUP1 DUP4 GT PUSH2 0x3C2 JUMPI DUP3 SWAP1 SUB PUSH1 0x1F AND DUP3 ADD SWAP2 JUMPDEST POP POP POP POP POP DUP2 MSTORE PUSH1 0x20 ADD PUSH1 0x2 DUP3 ADD SLOAD DUP2 MSTORE PUSH1 0x20 ADD PUSH1 0x3 DUP3 ADD SLOAD DUP2 MSTORE POP POP DUP2 MSTORE PUSH1 0x20 ADD SWAP1 PUSH1 0x1 ADD SWAP1 PUSH2 0x2E3 JUMP JUMPDEST POP POP POP POP SWAP1 POP SWAP2 SWAP1 POP JUMP JUMPDEST PUSH2 0x41E PUSH2 0x84E JUMP JUMPDEST PUSH1 0x2 PUSH0 DUP5 PUSH20 0xFFFFFFFFFFFFFFFFFFFFFFFFFFFFFFFFFFFFFFFF AND PUSH20 0xFFFFFFFFFFFFFFFFFFFFFFFFFFFFFFFFFFFFFFFF AND DUP2 MSTORE PUSH1 0x20 ADD SWAP1 DUP2 MSTORE PUSH1 0x20 ADD PUSH0 KECCAK256 DUP3 DUP2 SLOAD DUP2 LT PUSH2 0x46D JUMPI PUSH2 0x46C PUSH2 0xEBE JUMP JUMPDEST JUMPDEST SWAP1 PUSH0 MSTORE PUSH1 0x20 PUSH0 KECCAK256 SWAP1 PUSH1 0x4 MUL ADD PUSH1 0x40 MLOAD DUP1 PUSH1 0x80 ADD PUSH1 0x40 MSTORE SWAP1 DUP2 PUSH0 DUP3 ADD PUSH0 SWAP1 SLOAD SWAP1 PUSH2 0x100 EXP SWAP1 DIV PUSH20 0xFFFFFFFFFFFFFFFFFFFFFFFFFFFFFFFFFFFFFFFF AND PUSH20 0xFFFFFFFFFFFFFFFFFFFFFFFFFFFFFFFFFFFFFFFF AND PUSH20 0xFFFFFFFFFFFFFFFFFFFFFFFFFFFFFFFFFFFFFFFF AND DUP2 MSTORE PUSH1 0x20 ADD PUSH1 0x1 DUP3 ADD DUP1 SLOAD PUSH2 0x4E8 SWAP1 PUSH2 0xE8E JUMP JUMPDEST DUP1 PUSH1 0x1F ADD PUSH1 0x20 DUP1 SWAP2 DIV MUL PUSH1 0x20 ADD PUSH1 0x40 MLOAD SWAP1 DUP2 ADD PUSH1 0x40 MSTORE DUP1 SWAP3 SWAP2 SWAP1 DUP2 DUP2 MSTORE PUSH1 0x20 ADD DUP3 DUP1 SLOAD PUSH2 0x514 SWAP1 PUSH2 0xE8E JUMP JUMPDEST DUP1 ISZERO PUSH2 0x55F JUMPI DUP1 PUSH1 0x1F LT PUSH2 0x536 JUMPI PUSH2 0x100 DUP1 DUP4 SLOAD DIV MUL DUP4 MSTORE SWAP2 PUSH1 0x20 ADD SWAP2 PUSH2 0x55F JUMP JUMPDEST DUP3 ADD SWAP2 SWAP1 PUSH0 MSTORE PUSH1 0x20 PUSH0 KECCAK256 SWAP1 JUMPDEST DUP2 SLOAD DUP2 MSTORE SWAP1 PUSH1 0x1 ADD SWAP1 PUSH1 0x20 ADD DUP1 DUP4 GT PUSH2 0x542 JUMPI DUP3 SWAP1 SUB PUSH1 0x1F AND DUP3 ADD SWAP2 JUMPDEST POP POP POP POP POP DUP2 MSTORE PUSH1 0x20 ADD PUSH1 0x2 DUP3 ADD SLOAD DUP2 MSTORE PUSH1 0x20 ADD PUSH1 0x3 DUP3 ADD SLOAD DUP2 MSTORE POP POP SWAP1 POP SWAP3 SWAP2 POP POP JUMP JUMPDEST PUSH0 PUSH1 0x14 SWAP1 SLOAD SWAP1 PUSH2 0x100 EXP SWAP1 DIV PUSH1 0xFF AND DUP2 JUMP JUMPDEST PUSH0 PUSH1 0x14 SWAP1 SLOAD SWAP1 PUSH2 0x100 EXP SWAP1 DIV PUSH1 0xFF AND ISZERO PUSH2 0x5E5 JUMPI PUSH1 0x40 MLOAD PUSH32 0x8C379A000000000000000000000000000000000000000000000000000000000 DUP2 MSTORE PUSH1 0x4 ADD PUSH2 0x5DC SWAP1 PUSH2 0xF35 JUMP JUMPDEST PUSH1 0x40 MLOAD DUP1 SWAP2 SUB SWAP1 REVERT JUMPDEST PUSH0 DUP1 SLOAD SWAP1 PUSH2 0x100 EXP SWAP1 DIV PUSH20 0xFFFFFFFFFFFFFFFFFFFFFFFFFFFFFFFFFFFFFFFF AND PUSH20 0xFFFFFFFFFFFFFFFFFFFFFFFFFFFFFFFFFFFFFFFF AND CALLER PUSH20 0xFFFFFFFFFFFFFFFFFFFFFFFFFFFFFFFFFFFFFFFF AND EQ PUSH2 0x672 JUMPI PUSH1 0x40 MLOAD PUSH32 0x8C379A000000000000000000000000000000000000000000000000000000000 DUP2 MSTORE PUSH1 0x4 ADD PUSH2 0x669 SWAP1 PUSH2 0xF9D JUMP JUMPDEST PUSH1 0x40 MLOAD DUP1 SWAP2 SUB SWAP1 REVERT JUMPDEST PUSH1 0xC8 PUSH2 0xFFFF AND DUP2 MLOAD GT ISZERO PUSH2 0x6BB JUMPI PUSH1 0x40 MLOAD PUSH32 0x8C379A000000000000000000000000000000000000000000000000000000000 DUP2 MSTORE PUSH1 0x4 ADD PUSH2 0x6B2 SWAP1 PUSH2 0x1005 JUMP JUMPDEST PUSH1 0x40 MLOAD DUP1 SWAP2 SUB SWAP1 REVERT JUMPDEST PUSH1 0xA PUSH2 0xFFFF AND DUP2 MLOAD LT ISZERO PUSH2 0x704 JUMPI PUSH1 0x40 MLOAD PUSH32 0x8C379A000000000000000000000000000000000000000000000000000000000 DUP2 MSTORE PUSH1 0x4 ADD PUSH2 0x6FB SWAP1 PUSH2 0x106D JUMP JUMPDEST PUSH1 0x40 MLOAD DUP1 SWAP2 SUB SWAP1 REVERT JUMPDEST PUSH0 PUSH1 0x40 MLOAD DUP1 PUSH1 0x80 ADD PUSH1 0x40 MSTORE DUP1 CALLER PUSH20 0xFFFFFFFFFFFFFFFFFFFFFFFFFFFFFFFFFFFFFFFF AND DUP2 MSTORE PUSH1 0x20 ADD DUP4 DUP2 MSTORE PUSH1 0x20 ADD TIMESTAMP DUP2 MSTORE PUSH1 0x20 ADD PUSH0 DUP2 MSTORE POP SWAP1 POP PUSH1 0x2 PUSH0 CALLER PUSH20 0xFFFFFFFFFFFFFFFFFFFFFFFFFFFFFFFFFFFFFFFF AND PUSH20 0xFFFFFFFFFFFFFFFFFFFFFFFFFFFFFFFFFFFFFFFF AND DUP2 MSTORE PUSH1 0x20 ADD SWAP1 DUP2 MSTORE PUSH1 0x20 ADD PUSH0 KECCAK256 DUP2 SWAP1 DUP1 PUSH1 0x1 DUP2 SLOAD ADD DUP1 DUP3 SSTORE DUP1 SWAP2 POP POP PUSH1 0x1 SWAP1 SUB SWAP1 PUSH0 MSTORE PUSH1 0x20 PUSH0 KECCAK256 SWAP1 PUSH1 0x4 MUL ADD PUSH0 SWAP1 SWAP2 SWAP1 SWAP2 SWAP1 SWAP2 POP PUSH0 DUP3 ADD MLOAD DUP2 PUSH0 ADD PUSH0 PUSH2 0x100 EXP DUP2 SLOAD DUP2 PUSH20 0xFFFFFFFFFFFFFFFFFFFFFFFFFFFFFFFFFFFFFFFF MUL NOT AND SWAP1 DUP4 PUSH20 0xFFFFFFFFFFFFFFFFFFFFFFFFFFFFFFFFFFFFFFFF AND MUL OR SWAP1 SSTORE POP PUSH1 0x20 DUP3 ADD MLOAD DUP2 PUSH1 0x1 ADD SWAP1 DUP2 PUSH2 0x7FB SWAP2 SWAP1 PUSH2 0x1228 JUMP JUMPDEST POP PUSH1 0x40 DUP3 ADD MLOAD DUP2 PUSH1 0x2 ADD SSTORE PUSH1 0x60 DUP3 ADD MLOAD DUP2 PUSH1 0x3 ADD SSTORE POP POP POP POP JUMP JUMPDEST PUSH0 DUP1 SLOAD SWAP1 PUSH2 0x100 EXP SWAP1 DIV PUSH20 0xFFFFFFFFFFFFFFFFFFFFFFFFFFFFFFFFFFFFFFFF AND DUP2 JUMP JUMPDEST PUSH1 0x1 PUSH1 0x20 MSTORE DUP1 PUSH0 MSTORE PUSH1 0x40 PUSH0 KECCAK256 PUSH0 SWAP2 POP SWAP1 POP SLOAD DUP2 JUMP JUMPDEST PUSH1 0x40 MLOAD DUP1 PUSH1 0x80 ADD PUSH1 0x40 MSTORE DUP1 PUSH0 PUSH20 0xFFFFFFFFFFFFFFFFFFFFFFFFFFFFFFFFFFFFFFFF AND DUP2 MSTORE PUSH1 0x20 ADD PUSH1 0x60 DUP2 MSTORE PUSH1 0x20 ADD PUSH0 DUP2 MSTORE PUSH1 0x20 ADD PUSH0 DUP2 MSTORE POP SWAP1 JUMP JUMPDEST PUSH0 PUSH1 0x40 MLOAD SWAP1 POP SWAP1 JUMP JUMPDEST PUSH0 DUP1 REVERT JUMPDEST PUSH0 DUP1 REVERT JUMPDEST PUSH0 PUSH20 0xFFFFFFFFFFFFFFFFFFFFFFFFFFFFFFFFFFFFFFFF DUP3 AND SWAP1 POP SWAP2 SWAP1 POP JUMP JUMPDEST PUSH0 PUSH2 0x8C3 DUP3 PUSH2 0x89A JUMP JUMPDEST SWAP1 POP SWAP2 SWAP1 POP JUMP JUMPDEST PUSH2 0x8D3 DUP2 PUSH2 0x8B9 JUMP JUMPDEST DUP2 EQ PUSH2 0x8DD JUMPI PUSH0 DUP1 REVERT JUMPDEST POP JUMP JUMPDEST PUSH0 DUP2 CALLDATALOAD SWAP1 POP PUSH2 0x8EE DUP2 PUSH2 0x8CA JUMP JUMPDEST SWAP3 SWAP2 POP POP JUMP JUMPDEST PUSH0 DUP2 SWAP1 POP SWAP2 SWAP1 POP JUMP JUMPDEST PUSH2 0x906 DUP2 PUSH2 0x8F4 JUMP JUMPDEST DUP2 EQ PUSH2 0x910 JUMPI PUSH0 DUP1 REVERT JUMPDEST POP JUMP JUMPDEST PUSH0 DUP2 CALLDATALOAD SWAP1 POP PUSH2 0x921 DUP2 PUSH2 0x8FD JUMP JUMPDEST SWAP3 SWAP2 POP POP JUMP JUMPDEST PUSH0 DUP1 PUSH1 0x40 DUP4 DUP6 SUB SLT ISZERO PUSH2 0x93D JUMPI PUSH2 0x93C PUSH2 0x892 JUMP JUMPDEST JUMPDEST PUSH0 PUSH2 0x94A DUP6 DUP3 DUP7 ADD PUSH2 0x8E0 JUMP JUMPDEST SWAP3 POP POP PUSH1 0x20 PUSH2 0x95B DUP6 DUP3 DUP7 ADD PUSH2 0x913 JUMP JUMPDEST SWAP2 POP POP SWAP3 POP SWAP3 SWAP1 POP JUMP JUMPDEST PUSH2 0x96E DUP2 PUSH2 0x8B9 JUMP JUMPDEST DUP3 MSTORE POP POP JUMP JUMPDEST PUSH0 DUP2 MLOAD SWAP1 POP SWAP2 SWAP1 POP JUMP JUMPDEST PUSH0 DUP3 DUP3 MSTORE PUSH1 0x20 DUP3 ADD SWAP1 POP SWAP3 SWAP2 POP POP JUMP JUMPDEST DUP3 DUP2 DUP4 MCOPY PUSH0 DUP4 DUP4 ADD MSTORE POP POP POP JUMP JUMPDEST PUSH0 PUSH1 0x1F NOT PUSH1 0x1F DUP4 ADD AND SWAP1 POP SWAP2 SWAP1 POP JUMP JUMPDEST PUSH0 PUSH2 0x9B6 DUP3 PUSH2 0x974 JUMP JUMPDEST PUSH2 0x9C0 DUP2 DUP6 PUSH2 0x97E JUMP JUMPDEST SWAP4 POP PUSH2 0x9D0 DUP2 DUP6 PUSH1 0x20 DUP7 ADD PUSH2 0x98E JUMP JUMPDEST PUSH2 0x9D9 DUP2 PUSH2 0x99C JUMP JUMPDEST DUP5 ADD SWAP2 POP POP SWAP3 SWAP2 POP POP JUMP JUMPDEST PUSH2 0x9ED DUP2 PUSH2 0x8F4 JUMP JUMPDEST DUP3 MSTORE POP POP JUMP JUMPDEST PUSH0 PUSH1 0x80 DUP3 ADD SWAP1 POP PUSH2 0xA06 PUSH0 DUP4 ADD DUP8 PUSH2 0x965 JUMP JUMPDEST DUP2 DUP2 SUB PUSH1 0x20 DUP4 ADD MSTORE PUSH2 0xA18 DUP2 DUP7 PUSH2 0x9AC JUMP JUMPDEST SWAP1 POP PUSH2 0xA27 PUSH1 0x40 DUP4 ADD DUP6 PUSH2 0x9E4 JUMP JUMPDEST PUSH2 0xA34 PUSH1 0x60 DUP4 ADD DUP5 PUSH2 0x9E4 JUMP JUMPDEST SWAP6 SWAP5 POP POP POP POP POP JUMP JUMPDEST PUSH0 PUSH1 0x20 DUP3 DUP5 SUB SLT ISZERO PUSH2 0xA52 JUMPI PUSH2 0xA51 PUSH2 0x892 JUMP JUMPDEST JUMPDEST PUSH0 PUSH2 0xA5F DUP5 DUP3 DUP6 ADD PUSH2 0x8E0 JUMP JUMPDEST SWAP2 POP POP SWAP3 SWAP2 POP POP JUMP JUMPDEST PUSH0 DUP2 MLOAD SWAP1 POP SWAP2 SWAP1 POP JUMP JUMPDEST PUSH0 DUP3 DUP3 MSTORE PUSH1 0x20 DUP3 ADD SWAP1 POP SWAP3 SWAP2 POP POP JUMP JUMPDEST PUSH0 DUP2 SWAP1 POP PUSH1 0x20 DUP3 ADD SWAP1 POP SWAP2 SWAP1 POP JUMP JUMPDEST PUSH2 0xA9A DUP2 PUSH2 0x8B9 JUMP JUMPDEST DUP3 MSTORE POP POP JUMP JUMPDEST PUSH0 DUP3 DUP3 MSTORE PUSH1 0x20 DUP3 ADD SWAP1 POP SWAP3 SWAP2 POP POP JUMP JUMPDEST PUSH0 PUSH2 0xABA DUP3 PUSH2 0x974 JUMP JUMPDEST PUSH2 0xAC4 DUP2 DUP6 PUSH2 0xAA0 JUMP JUMPDEST SWAP4 POP PUSH2 0xAD4 DUP2 DUP6 PUSH1 0x20 DUP7 ADD PUSH2 0x98E JUMP JUMPDEST PUSH2 0xADD DUP2 PUSH2 0x99C JUMP JUMPDEST DUP5 ADD SWAP2 POP POP SWAP3 SWAP2 POP POP JUMP JUMPDEST PUSH2 0xAF1 DUP2 PUSH2 0x8F4 JUMP JUMPDEST DUP3 MSTORE POP POP JUMP JUMPDEST PUSH0 PUSH1 0x80 DUP4 ADD PUSH0 DUP4 ADD MLOAD PUSH2 0xB0C PUSH0 DUP7 ADD DUP3 PUSH2 0xA91 JUMP JUMPDEST POP PUSH1 0x20 DUP4 ADD MLOAD DUP5 DUP3 SUB PUSH1 0x20 DUP7 ADD MSTORE PUSH2 0xB24 DUP3 DUP3 PUSH2 0xAB0 JUMP JUMPDEST SWAP2 POP POP PUSH1 0x40 DUP4 ADD MLOAD PUSH2 0xB39 PUSH1 0x40 DUP7 ADD DUP3 PUSH2 0xAE8 JUMP JUMPDEST POP PUSH1 0x60 DUP4 ADD MLOAD PUSH2 0xB4C PUSH1 0x60 DUP7 ADD DUP3 PUSH2 0xAE8 JUMP JUMPDEST POP DUP1 SWAP2 POP POP SWAP3 SWAP2 POP POP JUMP JUMPDEST PUSH0 PUSH2 0xB62 DUP4 DUP4 PUSH2 0xAF7 JUMP JUMPDEST SWAP1 POP SWAP3 SWAP2 POP POP JUMP JUMPDEST PUSH0 PUSH1 0x20 DUP3 ADD SWAP1 POP SWAP2 SWAP1 POP JUMP JUMPDEST PUSH0 PUSH2 0xB80 DUP3 PUSH2 0xA68 JUMP JUMPDEST PUSH2 0xB8A DUP2 DUP6 PUSH2 0xA72 JUMP JUMPDEST SWAP4 POP DUP4 PUSH1 0x20 DUP3 MUL DUP6 ADD PUSH2 0xB9C DUP6 PUSH2 0xA82 JUMP JUMPDEST DUP1 PUSH0 JUMPDEST DUP6 DUP2 LT ISZERO PUSH2 0xBD7 JUMPI DUP5 DUP5 SUB DUP10 MSTORE DUP2 MLOAD PUSH2 0xBB8 DUP6 DUP3 PUSH2 0xB57 JUMP JUMPDEST SWAP5 POP PUSH2 0xBC3 DUP4 PUSH2 0xB6A JUMP JUMPDEST SWAP3 POP PUSH1 0x20 DUP11 ADD SWAP10 POP POP PUSH1 0x1 DUP2 ADD SWAP1 POP PUSH2 0xB9F JUMP JUMPDEST POP DUP3 SWAP8 POP DUP8 SWAP6 POP POP POP POP POP POP SWAP3 SWAP2 POP POP JUMP JUMPDEST PUSH0 PUSH1 0x20 DUP3 ADD SWAP1 POP DUP2 DUP2 SUB PUSH0 DUP4 ADD MSTORE PUSH2 0xC01 DUP2 DUP5 PUSH2 0xB76 JUMP JUMPDEST SWAP1 POP SWAP3 SWAP2 POP POP JUMP JUMPDEST PUSH0 PUSH1 0x80 DUP4 ADD PUSH0 DUP4 ADD MLOAD PUSH2 0xC1E PUSH0 DUP7 ADD DUP3 PUSH2 0xA91 JUMP JUMPDEST POP PUSH1 0x20 DUP4 ADD MLOAD DUP5 DUP3 SUB PUSH1 0x20 DUP7 ADD MSTORE PUSH2 0xC36 DUP3 DUP3 PUSH2 0xAB0 JUMP JUMPDEST SWAP2 POP POP PUSH1 0x40 DUP4 ADD MLOAD PUSH2 0xC4B PUSH1 0x40 DUP7 ADD DUP3 PUSH2 0xAE8 JUMP JUMPDEST POP PUSH1 0x60 DUP4 ADD MLOAD PUSH2 0xC5E PUSH1 0x60 DUP7 ADD DUP3 PUSH2 0xAE8 JUMP JUMPDEST POP DUP1 SWAP2 POP POP SWAP3 SWAP2 POP POP JUMP JUMPDEST PUSH0 PUSH1 0x20 DUP3 ADD SWAP1 POP DUP2 DUP2 SUB PUSH0 DUP4 ADD MSTORE PUSH2 0xC81 DUP2 DUP5 PUSH2 0xC09 JUMP JUMPDEST SWAP1 POP SWAP3 SWAP2 POP POP JUMP JUMPDEST PUSH0 DUP2 ISZERO ISZERO SWAP1 POP SWAP2 SWAP1 POP JUMP JUMPDEST PUSH2 0xC9D DUP2 PUSH2 0xC89 JUMP JUMPDEST DUP3 MSTORE POP POP JUMP JUMPDEST PUSH0 PUSH1 0x20 DUP3 ADD SWAP1 POP PUSH2 0xCB6 PUSH0 DUP4 ADD DUP5 PUSH2 0xC94 JUMP JUMPDEST SWAP3 SWAP2 POP POP JUMP JUMPDEST PUSH0 DUP1 REVERT JUMPDEST PUSH0 DUP1 REVERT JUMPDEST PUSH32 0x4E487B7100000000000000000000000000000000000000000000000000000000 PUSH0 MSTORE PUSH1 0x41 PUSH1 0x4 MSTORE PUSH1 0x24 PUSH0 REVERT JUMPDEST PUSH2 0xCFA DUP3 PUSH2 0x99C JUMP JUMPDEST DUP2 ADD DUP2 DUP2 LT PUSH8 0xFFFFFFFFFFFFFFFF DUP3 GT OR ISZERO PUSH2 0xD19 JUMPI PUSH2 0xD18 PUSH2 0xCC4 JUMP JUMPDEST JUMPDEST DUP1 PUSH1 0x40 MSTORE POP POP POP JUMP JUMPDEST PUSH0 PUSH2 0xD2B PUSH2 0x889 JUMP JUMPDEST SWAP1 POP PUSH2 0xD37 DUP3 DUP3 PUSH2 0xCF1 JUMP JUMPDEST SWAP2 SWAP1 POP JUMP JUMPDEST PUSH0 PUSH8 0xFFFFFFFFFFFFFFFF DUP3 GT ISZERO PUSH2 0xD56 JUMPI PUSH2 0xD55 PUSH2 0xCC4 JUMP JUMPDEST JUMPDEST PUSH2 0xD5F DUP3 PUSH2 0x99C JUMP JUMPDEST SWAP1 POP PUSH1 0x20 DUP2 ADD SWAP1 POP SWAP2 SWAP1 POP JUMP JUMPDEST DUP3 DUP2 DUP4 CALLDATACOPY PUSH0 DUP4 DUP4 ADD MSTORE POP POP POP JUMP JUMPDEST PUSH0 PUSH2 0xD8C PUSH2 0xD87 DUP5 PUSH2 0xD3C JUMP JUMPDEST PUSH2 0xD22 JUMP JUMPDEST SWAP1 POP DUP3 DUP2 MSTORE PUSH1 0x20 DUP2 ADD DUP5 DUP5 DUP5 ADD GT ISZERO PUSH2 0xDA8 JUMPI PUSH2 0xDA7 PUSH2 0xCC0 JUMP JUMPDEST JUMPDEST PUSH2 0xDB3 DUP5 DUP3 DUP6 PUSH2 0xD6C JUMP JUMPDEST POP SWAP4 SWAP3 POP POP POP JUMP JUMPDEST PUSH0 DUP3 PUSH1 0x1F DUP4 ADD SLT PUSH2 0xDCF JUMPI PUSH2 0xDCE PUSH2 0xCBC JUMP JUMPDEST JUMPDEST DUP2 CALLDATALOAD PUSH2 0xDDF DUP5 DUP3 PUSH1 0x20 DUP7 ADD PUSH2 0xD7A JUMP JUMPDEST SWAP2 POP POP SWAP3 SWAP2 POP POP JUMP JUMPDEST PUSH0 PUSH1 0x20 DUP3 DUP5 SUB SLT ISZERO PUSH2 0xDFD JUMPI PUSH2 0xDFC PUSH2 0x892 JUMP JUMPDEST JUMPDEST PUSH0 DUP3 ADD CALLDATALOAD PUSH8 0xFFFFFFFFFFFFFFFF DUP2 GT ISZERO PUSH2 0xE1A JUMPI PUSH2 0xE19 PUSH2 0x896 JUMP JUMPDEST JUMPDEST PUSH2 0xE26 DUP5 DUP3 DUP6 ADD PUSH2 0xDBB JUMP JUMPDEST SWAP2 POP POP SWAP3 SWAP2 POP POP JUMP JUMPDEST PUSH0 PUSH1 0x20 DUP3 ADD SWAP1 POP PUSH2 0xE42 PUSH0 DUP4 ADD DUP5 PUSH2 0x965 JUMP JUMPDEST SWAP3 SWAP2 POP POP JUMP JUMPDEST PUSH0 PUSH1 0x20 DUP3 ADD SWAP1 POP PUSH2 0xE5B PUSH0 DUP4 ADD DUP5 PUSH2 0x9E4 JUMP JUMPDEST SWAP3 SWAP2 POP POP JUMP JUMPDEST PUSH32 0x4E487B7100000000000000000000000000000000000000000000000000000000 PUSH0 MSTORE PUSH1 0x22 PUSH1 0x4 MSTORE PUSH1 0x24 PUSH0 REVERT JUMPDEST PUSH0 PUSH1 0x2 DUP3 DIV SWAP1 POP PUSH1 0x1 DUP3 AND DUP1 PUSH2 0xEA5 JUMPI PUSH1 0x7F DUP3 AND SWAP2 POP JUMPDEST PUSH1 0x20 DUP3 LT DUP2 SUB PUSH2 0xEB8 JUMPI PUSH2 0xEB7 PUSH2 0xE61 JUMP JUMPDEST JUMPDEST POP SWAP2 SWAP1 POP JUMP JUMPDEST PUSH32 0x4E487B7100000000000000000000000000000000000000000000000000000000 PUSH0 MSTORE PUSH1 0x32 PUSH1 0x4 MSTORE PUSH1 0x24 PUSH0 REVERT JUMPDEST PUSH32 0x54686520636F6E747261637420697320696E4163746976652100000000000000 PUSH0 DUP3 ADD MSTORE POP JUMP JUMPDEST PUSH0 PUSH2 0xF1F PUSH1 0x19 DUP4 PUSH2 0x97E JUMP JUMPDEST SWAP2 POP PUSH2 0xF2A DUP3 PUSH2 0xEEB JUMP JUMPDEST PUSH1 0x20 DUP3 ADD SWAP1 POP SWAP2 SWAP1 POP JUMP JUMPDEST PUSH0 PUSH1 0x20 DUP3 ADD SWAP1 POP DUP2 DUP2 SUB PUSH0 DUP4 ADD MSTORE PUSH2 0xF4C DUP2 PUSH2 0xF13 JUMP JUMPDEST SWAP1 POP SWAP2 SWAP1 POP JUMP JUMPDEST PUSH32 0x796F7520617265206E6F7420746865206F776E65722021000000000000000000 PUSH0 DUP3 ADD MSTORE POP JUMP JUMPDEST PUSH0 PUSH2 0xF87 PUSH1 0x17 DUP4 PUSH2 0x97E JUMP JUMPDEST SWAP2 POP PUSH2 0xF92 DUP3 PUSH2 0xF53 JUMP JUMPDEST PUSH1 0x20 DUP3 ADD SWAP1 POP SWAP2 SWAP1 POP JUMP JUMPDEST PUSH0 PUSH1 0x20 DUP3 ADD SWAP1 POP DUP2 DUP2 SUB PUSH0 DUP4 ADD MSTORE PUSH2 0xFB4 DUP2 PUSH2 0xF7B JUMP JUMPDEST SWAP1 POP SWAP2 SWAP1 POP JUMP JUMPDEST PUSH32 0x5477656574206973206C6F6E6720210000000000000000000000000000000000 PUSH0 DUP3 ADD MSTORE POP JUMP JUMPDEST PUSH0 PUSH2 0xFEF PUSH1 0xF DUP4 PUSH2 0x97E JUMP JUMPDEST SWAP2 POP PUSH2 0xFFA DUP3 PUSH2 0xFBB JUMP JUMPDEST PUSH1 0x20 DUP3 ADD SWAP1 POP SWAP2 SWAP1 POP JUMP JUMPDEST PUSH0 PUSH1 0x20 DUP3 ADD SWAP1 POP DUP2 DUP2 SUB PUSH0 DUP4 ADD MSTORE PUSH2 0x101C DUP2 PUSH2 0xFE3 JUMP JUMPDEST SWAP1 POP SWAP2 SWAP1 POP JUMP JUMPDEST PUSH32 0x547765657420697320736F20736D616C6C202100000000000000000000000000 PUSH0 DUP3 ADD MSTORE POP JUMP JUMPDEST PUSH0 PUSH2 0x1057 PUSH1 0x13 DUP4 PUSH2 0x97E JUMP JUMPDEST SWAP2 POP PUSH2 0x1062 DUP3 PUSH2 0x1023 JUMP JUMPDEST PUSH1 0x20 DUP3 ADD SWAP1 POP SWAP2 SWAP1 POP JUMP JUMPDEST PUSH0 PUSH1 0x20 DUP3 ADD SWAP1 POP DUP2 DUP2 SUB PUSH0 DUP4 ADD MSTORE PUSH2 0x1084 DUP2 PUSH2 0x104B JUMP JUMPDEST SWAP1 POP SWAP2 SWAP1 POP JUMP JUMPDEST PUSH0 DUP2 SWAP1 POP DUP2 PUSH0 MSTORE PUSH1 0x20 PUSH0 KECCAK256 SWAP1 POP SWAP2 SWAP1 POP JUMP JUMPDEST PUSH0 PUSH1 0x20 PUSH1 0x1F DUP4 ADD DIV SWAP1 POP SWAP2 SWAP1 POP JUMP JUMPDEST PUSH0 DUP3 DUP3 SHL SWAP1 POP SWAP3 SWAP2 POP POP JUMP JUMPDEST PUSH0 PUSH1 0x8 DUP4 MUL PUSH2 0x10E7 PUSH32 0xFFFFFFFFFFFFFFFFFFFFFFFFFFFFFFFFFFFFFFFFFFFFFFFFFFFFFFFFFFFFFFFF DUP3 PUSH2 0x10AC JUMP JUMPDEST PUSH2 0x10F1 DUP7 DUP4 PUSH2 0x10AC JUMP JUMPDEST SWAP6 POP DUP1 NOT DUP5 AND SWAP4 POP DUP1 DUP7 AND DUP5 OR SWAP3 POP POP POP SWAP4 SWAP3 POP POP POP JUMP JUMPDEST PUSH0 DUP2 SWAP1 POP SWAP2 SWAP1 POP JUMP JUMPDEST PUSH0 PUSH2 0x112C PUSH2 0x1127 PUSH2 0x1122 DUP5 PUSH2 0x8F4 JUMP JUMPDEST PUSH2 0x1109 JUMP JUMPDEST PUSH2 0x8F4 JUMP JUMPDEST SWAP1 POP SWAP2 SWAP1 POP JUMP JUMPDEST PUSH0 DUP2 SWAP1 POP SWAP2 SWAP1 POP JUMP JUMPDEST PUSH2 0x1145 DUP4 PUSH2 0x1112 JUMP JUMPDEST PUSH2 0x1159 PUSH2 0x1151 DUP3 PUSH2 0x1133 JUMP JUMPDEST DUP5 DUP5 SLOAD PUSH2 0x10B8 JUMP JUMPDEST DUP3 SSTORE POP POP POP POP JUMP JUMPDEST PUSH0 SWAP1 JUMP JUMPDEST PUSH2 0x116D PUSH2 0x1161 JUMP JUMPDEST PUSH2 0x1178 DUP2 DUP5 DUP5 PUSH2 0x113C JUMP JUMPDEST POP POP POP JUMP JUMPDEST JUMPDEST DUP2 DUP2 LT ISZERO PUSH2 0x119B JUMPI PUSH2 0x1190 PUSH0 DUP3 PUSH2 0x1165 JUMP JUMPDEST PUSH1 0x1 DUP2 ADD SWAP1 POP PUSH2 0x117E JUMP JUMPDEST POP POP JUMP JUMPDEST PUSH1 0x1F DUP3 GT ISZERO PUSH2 0x11E0 JUMPI PUSH2 0x11B1 DUP2 PUSH2 0x108B JUMP JUMPDEST PUSH2 0x11BA DUP5 PUSH2 0x109D JUMP JUMPDEST DUP2 ADD PUSH1 0x20 DUP6 LT ISZERO PUSH2 0x11C9 JUMPI DUP2 SWAP1 POP JUMPDEST PUSH2 0x11DD PUSH2 0x11D5 DUP6 PUSH2 0x109D JUMP JUMPDEST DUP4 ADD DUP3 PUSH2 0x117D JUMP JUMPDEST POP POP JUMPDEST POP POP POP JUMP JUMPDEST PUSH0 DUP3 DUP3 SHR SWAP1 POP SWAP3 SWAP2 POP POP JUMP JUMPDEST PUSH0 PUSH2 0x1200 PUSH0 NOT DUP5 PUSH1 0x8 MUL PUSH2 0x11E5 JUMP JUMPDEST NOT DUP1 DUP4 AND SWAP2 POP POP SWAP3 SWAP2 POP POP JUMP JUMPDEST PUSH0 PUSH2 0x1218 DUP4 DUP4 PUSH2 0x11F1 JUMP JUMPDEST SWAP2 POP DUP3 PUSH1 0x2 MUL DUP3 OR SWAP1 POP SWAP3 SWAP2 POP POP JUMP JUMPDEST PUSH2 0x1231 DUP3 PUSH2 0x974 JUMP JUMPDEST PUSH8 0xFFFFFFFFFFFFFFFF DUP2 GT ISZERO PUSH2 0x124A JUMPI PUSH2 0x1249 PUSH2 0xCC4 JUMP JUMPDEST JUMPDEST PUSH2 0x1254 DUP3 SLOAD PUSH2 0xE8E JUMP JUMPDEST PUSH2 0x125F DUP3 DUP3 DUP6 PUSH2 0x119F JUMP JUMPDEST PUSH0 PUSH1 0x20 SWAP1 POP PUSH1 0x1F DUP4 GT PUSH1 0x1 DUP2 EQ PUSH2 0x1290 JUMPI PUSH0 DUP5 ISZERO PUSH2 0x127E JUMPI DUP3 DUP8 ADD MLOAD SWAP1 POP JUMPDEST PUSH2 0x1288 DUP6 DUP3 PUSH2 0x120D JUMP JUMPDEST DUP7 SSTORE POP PUSH2 0x12EF JUMP JUMPDEST PUSH1 0x1F NOT DUP5 AND PUSH2 0x129E DUP7 PUSH2 0x108B JUMP JUMPDEST PUSH0 JUMPDEST DUP3 DUP2 LT ISZERO PUSH2 0x12C5 JUMPI DUP5 DUP10 ADD MLOAD DUP3 SSTORE PUSH1 0x1 DUP3 ADD SWAP2 POP PUSH1 0x20 DUP6 ADD SWAP5 POP PUSH1 0x20 DUP2 ADD SWAP1 POP PUSH2 0x12A0 JUMP JUMPDEST DUP7 DUP4 LT ISZERO PUSH2 0x12E2 JUMPI DUP5 DUP10 ADD MLOAD PUSH2 0x12DE PUSH1 0x1F DUP10 AND DUP3 PUSH2 0x11F1 JUMP JUMPDEST DUP4 SSTORE POP JUMPDEST PUSH1 0x1 PUSH1 0x2 DUP9 MUL ADD DUP9 SSTORE POP POP POP JUMPDEST POP POP POP POP POP POP JUMP INVALID LOG2 PUSH5 0x6970667358 0x22 SLT KECCAK256 GT DUP4 REVERT SLT 0xCD GAS 0xBE DELEGATECALL SHR DUP12 0xB8 BALANCE OR PUSH21 0xCEDE1DAC8CEB500C497C637995D794F543FD64736F PUSH13 0x634300081A0033000000000000 "
				},
				"gasEstimates": {
					"creation": {
						"codeDepositCost": "981800",
						"executionCost": "73937",
						"totalCost": "1055737"
					},
					"external": {
						"balance(address)": "2868",
						"createTweet(string)": "infinite",
						"getAllTweets(address)": "infinite",
						"getTweets(address,uint256)": "infinite",
						"owner()": "2549",
						"paused()": "2516",
						"tweets(address,uint256)": "infinite"
					}
				},
				"methodIdentifiers": {
					"balance(address)": "e3d670d7",
					"createTweet(string)": "7c9cd2bc",
					"getAllTweets(address)": "12e7ee1c",
					"getTweets(address,uint256)": "2cf02026",
					"owner()": "8da5cb5b",
					"paused()": "5c975abb",
					"tweets(address,uint256)": "05a1b4a9"
				}
			},
			"storageLayout": {
				"storage": [
					{
						"astId": 3,
						"contract": "contracts/Twitter.sol:Twitter",
						"label": "owner",
						"offset": 0,
						"slot": "0",
						"type": "t_address"
					},
					{
						"astId": 5,
						"contract": "contracts/Twitter.sol:Twitter",
						"label": "paused",
						"offset": 20,
						"slot": "0",
						"type": "t_bool"
					},
					{
						"astId": 9,
						"contract": "contracts/Twitter.sol:Twitter",
						"label": "balance",
						"offset": 0,
						"slot": "1",
						"type": "t_mapping(t_address,t_uint256)"
					},
					{
						"astId": 49,
						"contract": "contracts/Twitter.sol:Twitter",
						"label": "tweets",
						"offset": 0,
						"slot": "2",
						"type": "t_mapping(t_address,t_array(t_struct(Tweet)37_storage)dyn_storage)"
					}
				],
				"types": {
					"t_address": {
						"encoding": "inplace",
						"label": "address",
						"numberOfBytes": "20"
					},
					"t_array(t_struct(Tweet)37_storage)dyn_storage": {
						"base": "t_struct(Tweet)37_storage",
						"encoding": "dynamic_array",
						"label": "struct Twitter.Tweet[]",
						"numberOfBytes": "32"
					},
					"t_bool": {
						"encoding": "inplace",
						"label": "bool",
						"numberOfBytes": "1"
					},
					"t_mapping(t_address,t_array(t_struct(Tweet)37_storage)dyn_storage)": {
						"encoding": "mapping",
						"key": "t_address",
						"label": "mapping(address => struct Twitter.Tweet[])",
						"numberOfBytes": "32",
						"value": "t_array(t_struct(Tweet)37_storage)dyn_storage"
					},
					"t_mapping(t_address,t_uint256)": {
						"encoding": "mapping",
						"key": "t_address",
						"label": "mapping(address => uint256)",
						"numberOfBytes": "32",
						"value": "t_uint256"
					},
					"t_string_storage": {
						"encoding": "bytes",
						"label": "string",
						"numberOfBytes": "32"
					},
					"t_struct(Tweet)37_storage": {
						"encoding": "inplace",
						"label": "struct Twitter.Tweet",
						"members": [
							{
								"astId": 30,
								"contract": "contracts/Twitter.sol:Twitter",
								"label": "author",
								"offset": 0,
								"slot": "0",
								"type": "t_address"
							},
							{
								"astId": 32,
								"contract": "contracts/Twitter.sol:Twitter",
								"label": "content",
								"offset": 0,
								"slot": "1",
								"type": "t_string_storage"
							},
							{
								"astId": 34,
								"contract": "contracts/Twitter.sol:Twitter",
								"label": "timestamp",
								"offset": 0,
								"slot": "2",
								"type": "t_uint256"
							},
							{
								"astId": 36,
								"contract": "contracts/Twitter.sol:Twitter",
								"label": "likes",
								"offset": 0,
								"slot": "3",
								"type": "t_uint256"
							}
						],
						"numberOfBytes": "128"
					},
					"t_uint256": {
						"encoding": "inplace",
						"label": "uint256",
						"numberOfBytes": "32"
					}
				}
			},
			"userdoc": {
				"kind": "user",
				"methods": {},
				"version": 1
			}
		}
	}
}