{
	"contracts/Twitter.sol": {
		"Twitter": {
			"abi": [
				{
					"inputs": [
						{
							"internalType": "string",
							"name": "_tweets",
							"type": "string"
						}
					],
					"name": "createTweet",
					"outputs": [],
					"stateMutability": "nonpayable",
					"type": "function"
				},
				{
					"inputs": [
						{
							"internalType": "address",
							"name": "_owner",
							"type": "address"
						}
					],
					"name": "getAllTweets",
					"outputs": [
						{
							"components": [
								{
									"internalType": "address",
									"name": "author",
									"type": "address"
								},
								{
									"internalType": "string",
									"name": "content",
									"type": "string"
								},
								{
									"internalType": "uint256",
									"name": "timestamp",
									"type": "uint256"
								},
								{
									"internalType": "uint256",
									"name": "likes",
									"type": "uint256"
								}
							],
							"internalType": "struct Twitter.Tweet[]",
							"name": "",
							"type": "tuple[]"
						}
					],
					"stateMutability": "view",
					"type": "function"
				},
				{
					"inputs": [
						{
							"internalType": "address",
							"name": "_owner",
							"type": "address"
						},
						{
							"internalType": "uint256",
							"name": "_i",
							"type": "uint256"
						}
					],
					"name": "getTweets",
					"outputs": [
						{
							"components": [
								{
									"internalType": "address",
									"name": "author",
									"type": "address"
								},
								{
									"internalType": "string",
									"name": "content",
									"type": "string"
								},
								{
									"internalType": "uint256",
									"name": "timestamp",
									"type": "uint256"
								},
								{
									"internalType": "uint256",
									"name": "likes",
									"type": "uint256"
								}
							],
							"internalType": "struct Twitter.Tweet",
							"name": "",
							"type": "tuple"
						}
					],
					"stateMutability": "view",
					"type": "function"
				},
				{
					"inputs": [
						{
							"internalType": "address",
							"name": "",
							"type": "address"
						},
						{
							"internalType": "uint256",
							"name": "",
							"type": "uint256"
						}
					],
					"name": "tweets",
					"outputs": [
						{
							"internalType": "address",
							"name": "author",
							"type": "address"
						},
						{
							"internalType": "string",
							"name": "content",
							"type": "string"
						},
						{
							"internalType": "uint256",
							"name": "timestamp",
							"type": "uint256"
						},
						{
							"internalType": "uint256",
							"name": "likes",
							"type": "uint256"
						}
					],
					"stateMutability": "view",
					"type": "function"
				}
			],
			"devdoc": {
				"kind": "dev",
				"methods": {},
				"version": 1
			},
			"evm": {
				"assembly": "    /* \"contracts/Twitter.sol\":62:1115  contract Twitter {... */\n  mstore(0x40, 0x80)\n  callvalue\n  dup1\n  iszero\n  tag_1\n  jumpi\n  0x00\n  dup1\n  revert\ntag_1:\n  pop\n  dataSize(sub_0)\n  dup1\n  dataOffset(sub_0)\n  0x00\n  codecopy\n  0x00\n  return\nstop\n\nsub_0: assembly {\n        /* \"contracts/Twitter.sol\":62:1115  contract Twitter {... */\n      mstore(0x40, 0x80)\n      callvalue\n      dup1\n      iszero\n      tag_1\n      jumpi\n      0x00\n      dup1\n      revert\n    tag_1:\n      pop\n      jumpi(tag_2, lt(calldatasize, 0x04))\n      shr(0xe0, calldataload(0x00))\n      dup1\n      0x05a1b4a9\n      eq\n      tag_3\n      jumpi\n      dup1\n      0x12e7ee1c\n      eq\n      tag_4\n      jumpi\n      dup1\n      0x2cf02026\n      eq\n      tag_5\n      jumpi\n      dup1\n      0x7c9cd2bc\n      eq\n      tag_6\n      jumpi\n    tag_2:\n      0x00\n      dup1\n      revert\n        /* \"contracts/Twitter.sol\":329:371  mapping (address => Tweet[]) public tweets */\n    tag_3:\n      tag_7\n      0x04\n      dup1\n      calldatasize\n      sub\n      dup2\n      add\n      swap1\n      tag_8\n      swap2\n      swap1\n      tag_9\n      jump\t// in\n    tag_8:\n      tag_10\n      jump\t// in\n    tag_7:\n      mload(0x40)\n      tag_11\n      swap5\n      swap4\n      swap3\n      swap2\n      swap1\n      tag_12\n      jump\t// in\n    tag_11:\n      mload(0x40)\n      dup1\n      swap2\n      sub\n      swap1\n      return\n        /* \"contracts/Twitter.sol\":991:1106  function getAllTweets(address _owner) public view returns (Tweet[] memory){... */\n    tag_4:\n      tag_13\n      0x04\n      dup1\n      calldatasize\n      sub\n      dup2\n      add\n      swap1\n      tag_14\n      swap2\n      swap1\n      tag_15\n      jump\t// in\n    tag_14:\n      tag_16\n      jump\t// in\n    tag_13:\n      mload(0x40)\n      tag_17\n      swap2\n      swap1\n      tag_18\n      jump\t// in\n    tag_17:\n      mload(0x40)\n      dup1\n      swap2\n      sub\n      swap1\n      return\n        /* \"contracts/Twitter.sol\":859:983  function getTweets(address _owner, uint _i) public view returns (Tweet memory)  {... */\n    tag_5:\n      tag_19\n      0x04\n      dup1\n      calldatasize\n      sub\n      dup2\n      add\n      swap1\n      tag_20\n      swap2\n      swap1\n      tag_9\n      jump\t// in\n    tag_20:\n      tag_21\n      jump\t// in\n    tag_19:\n      mload(0x40)\n      tag_22\n      swap2\n      swap1\n      tag_23\n      jump\t// in\n    tag_22:\n      mload(0x40)\n      dup1\n      swap2\n      sub\n      swap1\n      return\n        /* \"contracts/Twitter.sol\":380:851  function createTweet(string memory  _tweets) public {... */\n    tag_6:\n      tag_24\n      0x04\n      dup1\n      calldatasize\n      sub\n      dup2\n      add\n      swap1\n      tag_25\n      swap2\n      swap1\n      tag_26\n      jump\t// in\n    tag_25:\n      tag_27\n      jump\t// in\n    tag_24:\n      stop\n        /* \"contracts/Twitter.sol\":329:371  mapping (address => Tweet[]) public tweets */\n    tag_10:\n      mstore(0x20, 0x00)\n      dup2\n      0x00\n      mstore\n      keccak256(0x00, 0x40)\n      dup2\n      dup2\n      sload\n      dup2\n      lt\n      tag_28\n      jumpi\n      0x00\n      dup1\n      revert\n    tag_28:\n      swap1\n      0x00\n      mstore\n      keccak256(0x00, 0x20)\n      swap1\n      0x04\n      mul\n      add\n      0x00\n      swap2\n      pop\n      swap2\n      pop\n      pop\n      dup1\n      0x00\n      add\n      0x00\n      swap1\n      sload\n      swap1\n      0x0100\n      exp\n      swap1\n      div\n      0xffffffffffffffffffffffffffffffffffffffff\n      and\n      swap1\n      dup1\n      0x01\n      add\n      dup1\n      sload\n      tag_30\n      swap1\n      tag_31\n      jump\t// in\n    tag_30:\n      dup1\n      0x1f\n      add\n      0x20\n      dup1\n      swap2\n      div\n      mul\n      0x20\n      add\n      mload(0x40)\n      swap1\n      dup2\n      add\n      0x40\n      mstore\n      dup1\n      swap3\n      swap2\n      swap1\n      dup2\n      dup2\n      mstore\n      0x20\n      add\n      dup3\n      dup1\n      sload\n      tag_32\n      swap1\n      tag_31\n      jump\t// in\n    tag_32:\n      dup1\n      iszero\n      tag_33\n      jumpi\n      dup1\n      0x1f\n      lt\n      tag_34\n      jumpi\n      0x0100\n      dup1\n      dup4\n      sload\n      div\n      mul\n      dup4\n      mstore\n      swap2\n      0x20\n      add\n      swap2\n      jump(tag_33)\n    tag_34:\n      dup3\n      add\n      swap2\n      swap1\n      0x00\n      mstore\n      keccak256(0x00, 0x20)\n      swap1\n    tag_35:\n      dup2\n      sload\n      dup2\n      mstore\n      swap1\n      0x01\n      add\n      swap1\n      0x20\n      add\n      dup1\n      dup4\n      gt\n      tag_35\n      jumpi\n      dup3\n      swap1\n      sub\n      0x1f\n      and\n      dup3\n      add\n      swap2\n    tag_33:\n      pop\n      pop\n      pop\n      pop\n      pop\n      swap1\n      dup1\n      0x02\n      add\n      sload\n      swap1\n      dup1\n      0x03\n      add\n      sload\n      swap1\n      pop\n      dup5\n      jump\t// out\n        /* \"contracts/Twitter.sol\":991:1106  function getAllTweets(address _owner) public view returns (Tweet[] memory){... */\n    tag_16:\n        /* \"contracts/Twitter.sol\":1050:1064  Tweet[] memory */\n      0x60\n        /* \"contracts/Twitter.sol\":1084:1090  tweets */\n      0x00\n        /* \"contracts/Twitter.sol\":1084:1098  tweets[_owner] */\n      dup1\n        /* \"contracts/Twitter.sol\":1091:1097  _owner */\n      dup4\n        /* \"contracts/Twitter.sol\":1084:1098  tweets[_owner] */\n      0xffffffffffffffffffffffffffffffffffffffff\n      and\n      0xffffffffffffffffffffffffffffffffffffffff\n      and\n      dup2\n      mstore\n      0x20\n      add\n      swap1\n      dup2\n      mstore\n      0x20\n      add\n      0x00\n      keccak256\n        /* \"contracts/Twitter.sol\":1076:1098  return  tweets[_owner] */\n      dup1\n      sload\n      dup1\n      0x20\n      mul\n      0x20\n      add\n      mload(0x40)\n      swap1\n      dup2\n      add\n      0x40\n      mstore\n      dup1\n      swap3\n      swap2\n      swap1\n      dup2\n      dup2\n      mstore\n      0x20\n      add\n      0x00\n      swap1\n    tag_37:\n      dup3\n      dup3\n      lt\n      iszero\n      tag_38\n      jumpi\n      dup4\n      dup3\n      swap1\n      0x00\n      mstore\n      keccak256(0x00, 0x20)\n      swap1\n      0x04\n      mul\n      add\n      mload(0x40)\n      dup1\n      0x80\n      add\n      0x40\n      mstore\n      swap1\n      dup2\n      0x00\n      dup3\n      add\n      0x00\n      swap1\n      sload\n      swap1\n      0x0100\n      exp\n      swap1\n      div\n      0xffffffffffffffffffffffffffffffffffffffff\n      and\n      0xffffffffffffffffffffffffffffffffffffffff\n      and\n      0xffffffffffffffffffffffffffffffffffffffff\n      and\n      dup2\n      mstore\n      0x20\n      add\n      0x01\n      dup3\n      add\n      dup1\n      sload\n      tag_40\n      swap1\n      tag_31\n      jump\t// in\n    tag_40:\n      dup1\n      0x1f\n      add\n      0x20\n      dup1\n      swap2\n      div\n      mul\n      0x20\n      add\n      mload(0x40)\n      swap1\n      dup2\n      add\n      0x40\n      mstore\n      dup1\n      swap3\n      swap2\n      swap1\n      dup2\n      dup2\n      mstore\n      0x20\n      add\n      dup3\n      dup1\n      sload\n      tag_41\n      swap1\n      tag_31\n      jump\t// in\n    tag_41:\n      dup1\n      iszero\n      tag_42\n      jumpi\n      dup1\n      0x1f\n      lt\n      tag_43\n      jumpi\n      0x0100\n      dup1\n      dup4\n      sload\n      div\n      mul\n      dup4\n      mstore\n      swap2\n      0x20\n      add\n      swap2\n      jump(tag_42)\n    tag_43:\n      dup3\n      add\n      swap2\n      swap1\n      0x00\n      mstore\n      keccak256(0x00, 0x20)\n      swap1\n    tag_44:\n      dup2\n      sload\n      dup2\n      mstore\n      swap1\n      0x01\n      add\n      swap1\n      0x20\n      add\n      dup1\n      dup4\n      gt\n      tag_44\n      jumpi\n      dup3\n      swap1\n      sub\n      0x1f\n      and\n      dup3\n      add\n      swap2\n    tag_42:\n      pop\n      pop\n      pop\n      pop\n      pop\n      dup2\n      mstore\n      0x20\n      add\n      0x02\n      dup3\n      add\n      sload\n      dup2\n      mstore\n      0x20\n      add\n      0x03\n      dup3\n      add\n      sload\n      dup2\n      mstore\n      pop\n      pop\n      dup2\n      mstore\n      0x20\n      add\n      swap1\n      0x01\n      add\n      swap1\n      jump(tag_37)\n    tag_38:\n      pop\n      pop\n      pop\n      pop\n      swap1\n      pop\n        /* \"contracts/Twitter.sol\":991:1106  function getAllTweets(address _owner) public view returns (Tweet[] memory){... */\n      swap2\n      swap1\n      pop\n      jump\t// out\n        /* \"contracts/Twitter.sol\":859:983  function getTweets(address _owner, uint _i) public view returns (Tweet memory)  {... */\n    tag_21:\n        /* \"contracts/Twitter.sol\":924:936  Tweet memory */\n      tag_45\n      tag_46\n      jump\t// in\n    tag_45:\n        /* \"contracts/Twitter.sol\":957:963  tweets */\n      0x00\n        /* \"contracts/Twitter.sol\":957:971  tweets[_owner] */\n      dup1\n        /* \"contracts/Twitter.sol\":964:970  _owner */\n      dup5\n        /* \"contracts/Twitter.sol\":957:971  tweets[_owner] */\n      0xffffffffffffffffffffffffffffffffffffffff\n      and\n      0xffffffffffffffffffffffffffffffffffffffff\n      and\n      dup2\n      mstore\n      0x20\n      add\n      swap1\n      dup2\n      mstore\n      0x20\n      add\n      0x00\n      keccak256\n        /* \"contracts/Twitter.sol\":972:974  _i */\n      dup3\n        /* \"contracts/Twitter.sol\":957:975  tweets[_owner][_i] */\n      dup2\n      sload\n      dup2\n      lt\n      tag_48\n      jumpi\n      tag_49\n      tag_50\n      jump\t// in\n    tag_49:\n    tag_48:\n      swap1\n      0x00\n      mstore\n      keccak256(0x00, 0x20)\n      swap1\n      0x04\n      mul\n      add\n        /* \"contracts/Twitter.sol\":950:975  return tweets[_owner][_i] */\n      mload(0x40)\n      dup1\n      0x80\n      add\n      0x40\n      mstore\n      swap1\n      dup2\n      0x00\n      dup3\n      add\n      0x00\n      swap1\n      sload\n      swap1\n      0x0100\n      exp\n      swap1\n      div\n      0xffffffffffffffffffffffffffffffffffffffff\n      and\n      0xffffffffffffffffffffffffffffffffffffffff\n      and\n      0xffffffffffffffffffffffffffffffffffffffff\n      and\n      dup2\n      mstore\n      0x20\n      add\n      0x01\n      dup3\n      add\n      dup1\n      sload\n      tag_52\n      swap1\n      tag_31\n      jump\t// in\n    tag_52:\n      dup1\n      0x1f\n      add\n      0x20\n      dup1\n      swap2\n      div\n      mul\n      0x20\n      add\n      mload(0x40)\n      swap1\n      dup2\n      add\n      0x40\n      mstore\n      dup1\n      swap3\n      swap2\n      swap1\n      dup2\n      dup2\n      mstore\n      0x20\n      add\n      dup3\n      dup1\n      sload\n      tag_53\n      swap1\n      tag_31\n      jump\t// in\n    tag_53:\n      dup1\n      iszero\n      tag_54\n      jumpi\n      dup1\n      0x1f\n      lt\n      tag_55\n      jumpi\n      0x0100\n      dup1\n      dup4\n      sload\n      div\n      mul\n      dup4\n      mstore\n      swap2\n      0x20\n      add\n      swap2\n      jump(tag_54)\n    tag_55:\n      dup3\n      add\n      swap2\n      swap1\n      0x00\n      mstore\n      keccak256(0x00, 0x20)\n      swap1\n    tag_56:\n      dup2\n      sload\n      dup2\n      mstore\n      swap1\n      0x01\n      add\n      swap1\n      0x20\n      add\n      dup1\n      dup4\n      gt\n      tag_56\n      jumpi\n      dup3\n      swap1\n      sub\n      0x1f\n      and\n      dup3\n      add\n      swap2\n    tag_54:\n      pop\n      pop\n      pop\n      pop\n      pop\n      dup2\n      mstore\n      0x20\n      add\n      0x02\n      dup3\n      add\n      sload\n      dup2\n      mstore\n      0x20\n      add\n      0x03\n      dup3\n      add\n      sload\n      dup2\n      mstore\n      pop\n      pop\n      swap1\n      pop\n        /* \"contracts/Twitter.sol\":859:983  function getTweets(address _owner, uint _i) public view returns (Tweet memory)  {... */\n      swap3\n      swap2\n      pop\n      pop\n      jump\t// out\n        /* \"contracts/Twitter.sol\":380:851  function createTweet(string memory  _tweets) public {... */\n    tag_27:\n        /* \"contracts/Twitter.sol\":275:278  200 */\n      0xc8\n        /* \"contracts/Twitter.sol\":453:494  bytes(_tweets).length <= MAX_TWEET_LENGTH */\n      0xffff\n      and\n        /* \"contracts/Twitter.sol\":459:466  _tweets */\n      dup2\n        /* \"contracts/Twitter.sol\":453:474  bytes(_tweets).length */\n      mload\n        /* \"contracts/Twitter.sol\":453:494  bytes(_tweets).length <= MAX_TWEET_LENGTH */\n      gt\n      iszero\n        /* \"contracts/Twitter.sol\":445:516  require(bytes(_tweets).length <= MAX_TWEET_LENGTH  , \"Tweet is long !\") */\n      tag_58\n      jumpi\n      mload(0x40)\n      0x08c379a000000000000000000000000000000000000000000000000000000000\n      dup2\n      mstore\n      0x04\n      add\n      tag_59\n      swap1\n      tag_60\n      jump\t// in\n    tag_59:\n      mload(0x40)\n      dup1\n      swap2\n      sub\n      swap1\n      revert\n    tag_58:\n        /* \"contracts/Twitter.sol\":320:322  10 */\n      0x0a\n        /* \"contracts/Twitter.sol\":535:576  bytes(_tweets).length >= MIN_TWEET_LENGTH */\n      0xffff\n      and\n        /* \"contracts/Twitter.sol\":541:548  _tweets */\n      dup2\n        /* \"contracts/Twitter.sol\":535:556  bytes(_tweets).length */\n      mload\n        /* \"contracts/Twitter.sol\":535:576  bytes(_tweets).length >= MIN_TWEET_LENGTH */\n      lt\n      iszero\n        /* \"contracts/Twitter.sol\":527:603  require(bytes(_tweets).length >= MIN_TWEET_LENGTH , \"Tweet is so small !\"  ) */\n      tag_61\n      jumpi\n      mload(0x40)\n      0x08c379a000000000000000000000000000000000000000000000000000000000\n      dup2\n      mstore\n      0x04\n      add\n      tag_62\n      swap1\n      tag_63\n      jump\t// in\n    tag_62:\n      mload(0x40)\n      dup1\n      swap2\n      sub\n      swap1\n      revert\n    tag_61:\n        /* \"contracts/Twitter.sol\":624:645  Tweet memory newTweet */\n      0x00\n        /* \"contracts/Twitter.sol\":648:799  Tweet ({... */\n      mload(0x40)\n      dup1\n      0x80\n      add\n      0x40\n      mstore\n      dup1\n        /* \"contracts/Twitter.sol\":679:689  msg.sender */\n      caller\n        /* \"contracts/Twitter.sol\":648:799  Tweet ({... */\n      0xffffffffffffffffffffffffffffffffffffffff\n      and\n      dup2\n      mstore\n      0x20\n      add\n        /* \"contracts/Twitter.sol\":714:721  _tweets */\n      dup4\n        /* \"contracts/Twitter.sol\":648:799  Tweet ({... */\n      dup2\n      mstore\n      0x20\n      add\n        /* \"contracts/Twitter.sol\":748:763  block.timestamp */\n      timestamp\n        /* \"contracts/Twitter.sol\":648:799  Tweet ({... */\n      dup2\n      mstore\n      0x20\n      add\n        /* \"contracts/Twitter.sol\":786:787  0 */\n      0x00\n        /* \"contracts/Twitter.sol\":648:799  Tweet ({... */\n      dup2\n      mstore\n      pop\n        /* \"contracts/Twitter.sol\":624:799  Tweet memory newTweet = Tweet ({... */\n      swap1\n      pop\n        /* \"contracts/Twitter.sol\":810:816  tweets */\n      0x00\n        /* \"contracts/Twitter.sol\":810:828  tweets[msg.sender] */\n      dup1\n        /* \"contracts/Twitter.sol\":817:827  msg.sender */\n      caller\n        /* \"contracts/Twitter.sol\":810:828  tweets[msg.sender] */\n      0xffffffffffffffffffffffffffffffffffffffff\n      and\n      0xffffffffffffffffffffffffffffffffffffffff\n      and\n      dup2\n      mstore\n      0x20\n      add\n      swap1\n      dup2\n      mstore\n      0x20\n      add\n      0x00\n      keccak256\n        /* \"contracts/Twitter.sol\":834:842  newTweet */\n      dup2\n        /* \"contracts/Twitter.sol\":810:843  tweets[msg.sender].push(newTweet) */\n      swap1\n      dup1\n      0x01\n      dup2\n      sload\n      add\n      dup1\n      dup3\n      sstore\n      dup1\n      swap2\n      pop\n      pop\n      0x01\n      swap1\n      sub\n      swap1\n      0x00\n      mstore\n      keccak256(0x00, 0x20)\n      swap1\n      0x04\n      mul\n      add\n      0x00\n      swap1\n      swap2\n      swap1\n      swap2\n      swap1\n      swap2\n      pop\n      0x00\n      dup3\n      add\n      mload\n      dup2\n      0x00\n      add\n      exp(0x0100, 0x00)\n      dup2\n      sload\n      dup2\n      0xffffffffffffffffffffffffffffffffffffffff\n      mul\n      not\n      and\n      swap1\n      dup4\n      0xffffffffffffffffffffffffffffffffffffffff\n      and\n      mul\n      or\n      swap1\n      sstore\n      pop\n      0x20\n      dup3\n      add\n      mload\n      dup2\n      0x01\n      add\n      swap1\n      dup2\n      tag_65\n      swap2\n      swap1\n      tag_66\n      jump\t// in\n    tag_65:\n      pop\n      0x40\n      dup3\n      add\n      mload\n      dup2\n      0x02\n      add\n      sstore\n      0x60\n      dup3\n      add\n      mload\n      dup2\n      0x03\n      add\n      sstore\n      pop\n      pop\n        /* \"contracts/Twitter.sol\":432:851  {... */\n      pop\n        /* \"contracts/Twitter.sol\":380:851  function createTweet(string memory  _tweets) public {... */\n      pop\n      jump\t// out\n    tag_46:\n      mload(0x40)\n      dup1\n      0x80\n      add\n      0x40\n      mstore\n      dup1\n      and(0xffffffffffffffffffffffffffffffffffffffff, 0x00)\n      dup2\n      mstore\n      0x20\n      add\n      0x60\n      dup2\n      mstore\n      0x20\n      add\n      0x00\n      dup2\n      mstore\n      0x20\n      add\n      0x00\n      dup2\n      mstore\n      pop\n      swap1\n      jump\t// out\n        /* \"#utility.yul\":7:82   */\n    tag_67:\n        /* \"#utility.yul\":40:46   */\n      0x00\n        /* \"#utility.yul\":73:75   */\n      0x40\n        /* \"#utility.yul\":67:76   */\n      mload\n        /* \"#utility.yul\":57:76   */\n      swap1\n      pop\n        /* \"#utility.yul\":7:82   */\n      swap1\n      jump\t// out\n        /* \"#utility.yul\":88:205   */\n    tag_68:\n        /* \"#utility.yul\":197:198   */\n      0x00\n        /* \"#utility.yul\":194:195   */\n      dup1\n        /* \"#utility.yul\":187:199   */\n      revert\n        /* \"#utility.yul\":211:328   */\n    tag_69:\n        /* \"#utility.yul\":320:321   */\n      0x00\n        /* \"#utility.yul\":317:318   */\n      dup1\n        /* \"#utility.yul\":310:322   */\n      revert\n        /* \"#utility.yul\":334:460   */\n    tag_70:\n        /* \"#utility.yul\":371:378   */\n      0x00\n        /* \"#utility.yul\":411:453   */\n      0xffffffffffffffffffffffffffffffffffffffff\n        /* \"#utility.yul\":404:409   */\n      dup3\n        /* \"#utility.yul\":400:454   */\n      and\n        /* \"#utility.yul\":389:454   */\n      swap1\n      pop\n        /* \"#utility.yul\":334:460   */\n      swap2\n      swap1\n      pop\n      jump\t// out\n        /* \"#utility.yul\":466:562   */\n    tag_71:\n        /* \"#utility.yul\":503:510   */\n      0x00\n        /* \"#utility.yul\":532:556   */\n      tag_131\n        /* \"#utility.yul\":550:555   */\n      dup3\n        /* \"#utility.yul\":532:556   */\n      tag_70\n      jump\t// in\n    tag_131:\n        /* \"#utility.yul\":521:556   */\n      swap1\n      pop\n        /* \"#utility.yul\":466:562   */\n      swap2\n      swap1\n      pop\n      jump\t// out\n        /* \"#utility.yul\":568:690   */\n    tag_72:\n        /* \"#utility.yul\":641:665   */\n      tag_133\n        /* \"#utility.yul\":659:664   */\n      dup2\n        /* \"#utility.yul\":641:665   */\n      tag_71\n      jump\t// in\n    tag_133:\n        /* \"#utility.yul\":634:639   */\n      dup2\n        /* \"#utility.yul\":631:666   */\n      eq\n        /* \"#utility.yul\":621:684   */\n      tag_134\n      jumpi\n        /* \"#utility.yul\":680:681   */\n      0x00\n        /* \"#utility.yul\":677:678   */\n      dup1\n        /* \"#utility.yul\":670:682   */\n      revert\n        /* \"#utility.yul\":621:684   */\n    tag_134:\n        /* \"#utility.yul\":568:690   */\n      pop\n      jump\t// out\n        /* \"#utility.yul\":696:835   */\n    tag_73:\n        /* \"#utility.yul\":742:747   */\n      0x00\n        /* \"#utility.yul\":780:786   */\n      dup2\n        /* \"#utility.yul\":767:787   */\n      calldataload\n        /* \"#utility.yul\":758:787   */\n      swap1\n      pop\n        /* \"#utility.yul\":796:829   */\n      tag_136\n        /* \"#utility.yul\":823:828   */\n      dup2\n        /* \"#utility.yul\":796:829   */\n      tag_72\n      jump\t// in\n    tag_136:\n        /* \"#utility.yul\":696:835   */\n      swap3\n      swap2\n      pop\n      pop\n      jump\t// out\n        /* \"#utility.yul\":841:918   */\n    tag_74:\n        /* \"#utility.yul\":878:885   */\n      0x00\n        /* \"#utility.yul\":907:912   */\n      dup2\n        /* \"#utility.yul\":896:912   */\n      swap1\n      pop\n        /* \"#utility.yul\":841:918   */\n      swap2\n      swap1\n      pop\n      jump\t// out\n        /* \"#utility.yul\":924:1046   */\n    tag_75:\n        /* \"#utility.yul\":997:1021   */\n      tag_139\n        /* \"#utility.yul\":1015:1020   */\n      dup2\n        /* \"#utility.yul\":997:1021   */\n      tag_74\n      jump\t// in\n    tag_139:\n        /* \"#utility.yul\":990:995   */\n      dup2\n        /* \"#utility.yul\":987:1022   */\n      eq\n        /* \"#utility.yul\":977:1040   */\n      tag_140\n      jumpi\n        /* \"#utility.yul\":1036:1037   */\n      0x00\n        /* \"#utility.yul\":1033:1034   */\n      dup1\n        /* \"#utility.yul\":1026:1038   */\n      revert\n        /* \"#utility.yul\":977:1040   */\n    tag_140:\n        /* \"#utility.yul\":924:1046   */\n      pop\n      jump\t// out\n        /* \"#utility.yul\":1052:1191   */\n    tag_76:\n        /* \"#utility.yul\":1098:1103   */\n      0x00\n        /* \"#utility.yul\":1136:1142   */\n      dup2\n        /* \"#utility.yul\":1123:1143   */\n      calldataload\n        /* \"#utility.yul\":1114:1143   */\n      swap1\n      pop\n        /* \"#utility.yul\":1152:1185   */\n      tag_142\n        /* \"#utility.yul\":1179:1184   */\n      dup2\n        /* \"#utility.yul\":1152:1185   */\n      tag_75\n      jump\t// in\n    tag_142:\n        /* \"#utility.yul\":1052:1191   */\n      swap3\n      swap2\n      pop\n      pop\n      jump\t// out\n        /* \"#utility.yul\":1197:1671   */\n    tag_9:\n        /* \"#utility.yul\":1265:1271   */\n      0x00\n        /* \"#utility.yul\":1273:1279   */\n      dup1\n        /* \"#utility.yul\":1322:1324   */\n      0x40\n        /* \"#utility.yul\":1310:1319   */\n      dup4\n        /* \"#utility.yul\":1301:1308   */\n      dup6\n        /* \"#utility.yul\":1297:1320   */\n      sub\n        /* \"#utility.yul\":1293:1325   */\n      slt\n        /* \"#utility.yul\":1290:1409   */\n      iszero\n      tag_144\n      jumpi\n        /* \"#utility.yul\":1328:1407   */\n      tag_145\n      tag_68\n      jump\t// in\n    tag_145:\n        /* \"#utility.yul\":1290:1409   */\n    tag_144:\n        /* \"#utility.yul\":1448:1449   */\n      0x00\n        /* \"#utility.yul\":1473:1526   */\n      tag_146\n        /* \"#utility.yul\":1518:1525   */\n      dup6\n        /* \"#utility.yul\":1509:1515   */\n      dup3\n        /* \"#utility.yul\":1498:1507   */\n      dup7\n        /* \"#utility.yul\":1494:1516   */\n      add\n        /* \"#utility.yul\":1473:1526   */\n      tag_73\n      jump\t// in\n    tag_146:\n        /* \"#utility.yul\":1463:1526   */\n      swap3\n      pop\n        /* \"#utility.yul\":1419:1536   */\n      pop\n        /* \"#utility.yul\":1575:1577   */\n      0x20\n        /* \"#utility.yul\":1601:1654   */\n      tag_147\n        /* \"#utility.yul\":1646:1653   */\n      dup6\n        /* \"#utility.yul\":1637:1643   */\n      dup3\n        /* \"#utility.yul\":1626:1635   */\n      dup7\n        /* \"#utility.yul\":1622:1644   */\n      add\n        /* \"#utility.yul\":1601:1654   */\n      tag_76\n      jump\t// in\n    tag_147:\n        /* \"#utility.yul\":1591:1654   */\n      swap2\n      pop\n        /* \"#utility.yul\":1546:1664   */\n      pop\n        /* \"#utility.yul\":1197:1671   */\n      swap3\n      pop\n      swap3\n      swap1\n      pop\n      jump\t// out\n        /* \"#utility.yul\":1677:1795   */\n    tag_77:\n        /* \"#utility.yul\":1764:1788   */\n      tag_149\n        /* \"#utility.yul\":1782:1787   */\n      dup2\n        /* \"#utility.yul\":1764:1788   */\n      tag_71\n      jump\t// in\n    tag_149:\n        /* \"#utility.yul\":1759:1762   */\n      dup3\n        /* \"#utility.yul\":1752:1789   */\n      mstore\n        /* \"#utility.yul\":1677:1795   */\n      pop\n      pop\n      jump\t// out\n        /* \"#utility.yul\":1801:1900   */\n    tag_78:\n        /* \"#utility.yul\":1853:1859   */\n      0x00\n        /* \"#utility.yul\":1887:1892   */\n      dup2\n        /* \"#utility.yul\":1881:1893   */\n      mload\n        /* \"#utility.yul\":1871:1893   */\n      swap1\n      pop\n        /* \"#utility.yul\":1801:1900   */\n      swap2\n      swap1\n      pop\n      jump\t// out\n        /* \"#utility.yul\":1906:2075   */\n    tag_79:\n        /* \"#utility.yul\":1990:2001   */\n      0x00\n        /* \"#utility.yul\":2024:2030   */\n      dup3\n        /* \"#utility.yul\":2019:2022   */\n      dup3\n        /* \"#utility.yul\":2012:2031   */\n      mstore\n        /* \"#utility.yul\":2064:2068   */\n      0x20\n        /* \"#utility.yul\":2059:2062   */\n      dup3\n        /* \"#utility.yul\":2055:2069   */\n      add\n        /* \"#utility.yul\":2040:2069   */\n      swap1\n      pop\n        /* \"#utility.yul\":1906:2075   */\n      swap3\n      swap2\n      pop\n      pop\n      jump\t// out\n        /* \"#utility.yul\":2081:2220   */\n    tag_80:\n        /* \"#utility.yul\":2170:2176   */\n      dup3\n        /* \"#utility.yul\":2165:2168   */\n      dup2\n        /* \"#utility.yul\":2160:2163   */\n      dup4\n        /* \"#utility.yul\":2154:2177   */\n      mcopy\n        /* \"#utility.yul\":2211:2212   */\n      0x00\n        /* \"#utility.yul\":2202:2208   */\n      dup4\n        /* \"#utility.yul\":2197:2200   */\n      dup4\n        /* \"#utility.yul\":2193:2209   */\n      add\n        /* \"#utility.yul\":2186:2213   */\n      mstore\n        /* \"#utility.yul\":2081:2220   */\n      pop\n      pop\n      pop\n      jump\t// out\n        /* \"#utility.yul\":2226:2328   */\n    tag_81:\n        /* \"#utility.yul\":2267:2273   */\n      0x00\n        /* \"#utility.yul\":2318:2320   */\n      0x1f\n        /* \"#utility.yul\":2314:2321   */\n      not\n        /* \"#utility.yul\":2309:2311   */\n      0x1f\n        /* \"#utility.yul\":2302:2307   */\n      dup4\n        /* \"#utility.yul\":2298:2312   */\n      add\n        /* \"#utility.yul\":2294:2322   */\n      and\n        /* \"#utility.yul\":2284:2322   */\n      swap1\n      pop\n        /* \"#utility.yul\":2226:2328   */\n      swap2\n      swap1\n      pop\n      jump\t// out\n        /* \"#utility.yul\":2334:2711   */\n    tag_82:\n        /* \"#utility.yul\":2422:2425   */\n      0x00\n        /* \"#utility.yul\":2450:2489   */\n      tag_155\n        /* \"#utility.yul\":2483:2488   */\n      dup3\n        /* \"#utility.yul\":2450:2489   */\n      tag_78\n      jump\t// in\n    tag_155:\n        /* \"#utility.yul\":2505:2576   */\n      tag_156\n        /* \"#utility.yul\":2569:2575   */\n      dup2\n        /* \"#utility.yul\":2564:2567   */\n      dup6\n        /* \"#utility.yul\":2505:2576   */\n      tag_79\n      jump\t// in\n    tag_156:\n        /* \"#utility.yul\":2498:2576   */\n      swap4\n      pop\n        /* \"#utility.yul\":2585:2650   */\n      tag_157\n        /* \"#utility.yul\":2643:2649   */\n      dup2\n        /* \"#utility.yul\":2638:2641   */\n      dup6\n        /* \"#utility.yul\":2631:2635   */\n      0x20\n        /* \"#utility.yul\":2624:2629   */\n      dup7\n        /* \"#utility.yul\":2620:2636   */\n      add\n        /* \"#utility.yul\":2585:2650   */\n      tag_80\n      jump\t// in\n    tag_157:\n        /* \"#utility.yul\":2675:2704   */\n      tag_158\n        /* \"#utility.yul\":2697:2703   */\n      dup2\n        /* \"#utility.yul\":2675:2704   */\n      tag_81\n      jump\t// in\n    tag_158:\n        /* \"#utility.yul\":2670:2673   */\n      dup5\n        /* \"#utility.yul\":2666:2705   */\n      add\n        /* \"#utility.yul\":2659:2705   */\n      swap2\n      pop\n        /* \"#utility.yul\":2426:2711   */\n      pop\n        /* \"#utility.yul\":2334:2711   */\n      swap3\n      swap2\n      pop\n      pop\n      jump\t// out\n        /* \"#utility.yul\":2717:2835   */\n    tag_83:\n        /* \"#utility.yul\":2804:2828   */\n      tag_160\n        /* \"#utility.yul\":2822:2827   */\n      dup2\n        /* \"#utility.yul\":2804:2828   */\n      tag_74\n      jump\t// in\n    tag_160:\n        /* \"#utility.yul\":2799:2802   */\n      dup3\n        /* \"#utility.yul\":2792:2829   */\n      mstore\n        /* \"#utility.yul\":2717:2835   */\n      pop\n      pop\n      jump\t// out\n        /* \"#utility.yul\":2841:3485   */\n    tag_12:\n        /* \"#utility.yul\":3038:3042   */\n      0x00\n        /* \"#utility.yul\":3076:3079   */\n      0x80\n        /* \"#utility.yul\":3065:3074   */\n      dup3\n        /* \"#utility.yul\":3061:3080   */\n      add\n        /* \"#utility.yul\":3053:3080   */\n      swap1\n      pop\n        /* \"#utility.yul\":3090:3161   */\n      tag_162\n        /* \"#utility.yul\":3158:3159   */\n      0x00\n        /* \"#utility.yul\":3147:3156   */\n      dup4\n        /* \"#utility.yul\":3143:3160   */\n      add\n        /* \"#utility.yul\":3134:3140   */\n      dup8\n        /* \"#utility.yul\":3090:3161   */\n      tag_77\n      jump\t// in\n    tag_162:\n        /* \"#utility.yul\":3208:3217   */\n      dup2\n        /* \"#utility.yul\":3202:3206   */\n      dup2\n        /* \"#utility.yul\":3198:3218   */\n      sub\n        /* \"#utility.yul\":3193:3195   */\n      0x20\n        /* \"#utility.yul\":3182:3191   */\n      dup4\n        /* \"#utility.yul\":3178:3196   */\n      add\n        /* \"#utility.yul\":3171:3219   */\n      mstore\n        /* \"#utility.yul\":3236:3314   */\n      tag_163\n        /* \"#utility.yul\":3309:3313   */\n      dup2\n        /* \"#utility.yul\":3300:3306   */\n      dup7\n        /* \"#utility.yul\":3236:3314   */\n      tag_82\n      jump\t// in\n    tag_163:\n        /* \"#utility.yul\":3228:3314   */\n      swap1\n      pop\n        /* \"#utility.yul\":3324:3396   */\n      tag_164\n        /* \"#utility.yul\":3392:3394   */\n      0x40\n        /* \"#utility.yul\":3381:3390   */\n      dup4\n        /* \"#utility.yul\":3377:3395   */\n      add\n        /* \"#utility.yul\":3368:3374   */\n      dup6\n        /* \"#utility.yul\":3324:3396   */\n      tag_83\n      jump\t// in\n    tag_164:\n        /* \"#utility.yul\":3406:3478   */\n      tag_165\n        /* \"#utility.yul\":3474:3476   */\n      0x60\n        /* \"#utility.yul\":3463:3472   */\n      dup4\n        /* \"#utility.yul\":3459:3477   */\n      add\n        /* \"#utility.yul\":3450:3456   */\n      dup5\n        /* \"#utility.yul\":3406:3478   */\n      tag_83\n      jump\t// in\n    tag_165:\n        /* \"#utility.yul\":2841:3485   */\n      swap6\n      swap5\n      pop\n      pop\n      pop\n      pop\n      pop\n      jump\t// out\n        /* \"#utility.yul\":3491:3820   */\n    tag_15:\n        /* \"#utility.yul\":3550:3556   */\n      0x00\n        /* \"#utility.yul\":3599:3601   */\n      0x20\n        /* \"#utility.yul\":3587:3596   */\n      dup3\n        /* \"#utility.yul\":3578:3585   */\n      dup5\n        /* \"#utility.yul\":3574:3597   */\n      sub\n        /* \"#utility.yul\":3570:3602   */\n      slt\n        /* \"#utility.yul\":3567:3686   */\n      iszero\n      tag_167\n      jumpi\n        /* \"#utility.yul\":3605:3684   */\n      tag_168\n      tag_68\n      jump\t// in\n    tag_168:\n        /* \"#utility.yul\":3567:3686   */\n    tag_167:\n        /* \"#utility.yul\":3725:3726   */\n      0x00\n        /* \"#utility.yul\":3750:3803   */\n      tag_169\n        /* \"#utility.yul\":3795:3802   */\n      dup5\n        /* \"#utility.yul\":3786:3792   */\n      dup3\n        /* \"#utility.yul\":3775:3784   */\n      dup6\n        /* \"#utility.yul\":3771:3793   */\n      add\n        /* \"#utility.yul\":3750:3803   */\n      tag_73\n      jump\t// in\n    tag_169:\n        /* \"#utility.yul\":3740:3803   */\n      swap2\n      pop\n        /* \"#utility.yul\":3696:3813   */\n      pop\n        /* \"#utility.yul\":3491:3820   */\n      swap3\n      swap2\n      pop\n      pop\n      jump\t// out\n        /* \"#utility.yul\":3826:3961   */\n    tag_84:\n        /* \"#utility.yul\":3914:3920   */\n      0x00\n        /* \"#utility.yul\":3948:3953   */\n      dup2\n        /* \"#utility.yul\":3942:3954   */\n      mload\n        /* \"#utility.yul\":3932:3954   */\n      swap1\n      pop\n        /* \"#utility.yul\":3826:3961   */\n      swap2\n      swap1\n      pop\n      jump\t// out\n        /* \"#utility.yul\":3967:4172   */\n    tag_85:\n        /* \"#utility.yul\":4087:4098   */\n      0x00\n        /* \"#utility.yul\":4121:4127   */\n      dup3\n        /* \"#utility.yul\":4116:4119   */\n      dup3\n        /* \"#utility.yul\":4109:4128   */\n      mstore\n        /* \"#utility.yul\":4161:4165   */\n      0x20\n        /* \"#utility.yul\":4156:4159   */\n      dup3\n        /* \"#utility.yul\":4152:4166   */\n      add\n        /* \"#utility.yul\":4137:4166   */\n      swap1\n      pop\n        /* \"#utility.yul\":3967:4172   */\n      swap3\n      swap2\n      pop\n      pop\n      jump\t// out\n        /* \"#utility.yul\":4178:4331   */\n    tag_86:\n        /* \"#utility.yul\":4266:4270   */\n      0x00\n        /* \"#utility.yul\":4289:4292   */\n      dup2\n        /* \"#utility.yul\":4281:4292   */\n      swap1\n      pop\n        /* \"#utility.yul\":4319:4323   */\n      0x20\n        /* \"#utility.yul\":4314:4317   */\n      dup3\n        /* \"#utility.yul\":4310:4324   */\n      add\n        /* \"#utility.yul\":4302:4324   */\n      swap1\n      pop\n        /* \"#utility.yul\":4178:4331   */\n      swap2\n      swap1\n      pop\n      jump\t// out\n        /* \"#utility.yul\":4337:4445   */\n    tag_87:\n        /* \"#utility.yul\":4414:4438   */\n      tag_174\n        /* \"#utility.yul\":4432:4437   */\n      dup2\n        /* \"#utility.yul\":4414:4438   */\n      tag_71\n      jump\t// in\n    tag_174:\n        /* \"#utility.yul\":4409:4412   */\n      dup3\n        /* \"#utility.yul\":4402:4439   */\n      mstore\n        /* \"#utility.yul\":4337:4445   */\n      pop\n      pop\n      jump\t// out\n        /* \"#utility.yul\":4451:4610   */\n    tag_88:\n        /* \"#utility.yul\":4525:4536   */\n      0x00\n        /* \"#utility.yul\":4559:4565   */\n      dup3\n        /* \"#utility.yul\":4554:4557   */\n      dup3\n        /* \"#utility.yul\":4547:4566   */\n      mstore\n        /* \"#utility.yul\":4599:4603   */\n      0x20\n        /* \"#utility.yul\":4594:4597   */\n      dup3\n        /* \"#utility.yul\":4590:4604   */\n      add\n        /* \"#utility.yul\":4575:4604   */\n      swap1\n      pop\n        /* \"#utility.yul\":4451:4610   */\n      swap3\n      swap2\n      pop\n      pop\n      jump\t// out\n        /* \"#utility.yul\":4616:4973   */\n    tag_89:\n        /* \"#utility.yul\":4694:4697   */\n      0x00\n        /* \"#utility.yul\":4722:4761   */\n      tag_177\n        /* \"#utility.yul\":4755:4760   */\n      dup3\n        /* \"#utility.yul\":4722:4761   */\n      tag_78\n      jump\t// in\n    tag_177:\n        /* \"#utility.yul\":4777:4838   */\n      tag_178\n        /* \"#utility.yul\":4831:4837   */\n      dup2\n        /* \"#utility.yul\":4826:4829   */\n      dup6\n        /* \"#utility.yul\":4777:4838   */\n      tag_88\n      jump\t// in\n    tag_178:\n        /* \"#utility.yul\":4770:4838   */\n      swap4\n      pop\n        /* \"#utility.yul\":4847:4912   */\n      tag_179\n        /* \"#utility.yul\":4905:4911   */\n      dup2\n        /* \"#utility.yul\":4900:4903   */\n      dup6\n        /* \"#utility.yul\":4893:4897   */\n      0x20\n        /* \"#utility.yul\":4886:4891   */\n      dup7\n        /* \"#utility.yul\":4882:4898   */\n      add\n        /* \"#utility.yul\":4847:4912   */\n      tag_80\n      jump\t// in\n    tag_179:\n        /* \"#utility.yul\":4937:4966   */\n      tag_180\n        /* \"#utility.yul\":4959:4965   */\n      dup2\n        /* \"#utility.yul\":4937:4966   */\n      tag_81\n      jump\t// in\n    tag_180:\n        /* \"#utility.yul\":4932:4935   */\n      dup5\n        /* \"#utility.yul\":4928:4967   */\n      add\n        /* \"#utility.yul\":4921:4967   */\n      swap2\n      pop\n        /* \"#utility.yul\":4698:4973   */\n      pop\n        /* \"#utility.yul\":4616:4973   */\n      swap3\n      swap2\n      pop\n      pop\n      jump\t// out\n        /* \"#utility.yul\":4979:5087   */\n    tag_90:\n        /* \"#utility.yul\":5056:5080   */\n      tag_182\n        /* \"#utility.yul\":5074:5079   */\n      dup2\n        /* \"#utility.yul\":5056:5080   */\n      tag_74\n      jump\t// in\n    tag_182:\n        /* \"#utility.yul\":5051:5054   */\n      dup3\n        /* \"#utility.yul\":5044:5081   */\n      mstore\n        /* \"#utility.yul\":4979:5087   */\n      pop\n      pop\n      jump\t// out\n        /* \"#utility.yul\":5145:6092   */\n    tag_91:\n        /* \"#utility.yul\":5246:5249   */\n      0x00\n        /* \"#utility.yul\":5282:5286   */\n      0x80\n        /* \"#utility.yul\":5277:5280   */\n      dup4\n        /* \"#utility.yul\":5273:5287   */\n      add\n        /* \"#utility.yul\":5371:5375   */\n      0x00\n        /* \"#utility.yul\":5364:5369   */\n      dup4\n        /* \"#utility.yul\":5360:5376   */\n      add\n        /* \"#utility.yul\":5354:5377   */\n      mload\n        /* \"#utility.yul\":5390:5453   */\n      tag_184\n        /* \"#utility.yul\":5447:5451   */\n      0x00\n        /* \"#utility.yul\":5442:5445   */\n      dup7\n        /* \"#utility.yul\":5438:5452   */\n      add\n        /* \"#utility.yul\":5424:5436   */\n      dup3\n        /* \"#utility.yul\":5390:5453   */\n      tag_87\n      jump\t// in\n    tag_184:\n        /* \"#utility.yul\":5297:5463   */\n      pop\n        /* \"#utility.yul\":5548:5552   */\n      0x20\n        /* \"#utility.yul\":5541:5546   */\n      dup4\n        /* \"#utility.yul\":5537:5553   */\n      add\n        /* \"#utility.yul\":5531:5554   */\n      mload\n        /* \"#utility.yul\":5601:5604   */\n      dup5\n        /* \"#utility.yul\":5595:5599   */\n      dup3\n        /* \"#utility.yul\":5591:5605   */\n      sub\n        /* \"#utility.yul\":5584:5588   */\n      0x20\n        /* \"#utility.yul\":5579:5582   */\n      dup7\n        /* \"#utility.yul\":5575:5589   */\n      add\n        /* \"#utility.yul\":5568:5606   */\n      mstore\n        /* \"#utility.yul\":5627:5700   */\n      tag_185\n        /* \"#utility.yul\":5695:5699   */\n      dup3\n        /* \"#utility.yul\":5681:5693   */\n      dup3\n        /* \"#utility.yul\":5627:5700   */\n      tag_89\n      jump\t// in\n    tag_185:\n        /* \"#utility.yul\":5619:5700   */\n      swap2\n      pop\n        /* \"#utility.yul\":5473:5711   */\n      pop\n        /* \"#utility.yul\":5798:5802   */\n      0x40\n        /* \"#utility.yul\":5791:5796   */\n      dup4\n        /* \"#utility.yul\":5787:5803   */\n      add\n        /* \"#utility.yul\":5781:5804   */\n      mload\n        /* \"#utility.yul\":5817:5880   */\n      tag_186\n        /* \"#utility.yul\":5874:5878   */\n      0x40\n        /* \"#utility.yul\":5869:5872   */\n      dup7\n        /* \"#utility.yul\":5865:5879   */\n      add\n        /* \"#utility.yul\":5851:5863   */\n      dup3\n        /* \"#utility.yul\":5817:5880   */\n      tag_90\n      jump\t// in\n    tag_186:\n        /* \"#utility.yul\":5721:5890   */\n      pop\n        /* \"#utility.yul\":5973:5977   */\n      0x60\n        /* \"#utility.yul\":5966:5971   */\n      dup4\n        /* \"#utility.yul\":5962:5978   */\n      add\n        /* \"#utility.yul\":5956:5979   */\n      mload\n        /* \"#utility.yul\":5992:6055   */\n      tag_187\n        /* \"#utility.yul\":6049:6053   */\n      0x60\n        /* \"#utility.yul\":6044:6047   */\n      dup7\n        /* \"#utility.yul\":6040:6054   */\n      add\n        /* \"#utility.yul\":6026:6038   */\n      dup3\n        /* \"#utility.yul\":5992:6055   */\n      tag_90\n      jump\t// in\n    tag_187:\n        /* \"#utility.yul\":5900:6065   */\n      pop\n        /* \"#utility.yul\":6082:6086   */\n      dup1\n        /* \"#utility.yul\":6075:6086   */\n      swap2\n      pop\n        /* \"#utility.yul\":5251:6092   */\n      pop\n        /* \"#utility.yul\":5145:6092   */\n      swap3\n      swap2\n      pop\n      pop\n      jump\t// out\n        /* \"#utility.yul\":6098:6338   */\n    tag_92:\n        /* \"#utility.yul\":6209:6219   */\n      0x00\n        /* \"#utility.yul\":6244:6332   */\n      tag_189\n        /* \"#utility.yul\":6328:6331   */\n      dup4\n        /* \"#utility.yul\":6320:6326   */\n      dup4\n        /* \"#utility.yul\":6244:6332   */\n      tag_91\n      jump\t// in\n    tag_189:\n        /* \"#utility.yul\":6230:6332   */\n      swap1\n      pop\n        /* \"#utility.yul\":6098:6338   */\n      swap3\n      swap2\n      pop\n      pop\n      jump\t// out\n        /* \"#utility.yul\":6344:6478   */\n    tag_93:\n        /* \"#utility.yul\":6435:6439   */\n      0x00\n        /* \"#utility.yul\":6467:6471   */\n      0x20\n        /* \"#utility.yul\":6462:6465   */\n      dup3\n        /* \"#utility.yul\":6458:6472   */\n      add\n        /* \"#utility.yul\":6450:6472   */\n      swap1\n      pop\n        /* \"#utility.yul\":6344:6478   */\n      swap2\n      swap1\n      pop\n      jump\t// out\n        /* \"#utility.yul\":6540:7619   */\n    tag_94:\n        /* \"#utility.yul\":6701:6704   */\n      0x00\n        /* \"#utility.yul\":6730:6805   */\n      tag_192\n        /* \"#utility.yul\":6799:6804   */\n      dup3\n        /* \"#utility.yul\":6730:6805   */\n      tag_84\n      jump\t// in\n    tag_192:\n        /* \"#utility.yul\":6821:6928   */\n      tag_193\n        /* \"#utility.yul\":6921:6927   */\n      dup2\n        /* \"#utility.yul\":6916:6919   */\n      dup6\n        /* \"#utility.yul\":6821:6928   */\n      tag_85\n      jump\t// in\n    tag_193:\n        /* \"#utility.yul\":6814:6928   */\n      swap4\n      pop\n        /* \"#utility.yul\":6954:6957   */\n      dup4\n        /* \"#utility.yul\":6999:7003   */\n      0x20\n        /* \"#utility.yul\":6991:6997   */\n      dup3\n        /* \"#utility.yul\":6987:7004   */\n      mul\n        /* \"#utility.yul\":6982:6985   */\n      dup6\n        /* \"#utility.yul\":6978:7005   */\n      add\n        /* \"#utility.yul\":7029:7106   */\n      tag_194\n        /* \"#utility.yul\":7100:7105   */\n      dup6\n        /* \"#utility.yul\":7029:7106   */\n      tag_86\n      jump\t// in\n    tag_194:\n        /* \"#utility.yul\":7129:7136   */\n      dup1\n        /* \"#utility.yul\":7160:7161   */\n      0x00\n        /* \"#utility.yul\":7145:7574   */\n    tag_195:\n        /* \"#utility.yul\":7170:7176   */\n      dup6\n        /* \"#utility.yul\":7167:7168   */\n      dup2\n        /* \"#utility.yul\":7164:7177   */\n      lt\n        /* \"#utility.yul\":7145:7574   */\n      iszero\n      tag_197\n      jumpi\n        /* \"#utility.yul\":7241:7250   */\n      dup5\n        /* \"#utility.yul\":7235:7239   */\n      dup5\n        /* \"#utility.yul\":7231:7251   */\n      sub\n        /* \"#utility.yul\":7226:7229   */\n      dup10\n        /* \"#utility.yul\":7219:7252   */\n      mstore\n        /* \"#utility.yul\":7292:7298   */\n      dup2\n        /* \"#utility.yul\":7286:7299   */\n      mload\n        /* \"#utility.yul\":7320:7426   */\n      tag_198\n        /* \"#utility.yul\":7421:7425   */\n      dup6\n        /* \"#utility.yul\":7406:7419   */\n      dup3\n        /* \"#utility.yul\":7320:7426   */\n      tag_92\n      jump\t// in\n    tag_198:\n        /* \"#utility.yul\":7312:7426   */\n      swap5\n      pop\n        /* \"#utility.yul\":7449:7530   */\n      tag_199\n        /* \"#utility.yul\":7523:7529   */\n      dup4\n        /* \"#utility.yul\":7449:7530   */\n      tag_93\n      jump\t// in\n    tag_199:\n        /* \"#utility.yul\":7439:7530   */\n      swap3\n      pop\n        /* \"#utility.yul\":7559:7563   */\n      0x20\n        /* \"#utility.yul\":7554:7557   */\n      dup11\n        /* \"#utility.yul\":7550:7564   */\n      add\n        /* \"#utility.yul\":7543:7564   */\n      swap10\n      pop\n        /* \"#utility.yul\":7205:7574   */\n      pop\n        /* \"#utility.yul\":7192:7193   */\n      0x01\n        /* \"#utility.yul\":7189:7190   */\n      dup2\n        /* \"#utility.yul\":7185:7194   */\n      add\n        /* \"#utility.yul\":7180:7194   */\n      swap1\n      pop\n        /* \"#utility.yul\":7145:7574   */\n      jump(tag_195)\n    tag_197:\n        /* \"#utility.yul\":7149:7163   */\n      pop\n        /* \"#utility.yul\":7590:7594   */\n      dup3\n        /* \"#utility.yul\":7583:7594   */\n      swap8\n      pop\n        /* \"#utility.yul\":7610:7613   */\n      dup8\n        /* \"#utility.yul\":7603:7613   */\n      swap6\n      pop\n        /* \"#utility.yul\":6706:7619   */\n      pop\n      pop\n      pop\n      pop\n      pop\n        /* \"#utility.yul\":6540:7619   */\n      swap3\n      swap2\n      pop\n      pop\n      jump\t// out\n        /* \"#utility.yul\":7625:8082   */\n    tag_18:\n        /* \"#utility.yul\":7810:7814   */\n      0x00\n        /* \"#utility.yul\":7848:7850   */\n      0x20\n        /* \"#utility.yul\":7837:7846   */\n      dup3\n        /* \"#utility.yul\":7833:7851   */\n      add\n        /* \"#utility.yul\":7825:7851   */\n      swap1\n      pop\n        /* \"#utility.yul\":7897:7906   */\n      dup2\n        /* \"#utility.yul\":7891:7895   */\n      dup2\n        /* \"#utility.yul\":7887:7907   */\n      sub\n        /* \"#utility.yul\":7883:7884   */\n      0x00\n        /* \"#utility.yul\":7872:7881   */\n      dup4\n        /* \"#utility.yul\":7868:7885   */\n      add\n        /* \"#utility.yul\":7861:7908   */\n      mstore\n        /* \"#utility.yul\":7925:8075   */\n      tag_201\n        /* \"#utility.yul\":8070:8074   */\n      dup2\n        /* \"#utility.yul\":8061:8067   */\n      dup5\n        /* \"#utility.yul\":7925:8075   */\n      tag_94\n      jump\t// in\n    tag_201:\n        /* \"#utility.yul\":7917:8075   */\n      swap1\n      pop\n        /* \"#utility.yul\":7625:8082   */\n      swap3\n      swap2\n      pop\n      pop\n      jump\t// out\n        /* \"#utility.yul\":8140:9097   */\n    tag_95:\n        /* \"#utility.yul\":8251:8254   */\n      0x00\n        /* \"#utility.yul\":8287:8291   */\n      0x80\n        /* \"#utility.yul\":8282:8285   */\n      dup4\n        /* \"#utility.yul\":8278:8292   */\n      add\n        /* \"#utility.yul\":8376:8380   */\n      0x00\n        /* \"#utility.yul\":8369:8374   */\n      dup4\n        /* \"#utility.yul\":8365:8381   */\n      add\n        /* \"#utility.yul\":8359:8382   */\n      mload\n        /* \"#utility.yul\":8395:8458   */\n      tag_203\n        /* \"#utility.yul\":8452:8456   */\n      0x00\n        /* \"#utility.yul\":8447:8450   */\n      dup7\n        /* \"#utility.yul\":8443:8457   */\n      add\n        /* \"#utility.yul\":8429:8441   */\n      dup3\n        /* \"#utility.yul\":8395:8458   */\n      tag_87\n      jump\t// in\n    tag_203:\n        /* \"#utility.yul\":8302:8468   */\n      pop\n        /* \"#utility.yul\":8553:8557   */\n      0x20\n        /* \"#utility.yul\":8546:8551   */\n      dup4\n        /* \"#utility.yul\":8542:8558   */\n      add\n        /* \"#utility.yul\":8536:8559   */\n      mload\n        /* \"#utility.yul\":8606:8609   */\n      dup5\n        /* \"#utility.yul\":8600:8604   */\n      dup3\n        /* \"#utility.yul\":8596:8610   */\n      sub\n        /* \"#utility.yul\":8589:8593   */\n      0x20\n        /* \"#utility.yul\":8584:8587   */\n      dup7\n        /* \"#utility.yul\":8580:8594   */\n      add\n        /* \"#utility.yul\":8573:8611   */\n      mstore\n        /* \"#utility.yul\":8632:8705   */\n      tag_204\n        /* \"#utility.yul\":8700:8704   */\n      dup3\n        /* \"#utility.yul\":8686:8698   */\n      dup3\n        /* \"#utility.yul\":8632:8705   */\n      tag_89\n      jump\t// in\n    tag_204:\n        /* \"#utility.yul\":8624:8705   */\n      swap2\n      pop\n        /* \"#utility.yul\":8478:8716   */\n      pop\n        /* \"#utility.yul\":8803:8807   */\n      0x40\n        /* \"#utility.yul\":8796:8801   */\n      dup4\n        /* \"#utility.yul\":8792:8808   */\n      add\n        /* \"#utility.yul\":8786:8809   */\n      mload\n        /* \"#utility.yul\":8822:8885   */\n      tag_205\n        /* \"#utility.yul\":8879:8883   */\n      0x40\n        /* \"#utility.yul\":8874:8877   */\n      dup7\n        /* \"#utility.yul\":8870:8884   */\n      add\n        /* \"#utility.yul\":8856:8868   */\n      dup3\n        /* \"#utility.yul\":8822:8885   */\n      tag_90\n      jump\t// in\n    tag_205:\n        /* \"#utility.yul\":8726:8895   */\n      pop\n        /* \"#utility.yul\":8978:8982   */\n      0x60\n        /* \"#utility.yul\":8971:8976   */\n      dup4\n        /* \"#utility.yul\":8967:8983   */\n      add\n        /* \"#utility.yul\":8961:8984   */\n      mload\n        /* \"#utility.yul\":8997:9060   */\n      tag_206\n        /* \"#utility.yul\":9054:9058   */\n      0x60\n        /* \"#utility.yul\":9049:9052   */\n      dup7\n        /* \"#utility.yul\":9045:9059   */\n      add\n        /* \"#utility.yul\":9031:9043   */\n      dup3\n        /* \"#utility.yul\":8997:9060   */\n      tag_90\n      jump\t// in\n    tag_206:\n        /* \"#utility.yul\":8905:9070   */\n      pop\n        /* \"#utility.yul\":9087:9091   */\n      dup1\n        /* \"#utility.yul\":9080:9091   */\n      swap2\n      pop\n        /* \"#utility.yul\":8256:9097   */\n      pop\n        /* \"#utility.yul\":8140:9097   */\n      swap3\n      swap2\n      pop\n      pop\n      jump\t// out\n        /* \"#utility.yul\":9103:9460   */\n    tag_23:\n        /* \"#utility.yul\":9238:9242   */\n      0x00\n        /* \"#utility.yul\":9276:9278   */\n      0x20\n        /* \"#utility.yul\":9265:9274   */\n      dup3\n        /* \"#utility.yul\":9261:9279   */\n      add\n        /* \"#utility.yul\":9253:9279   */\n      swap1\n      pop\n        /* \"#utility.yul\":9325:9334   */\n      dup2\n        /* \"#utility.yul\":9319:9323   */\n      dup2\n        /* \"#utility.yul\":9315:9335   */\n      sub\n        /* \"#utility.yul\":9311:9312   */\n      0x00\n        /* \"#utility.yul\":9300:9309   */\n      dup4\n        /* \"#utility.yul\":9296:9313   */\n      add\n        /* \"#utility.yul\":9289:9336   */\n      mstore\n        /* \"#utility.yul\":9353:9453   */\n      tag_208\n        /* \"#utility.yul\":9448:9452   */\n      dup2\n        /* \"#utility.yul\":9439:9445   */\n      dup5\n        /* \"#utility.yul\":9353:9453   */\n      tag_95\n      jump\t// in\n    tag_208:\n        /* \"#utility.yul\":9345:9453   */\n      swap1\n      pop\n        /* \"#utility.yul\":9103:9460   */\n      swap3\n      swap2\n      pop\n      pop\n      jump\t// out\n        /* \"#utility.yul\":9466:9583   */\n    tag_96:\n        /* \"#utility.yul\":9575:9576   */\n      0x00\n        /* \"#utility.yul\":9572:9573   */\n      dup1\n        /* \"#utility.yul\":9565:9577   */\n      revert\n        /* \"#utility.yul\":9589:9706   */\n    tag_97:\n        /* \"#utility.yul\":9698:9699   */\n      0x00\n        /* \"#utility.yul\":9695:9696   */\n      dup1\n        /* \"#utility.yul\":9688:9700   */\n      revert\n        /* \"#utility.yul\":9712:9892   */\n    tag_98:\n        /* \"#utility.yul\":9760:9837   */\n      0x4e487b7100000000000000000000000000000000000000000000000000000000\n        /* \"#utility.yul\":9757:9758   */\n      0x00\n        /* \"#utility.yul\":9750:9838   */\n      mstore\n        /* \"#utility.yul\":9857:9861   */\n      0x41\n        /* \"#utility.yul\":9854:9855   */\n      0x04\n        /* \"#utility.yul\":9847:9862   */\n      mstore\n        /* \"#utility.yul\":9881:9885   */\n      0x24\n        /* \"#utility.yul\":9878:9879   */\n      0x00\n        /* \"#utility.yul\":9871:9886   */\n      revert\n        /* \"#utility.yul\":9898:10179   */\n    tag_99:\n        /* \"#utility.yul\":9981:10008   */\n      tag_213\n        /* \"#utility.yul\":10003:10007   */\n      dup3\n        /* \"#utility.yul\":9981:10008   */\n      tag_81\n      jump\t// in\n    tag_213:\n        /* \"#utility.yul\":9973:9979   */\n      dup2\n        /* \"#utility.yul\":9969:10009   */\n      add\n        /* \"#utility.yul\":10111:10117   */\n      dup2\n        /* \"#utility.yul\":10099:10109   */\n      dup2\n        /* \"#utility.yul\":10096:10118   */\n      lt\n        /* \"#utility.yul\":10075:10093   */\n      0xffffffffffffffff\n        /* \"#utility.yul\":10063:10073   */\n      dup3\n        /* \"#utility.yul\":10060:10094   */\n      gt\n        /* \"#utility.yul\":10057:10119   */\n      or\n        /* \"#utility.yul\":10054:10142   */\n      iszero\n      tag_214\n      jumpi\n        /* \"#utility.yul\":10122:10140   */\n      tag_215\n      tag_98\n      jump\t// in\n    tag_215:\n        /* \"#utility.yul\":10054:10142   */\n    tag_214:\n        /* \"#utility.yul\":10162:10172   */\n      dup1\n        /* \"#utility.yul\":10158:10160   */\n      0x40\n        /* \"#utility.yul\":10151:10173   */\n      mstore\n        /* \"#utility.yul\":9941:10179   */\n      pop\n        /* \"#utility.yul\":9898:10179   */\n      pop\n      pop\n      jump\t// out\n        /* \"#utility.yul\":10185:10314   */\n    tag_100:\n        /* \"#utility.yul\":10219:10225   */\n      0x00\n        /* \"#utility.yul\":10246:10266   */\n      tag_217\n      tag_67\n      jump\t// in\n    tag_217:\n        /* \"#utility.yul\":10236:10266   */\n      swap1\n      pop\n        /* \"#utility.yul\":10275:10308   */\n      tag_218\n        /* \"#utility.yul\":10303:10307   */\n      dup3\n        /* \"#utility.yul\":10295:10301   */\n      dup3\n        /* \"#utility.yul\":10275:10308   */\n      tag_99\n      jump\t// in\n    tag_218:\n        /* \"#utility.yul\":10185:10314   */\n      swap2\n      swap1\n      pop\n      jump\t// out\n        /* \"#utility.yul\":10320:10628   */\n    tag_101:\n        /* \"#utility.yul\":10382:10386   */\n      0x00\n        /* \"#utility.yul\":10472:10490   */\n      0xffffffffffffffff\n        /* \"#utility.yul\":10464:10470   */\n      dup3\n        /* \"#utility.yul\":10461:10491   */\n      gt\n        /* \"#utility.yul\":10458:10514   */\n      iszero\n      tag_220\n      jumpi\n        /* \"#utility.yul\":10494:10512   */\n      tag_221\n      tag_98\n      jump\t// in\n    tag_221:\n        /* \"#utility.yul\":10458:10514   */\n    tag_220:\n        /* \"#utility.yul\":10532:10561   */\n      tag_222\n        /* \"#utility.yul\":10554:10560   */\n      dup3\n        /* \"#utility.yul\":10532:10561   */\n      tag_81\n      jump\t// in\n    tag_222:\n        /* \"#utility.yul\":10524:10561   */\n      swap1\n      pop\n        /* \"#utility.yul\":10616:10620   */\n      0x20\n        /* \"#utility.yul\":10610:10614   */\n      dup2\n        /* \"#utility.yul\":10606:10621   */\n      add\n        /* \"#utility.yul\":10598:10621   */\n      swap1\n      pop\n        /* \"#utility.yul\":10320:10628   */\n      swap2\n      swap1\n      pop\n      jump\t// out\n        /* \"#utility.yul\":10634:10782   */\n    tag_102:\n        /* \"#utility.yul\":10732:10738   */\n      dup3\n        /* \"#utility.yul\":10727:10730   */\n      dup2\n        /* \"#utility.yul\":10722:10725   */\n      dup4\n        /* \"#utility.yul\":10709:10739   */\n      calldatacopy\n        /* \"#utility.yul\":10773:10774   */\n      0x00\n        /* \"#utility.yul\":10764:10770   */\n      dup4\n        /* \"#utility.yul\":10759:10762   */\n      dup4\n        /* \"#utility.yul\":10755:10771   */\n      add\n        /* \"#utility.yul\":10748:10775   */\n      mstore\n        /* \"#utility.yul\":10634:10782   */\n      pop\n      pop\n      pop\n      jump\t// out\n        /* \"#utility.yul\":10788:11213   */\n    tag_103:\n        /* \"#utility.yul\":10866:10871   */\n      0x00\n        /* \"#utility.yul\":10891:10957   */\n      tag_225\n        /* \"#utility.yul\":10907:10956   */\n      tag_226\n        /* \"#utility.yul\":10949:10955   */\n      dup5\n        /* \"#utility.yul\":10907:10956   */\n      tag_101\n      jump\t// in\n    tag_226:\n        /* \"#utility.yul\":10891:10957   */\n      tag_100\n      jump\t// in\n    tag_225:\n        /* \"#utility.yul\":10882:10957   */\n      swap1\n      pop\n        /* \"#utility.yul\":10980:10986   */\n      dup3\n        /* \"#utility.yul\":10973:10978   */\n      dup2\n        /* \"#utility.yul\":10966:10987   */\n      mstore\n        /* \"#utility.yul\":11018:11022   */\n      0x20\n        /* \"#utility.yul\":11011:11016   */\n      dup2\n        /* \"#utility.yul\":11007:11023   */\n      add\n        /* \"#utility.yul\":11056:11059   */\n      dup5\n        /* \"#utility.yul\":11047:11053   */\n      dup5\n        /* \"#utility.yul\":11042:11045   */\n      dup5\n        /* \"#utility.yul\":11038:11054   */\n      add\n        /* \"#utility.yul\":11035:11060   */\n      gt\n        /* \"#utility.yul\":11032:11144   */\n      iszero\n      tag_227\n      jumpi\n        /* \"#utility.yul\":11063:11142   */\n      tag_228\n      tag_97\n      jump\t// in\n    tag_228:\n        /* \"#utility.yul\":11032:11144   */\n    tag_227:\n        /* \"#utility.yul\":11153:11207   */\n      tag_229\n        /* \"#utility.yul\":11200:11206   */\n      dup5\n        /* \"#utility.yul\":11195:11198   */\n      dup3\n        /* \"#utility.yul\":11190:11193   */\n      dup6\n        /* \"#utility.yul\":11153:11207   */\n      tag_102\n      jump\t// in\n    tag_229:\n        /* \"#utility.yul\":10872:11213   */\n      pop\n        /* \"#utility.yul\":10788:11213   */\n      swap4\n      swap3\n      pop\n      pop\n      pop\n      jump\t// out\n        /* \"#utility.yul\":11233:11573   */\n    tag_104:\n        /* \"#utility.yul\":11289:11294   */\n      0x00\n        /* \"#utility.yul\":11338:11341   */\n      dup3\n        /* \"#utility.yul\":11331:11335   */\n      0x1f\n        /* \"#utility.yul\":11323:11329   */\n      dup4\n        /* \"#utility.yul\":11319:11336   */\n      add\n        /* \"#utility.yul\":11315:11342   */\n      slt\n        /* \"#utility.yul\":11305:11427   */\n      tag_231\n      jumpi\n        /* \"#utility.yul\":11346:11425   */\n      tag_232\n      tag_96\n      jump\t// in\n    tag_232:\n        /* \"#utility.yul\":11305:11427   */\n    tag_231:\n        /* \"#utility.yul\":11463:11469   */\n      dup2\n        /* \"#utility.yul\":11450:11470   */\n      calldataload\n        /* \"#utility.yul\":11488:11567   */\n      tag_233\n        /* \"#utility.yul\":11563:11566   */\n      dup5\n        /* \"#utility.yul\":11555:11561   */\n      dup3\n        /* \"#utility.yul\":11548:11552   */\n      0x20\n        /* \"#utility.yul\":11540:11546   */\n      dup7\n        /* \"#utility.yul\":11536:11553   */\n      add\n        /* \"#utility.yul\":11488:11567   */\n      tag_103\n      jump\t// in\n    tag_233:\n        /* \"#utility.yul\":11479:11567   */\n      swap2\n      pop\n        /* \"#utility.yul\":11295:11573   */\n      pop\n        /* \"#utility.yul\":11233:11573   */\n      swap3\n      swap2\n      pop\n      pop\n      jump\t// out\n        /* \"#utility.yul\":11579:12088   */\n    tag_26:\n        /* \"#utility.yul\":11648:11654   */\n      0x00\n        /* \"#utility.yul\":11697:11699   */\n      0x20\n        /* \"#utility.yul\":11685:11694   */\n      dup3\n        /* \"#utility.yul\":11676:11683   */\n      dup5\n        /* \"#utility.yul\":11672:11695   */\n      sub\n        /* \"#utility.yul\":11668:11700   */\n      slt\n        /* \"#utility.yul\":11665:11784   */\n      iszero\n      tag_235\n      jumpi\n        /* \"#utility.yul\":11703:11782   */\n      tag_236\n      tag_68\n      jump\t// in\n    tag_236:\n        /* \"#utility.yul\":11665:11784   */\n    tag_235:\n        /* \"#utility.yul\":11851:11852   */\n      0x00\n        /* \"#utility.yul\":11840:11849   */\n      dup3\n        /* \"#utility.yul\":11836:11853   */\n      add\n        /* \"#utility.yul\":11823:11854   */\n      calldataload\n        /* \"#utility.yul\":11881:11899   */\n      0xffffffffffffffff\n        /* \"#utility.yul\":11873:11879   */\n      dup2\n        /* \"#utility.yul\":11870:11900   */\n      gt\n        /* \"#utility.yul\":11867:11984   */\n      iszero\n      tag_237\n      jumpi\n        /* \"#utility.yul\":11903:11982   */\n      tag_238\n      tag_69\n      jump\t// in\n    tag_238:\n        /* \"#utility.yul\":11867:11984   */\n    tag_237:\n        /* \"#utility.yul\":12008:12071   */\n      tag_239\n        /* \"#utility.yul\":12063:12070   */\n      dup5\n        /* \"#utility.yul\":12054:12060   */\n      dup3\n        /* \"#utility.yul\":12043:12052   */\n      dup6\n        /* \"#utility.yul\":12039:12061   */\n      add\n        /* \"#utility.yul\":12008:12071   */\n      tag_104\n      jump\t// in\n    tag_239:\n        /* \"#utility.yul\":11998:12071   */\n      swap2\n      pop\n        /* \"#utility.yul\":11794:12081   */\n      pop\n        /* \"#utility.yul\":11579:12088   */\n      swap3\n      swap2\n      pop\n      pop\n      jump\t// out\n        /* \"#utility.yul\":12094:12274   */\n    tag_105:\n        /* \"#utility.yul\":12142:12219   */\n      0x4e487b7100000000000000000000000000000000000000000000000000000000\n        /* \"#utility.yul\":12139:12140   */\n      0x00\n        /* \"#utility.yul\":12132:12220   */\n      mstore\n        /* \"#utility.yul\":12239:12243   */\n      0x22\n        /* \"#utility.yul\":12236:12237   */\n      0x04\n        /* \"#utility.yul\":12229:12244   */\n      mstore\n        /* \"#utility.yul\":12263:12267   */\n      0x24\n        /* \"#utility.yul\":12260:12261   */\n      0x00\n        /* \"#utility.yul\":12253:12268   */\n      revert\n        /* \"#utility.yul\":12280:12600   */\n    tag_31:\n        /* \"#utility.yul\":12324:12330   */\n      0x00\n        /* \"#utility.yul\":12361:12362   */\n      0x02\n        /* \"#utility.yul\":12355:12359   */\n      dup3\n        /* \"#utility.yul\":12351:12363   */\n      div\n        /* \"#utility.yul\":12341:12363   */\n      swap1\n      pop\n        /* \"#utility.yul\":12408:12409   */\n      0x01\n        /* \"#utility.yul\":12402:12406   */\n      dup3\n        /* \"#utility.yul\":12398:12410   */\n      and\n        /* \"#utility.yul\":12429:12447   */\n      dup1\n        /* \"#utility.yul\":12419:12500   */\n      tag_242\n      jumpi\n        /* \"#utility.yul\":12485:12489   */\n      0x7f\n        /* \"#utility.yul\":12477:12483   */\n      dup3\n        /* \"#utility.yul\":12473:12490   */\n      and\n        /* \"#utility.yul\":12463:12490   */\n      swap2\n      pop\n        /* \"#utility.yul\":12419:12500   */\n    tag_242:\n        /* \"#utility.yul\":12547:12549   */\n      0x20\n        /* \"#utility.yul\":12539:12545   */\n      dup3\n        /* \"#utility.yul\":12536:12550   */\n      lt\n        /* \"#utility.yul\":12516:12534   */\n      dup2\n        /* \"#utility.yul\":12513:12551   */\n      sub\n        /* \"#utility.yul\":12510:12594   */\n      tag_243\n      jumpi\n        /* \"#utility.yul\":12566:12584   */\n      tag_244\n      tag_105\n      jump\t// in\n    tag_244:\n        /* \"#utility.yul\":12510:12594   */\n    tag_243:\n        /* \"#utility.yul\":12331:12600   */\n      pop\n        /* \"#utility.yul\":12280:12600   */\n      swap2\n      swap1\n      pop\n      jump\t// out\n        /* \"#utility.yul\":12606:12786   */\n    tag_50:\n        /* \"#utility.yul\":12654:12731   */\n      0x4e487b7100000000000000000000000000000000000000000000000000000000\n        /* \"#utility.yul\":12651:12652   */\n      0x00\n        /* \"#utility.yul\":12644:12732   */\n      mstore\n        /* \"#utility.yul\":12751:12755   */\n      0x32\n        /* \"#utility.yul\":12748:12749   */\n      0x04\n        /* \"#utility.yul\":12741:12756   */\n      mstore\n        /* \"#utility.yul\":12775:12779   */\n      0x24\n        /* \"#utility.yul\":12772:12773   */\n      0x00\n        /* \"#utility.yul\":12765:12780   */\n      revert\n        /* \"#utility.yul\":12792:12957   */\n    tag_106:\n        /* \"#utility.yul\":12932:12949   */\n      0x5477656574206973206c6f6e6720210000000000000000000000000000000000\n        /* \"#utility.yul\":12928:12929   */\n      0x00\n        /* \"#utility.yul\":12920:12926   */\n      dup3\n        /* \"#utility.yul\":12916:12930   */\n      add\n        /* \"#utility.yul\":12909:12950   */\n      mstore\n        /* \"#utility.yul\":12792:12957   */\n      pop\n      jump\t// out\n        /* \"#utility.yul\":12963:13329   */\n    tag_107:\n        /* \"#utility.yul\":13105:13108   */\n      0x00\n        /* \"#utility.yul\":13126:13193   */\n      tag_248\n        /* \"#utility.yul\":13190:13192   */\n      0x0f\n        /* \"#utility.yul\":13185:13188   */\n      dup4\n        /* \"#utility.yul\":13126:13193   */\n      tag_79\n      jump\t// in\n    tag_248:\n        /* \"#utility.yul\":13119:13193   */\n      swap2\n      pop\n        /* \"#utility.yul\":13202:13295   */\n      tag_249\n        /* \"#utility.yul\":13291:13294   */\n      dup3\n        /* \"#utility.yul\":13202:13295   */\n      tag_106\n      jump\t// in\n    tag_249:\n        /* \"#utility.yul\":13320:13322   */\n      0x20\n        /* \"#utility.yul\":13315:13318   */\n      dup3\n        /* \"#utility.yul\":13311:13323   */\n      add\n        /* \"#utility.yul\":13304:13323   */\n      swap1\n      pop\n        /* \"#utility.yul\":12963:13329   */\n      swap2\n      swap1\n      pop\n      jump\t// out\n        /* \"#utility.yul\":13335:13754   */\n    tag_60:\n        /* \"#utility.yul\":13501:13505   */\n      0x00\n        /* \"#utility.yul\":13539:13541   */\n      0x20\n        /* \"#utility.yul\":13528:13537   */\n      dup3\n        /* \"#utility.yul\":13524:13542   */\n      add\n        /* \"#utility.yul\":13516:13542   */\n      swap1\n      pop\n        /* \"#utility.yul\":13588:13597   */\n      dup2\n        /* \"#utility.yul\":13582:13586   */\n      dup2\n        /* \"#utility.yul\":13578:13598   */\n      sub\n        /* \"#utility.yul\":13574:13575   */\n      0x00\n        /* \"#utility.yul\":13563:13572   */\n      dup4\n        /* \"#utility.yul\":13559:13576   */\n      add\n        /* \"#utility.yul\":13552:13599   */\n      mstore\n        /* \"#utility.yul\":13616:13747   */\n      tag_251\n        /* \"#utility.yul\":13742:13746   */\n      dup2\n        /* \"#utility.yul\":13616:13747   */\n      tag_107\n      jump\t// in\n    tag_251:\n        /* \"#utility.yul\":13608:13747   */\n      swap1\n      pop\n        /* \"#utility.yul\":13335:13754   */\n      swap2\n      swap1\n      pop\n      jump\t// out\n        /* \"#utility.yul\":13760:13929   */\n    tag_108:\n        /* \"#utility.yul\":13900:13921   */\n      0x547765657420697320736f20736d616c6c202100000000000000000000000000\n        /* \"#utility.yul\":13896:13897   */\n      0x00\n        /* \"#utility.yul\":13888:13894   */\n      dup3\n        /* \"#utility.yul\":13884:13898   */\n      add\n        /* \"#utility.yul\":13877:13922   */\n      mstore\n        /* \"#utility.yul\":13760:13929   */\n      pop\n      jump\t// out\n        /* \"#utility.yul\":13935:14301   */\n    tag_109:\n        /* \"#utility.yul\":14077:14080   */\n      0x00\n        /* \"#utility.yul\":14098:14165   */\n      tag_254\n        /* \"#utility.yul\":14162:14164   */\n      0x13\n        /* \"#utility.yul\":14157:14160   */\n      dup4\n        /* \"#utility.yul\":14098:14165   */\n      tag_79\n      jump\t// in\n    tag_254:\n        /* \"#utility.yul\":14091:14165   */\n      swap2\n      pop\n        /* \"#utility.yul\":14174:14267   */\n      tag_255\n        /* \"#utility.yul\":14263:14266   */\n      dup3\n        /* \"#utility.yul\":14174:14267   */\n      tag_108\n      jump\t// in\n    tag_255:\n        /* \"#utility.yul\":14292:14294   */\n      0x20\n        /* \"#utility.yul\":14287:14290   */\n      dup3\n        /* \"#utility.yul\":14283:14295   */\n      add\n        /* \"#utility.yul\":14276:14295   */\n      swap1\n      pop\n        /* \"#utility.yul\":13935:14301   */\n      swap2\n      swap1\n      pop\n      jump\t// out\n        /* \"#utility.yul\":14307:14726   */\n    tag_63:\n        /* \"#utility.yul\":14473:14477   */\n      0x00\n        /* \"#utility.yul\":14511:14513   */\n      0x20\n        /* \"#utility.yul\":14500:14509   */\n      dup3\n        /* \"#utility.yul\":14496:14514   */\n      add\n        /* \"#utility.yul\":14488:14514   */\n      swap1\n      pop\n        /* \"#utility.yul\":14560:14569   */\n      dup2\n        /* \"#utility.yul\":14554:14558   */\n      dup2\n        /* \"#utility.yul\":14550:14570   */\n      sub\n        /* \"#utility.yul\":14546:14547   */\n      0x00\n        /* \"#utility.yul\":14535:14544   */\n      dup4\n        /* \"#utility.yul\":14531:14548   */\n      add\n        /* \"#utility.yul\":14524:14571   */\n      mstore\n        /* \"#utility.yul\":14588:14719   */\n      tag_257\n        /* \"#utility.yul\":14714:14718   */\n      dup2\n        /* \"#utility.yul\":14588:14719   */\n      tag_109\n      jump\t// in\n    tag_257:\n        /* \"#utility.yul\":14580:14719   */\n      swap1\n      pop\n        /* \"#utility.yul\":14307:14726   */\n      swap2\n      swap1\n      pop\n      jump\t// out\n        /* \"#utility.yul\":14732:14873   */\n    tag_110:\n        /* \"#utility.yul\":14781:14785   */\n      0x00\n        /* \"#utility.yul\":14804:14807   */\n      dup2\n        /* \"#utility.yul\":14796:14807   */\n      swap1\n      pop\n        /* \"#utility.yul\":14827:14830   */\n      dup2\n        /* \"#utility.yul\":14824:14825   */\n      0x00\n        /* \"#utility.yul\":14817:14831   */\n      mstore\n        /* \"#utility.yul\":14861:14865   */\n      0x20\n        /* \"#utility.yul\":14858:14859   */\n      0x00\n        /* \"#utility.yul\":14848:14866   */\n      keccak256\n        /* \"#utility.yul\":14840:14866   */\n      swap1\n      pop\n        /* \"#utility.yul\":14732:14873   */\n      swap2\n      swap1\n      pop\n      jump\t// out\n        /* \"#utility.yul\":14879:14972   */\n    tag_111:\n        /* \"#utility.yul\":14916:14922   */\n      0x00\n        /* \"#utility.yul\":14963:14965   */\n      0x20\n        /* \"#utility.yul\":14958:14960   */\n      0x1f\n        /* \"#utility.yul\":14951:14956   */\n      dup4\n        /* \"#utility.yul\":14947:14961   */\n      add\n        /* \"#utility.yul\":14943:14966   */\n      div\n        /* \"#utility.yul\":14933:14966   */\n      swap1\n      pop\n        /* \"#utility.yul\":14879:14972   */\n      swap2\n      swap1\n      pop\n      jump\t// out\n        /* \"#utility.yul\":14978:15085   */\n    tag_112:\n        /* \"#utility.yul\":15022:15030   */\n      0x00\n        /* \"#utility.yul\":15072:15077   */\n      dup3\n        /* \"#utility.yul\":15066:15070   */\n      dup3\n        /* \"#utility.yul\":15062:15078   */\n      shl\n        /* \"#utility.yul\":15041:15078   */\n      swap1\n      pop\n        /* \"#utility.yul\":14978:15085   */\n      swap3\n      swap2\n      pop\n      pop\n      jump\t// out\n        /* \"#utility.yul\":15091:15484   */\n    tag_113:\n        /* \"#utility.yul\":15160:15166   */\n      0x00\n        /* \"#utility.yul\":15210:15211   */\n      0x08\n        /* \"#utility.yul\":15198:15208   */\n      dup4\n        /* \"#utility.yul\":15194:15212   */\n      mul\n        /* \"#utility.yul\":15233:15330   */\n      tag_262\n        /* \"#utility.yul\":15263:15329   */\n      0xffffffffffffffffffffffffffffffffffffffffffffffffffffffffffffffff\n        /* \"#utility.yul\":15252:15261   */\n      dup3\n        /* \"#utility.yul\":15233:15330   */\n      tag_112\n      jump\t// in\n    tag_262:\n        /* \"#utility.yul\":15351:15390   */\n      tag_263\n        /* \"#utility.yul\":15381:15389   */\n      dup7\n        /* \"#utility.yul\":15370:15379   */\n      dup4\n        /* \"#utility.yul\":15351:15390   */\n      tag_112\n      jump\t// in\n    tag_263:\n        /* \"#utility.yul\":15339:15390   */\n      swap6\n      pop\n        /* \"#utility.yul\":15423:15427   */\n      dup1\n        /* \"#utility.yul\":15419:15428   */\n      not\n        /* \"#utility.yul\":15412:15417   */\n      dup5\n        /* \"#utility.yul\":15408:15429   */\n      and\n        /* \"#utility.yul\":15399:15429   */\n      swap4\n      pop\n        /* \"#utility.yul\":15472:15476   */\n      dup1\n        /* \"#utility.yul\":15462:15470   */\n      dup7\n        /* \"#utility.yul\":15458:15477   */\n      and\n        /* \"#utility.yul\":15451:15456   */\n      dup5\n        /* \"#utility.yul\":15448:15478   */\n      or\n        /* \"#utility.yul\":15438:15478   */\n      swap3\n      pop\n        /* \"#utility.yul\":15167:15484   */\n      pop\n      pop\n        /* \"#utility.yul\":15091:15484   */\n      swap4\n      swap3\n      pop\n      pop\n      pop\n      jump\t// out\n        /* \"#utility.yul\":15490:15550   */\n    tag_114:\n        /* \"#utility.yul\":15518:15521   */\n      0x00\n        /* \"#utility.yul\":15539:15544   */\n      dup2\n        /* \"#utility.yul\":15532:15544   */\n      swap1\n      pop\n        /* \"#utility.yul\":15490:15550   */\n      swap2\n      swap1\n      pop\n      jump\t// out\n        /* \"#utility.yul\":15556:15698   */\n    tag_115:\n        /* \"#utility.yul\":15606:15615   */\n      0x00\n        /* \"#utility.yul\":15639:15692   */\n      tag_266\n        /* \"#utility.yul\":15657:15691   */\n      tag_267\n        /* \"#utility.yul\":15666:15690   */\n      tag_268\n        /* \"#utility.yul\":15684:15689   */\n      dup5\n        /* \"#utility.yul\":15666:15690   */\n      tag_74\n      jump\t// in\n    tag_268:\n        /* \"#utility.yul\":15657:15691   */\n      tag_114\n      jump\t// in\n    tag_267:\n        /* \"#utility.yul\":15639:15692   */\n      tag_74\n      jump\t// in\n    tag_266:\n        /* \"#utility.yul\":15626:15692   */\n      swap1\n      pop\n        /* \"#utility.yul\":15556:15698   */\n      swap2\n      swap1\n      pop\n      jump\t// out\n        /* \"#utility.yul\":15704:15779   */\n    tag_116:\n        /* \"#utility.yul\":15747:15750   */\n      0x00\n        /* \"#utility.yul\":15768:15773   */\n      dup2\n        /* \"#utility.yul\":15761:15773   */\n      swap1\n      pop\n        /* \"#utility.yul\":15704:15779   */\n      swap2\n      swap1\n      pop\n      jump\t// out\n        /* \"#utility.yul\":15785:16054   */\n    tag_117:\n        /* \"#utility.yul\":15895:15934   */\n      tag_271\n        /* \"#utility.yul\":15926:15933   */\n      dup4\n        /* \"#utility.yul\":15895:15934   */\n      tag_115\n      jump\t// in\n    tag_271:\n        /* \"#utility.yul\":15956:16047   */\n      tag_272\n        /* \"#utility.yul\":16005:16046   */\n      tag_273\n        /* \"#utility.yul\":16029:16045   */\n      dup3\n        /* \"#utility.yul\":16005:16046   */\n      tag_116\n      jump\t// in\n    tag_273:\n        /* \"#utility.yul\":15997:16003   */\n      dup5\n        /* \"#utility.yul\":15990:15994   */\n      dup5\n        /* \"#utility.yul\":15984:15995   */\n      sload\n        /* \"#utility.yul\":15956:16047   */\n      tag_113\n      jump\t// in\n    tag_272:\n        /* \"#utility.yul\":15950:15954   */\n      dup3\n        /* \"#utility.yul\":15943:16048   */\n      sstore\n        /* \"#utility.yul\":15861:16054   */\n      pop\n        /* \"#utility.yul\":15785:16054   */\n      pop\n      pop\n      pop\n      jump\t// out\n        /* \"#utility.yul\":16060:16133   */\n    tag_118:\n        /* \"#utility.yul\":16105:16108   */\n      0x00\n        /* \"#utility.yul\":16060:16133   */\n      swap1\n      jump\t// out\n        /* \"#utility.yul\":16139:16328   */\n    tag_119:\n        /* \"#utility.yul\":16216:16248   */\n      tag_276\n      tag_118\n      jump\t// in\n    tag_276:\n        /* \"#utility.yul\":16257:16322   */\n      tag_277\n        /* \"#utility.yul\":16315:16321   */\n      dup2\n        /* \"#utility.yul\":16307:16313   */\n      dup5\n        /* \"#utility.yul\":16301:16305   */\n      dup5\n        /* \"#utility.yul\":16257:16322   */\n      tag_117\n      jump\t// in\n    tag_277:\n        /* \"#utility.yul\":16192:16328   */\n      pop\n        /* \"#utility.yul\":16139:16328   */\n      pop\n      pop\n      jump\t// out\n        /* \"#utility.yul\":16334:16520   */\n    tag_120:\n        /* \"#utility.yul\":16394:16514   */\n    tag_279:\n        /* \"#utility.yul\":16411:16414   */\n      dup2\n        /* \"#utility.yul\":16404:16409   */\n      dup2\n        /* \"#utility.yul\":16401:16415   */\n      lt\n        /* \"#utility.yul\":16394:16514   */\n      iszero\n      tag_281\n      jumpi\n        /* \"#utility.yul\":16465:16504   */\n      tag_282\n        /* \"#utility.yul\":16502:16503   */\n      0x00\n        /* \"#utility.yul\":16495:16500   */\n      dup3\n        /* \"#utility.yul\":16465:16504   */\n      tag_119\n      jump\t// in\n    tag_282:\n        /* \"#utility.yul\":16438:16439   */\n      0x01\n        /* \"#utility.yul\":16431:16436   */\n      dup2\n        /* \"#utility.yul\":16427:16440   */\n      add\n        /* \"#utility.yul\":16418:16440   */\n      swap1\n      pop\n        /* \"#utility.yul\":16394:16514   */\n      jump(tag_279)\n    tag_281:\n        /* \"#utility.yul\":16334:16520   */\n      pop\n      pop\n      jump\t// out\n        /* \"#utility.yul\":16526:17069   */\n    tag_121:\n        /* \"#utility.yul\":16627:16629   */\n      0x1f\n        /* \"#utility.yul\":16622:16625   */\n      dup3\n        /* \"#utility.yul\":16619:16630   */\n      gt\n        /* \"#utility.yul\":16616:17062   */\n      iszero\n      tag_284\n      jumpi\n        /* \"#utility.yul\":16661:16699   */\n      tag_285\n        /* \"#utility.yul\":16693:16698   */\n      dup2\n        /* \"#utility.yul\":16661:16699   */\n      tag_110\n      jump\t// in\n    tag_285:\n        /* \"#utility.yul\":16745:16774   */\n      tag_286\n        /* \"#utility.yul\":16763:16773   */\n      dup5\n        /* \"#utility.yul\":16745:16774   */\n      tag_111\n      jump\t// in\n    tag_286:\n        /* \"#utility.yul\":16735:16743   */\n      dup2\n        /* \"#utility.yul\":16731:16775   */\n      add\n        /* \"#utility.yul\":16928:16930   */\n      0x20\n        /* \"#utility.yul\":16916:16926   */\n      dup6\n        /* \"#utility.yul\":16913:16931   */\n      lt\n        /* \"#utility.yul\":16910:16959   */\n      iszero\n      tag_287\n      jumpi\n        /* \"#utility.yul\":16949:16957   */\n      dup2\n        /* \"#utility.yul\":16934:16957   */\n      swap1\n      pop\n        /* \"#utility.yul\":16910:16959   */\n    tag_287:\n        /* \"#utility.yul\":16972:17052   */\n      tag_288\n        /* \"#utility.yul\":17028:17050   */\n      tag_289\n        /* \"#utility.yul\":17046:17049   */\n      dup6\n        /* \"#utility.yul\":17028:17050   */\n      tag_111\n      jump\t// in\n    tag_289:\n        /* \"#utility.yul\":17018:17026   */\n      dup4\n        /* \"#utility.yul\":17014:17051   */\n      add\n        /* \"#utility.yul\":17001:17012   */\n      dup3\n        /* \"#utility.yul\":16972:17052   */\n      tag_120\n      jump\t// in\n    tag_288:\n        /* \"#utility.yul\":16631:17062   */\n      pop\n      pop\n        /* \"#utility.yul\":16616:17062   */\n    tag_284:\n        /* \"#utility.yul\":16526:17069   */\n      pop\n      pop\n      pop\n      jump\t// out\n        /* \"#utility.yul\":17075:17192   */\n    tag_122:\n        /* \"#utility.yul\":17129:17137   */\n      0x00\n        /* \"#utility.yul\":17179:17184   */\n      dup3\n        /* \"#utility.yul\":17173:17177   */\n      dup3\n        /* \"#utility.yul\":17169:17185   */\n      shr\n        /* \"#utility.yul\":17148:17185   */\n      swap1\n      pop\n        /* \"#utility.yul\":17075:17192   */\n      swap3\n      swap2\n      pop\n      pop\n      jump\t// out\n        /* \"#utility.yul\":17198:17367   */\n    tag_123:\n        /* \"#utility.yul\":17242:17248   */\n      0x00\n        /* \"#utility.yul\":17275:17326   */\n      tag_292\n        /* \"#utility.yul\":17323:17324   */\n      0x00\n        /* \"#utility.yul\":17319:17325   */\n      not\n        /* \"#utility.yul\":17311:17316   */\n      dup5\n        /* \"#utility.yul\":17308:17309   */\n      0x08\n        /* \"#utility.yul\":17304:17317   */\n      mul\n        /* \"#utility.yul\":17275:17326   */\n      tag_122\n      jump\t// in\n    tag_292:\n        /* \"#utility.yul\":17271:17327   */\n      not\n        /* \"#utility.yul\":17356:17360   */\n      dup1\n        /* \"#utility.yul\":17350:17354   */\n      dup4\n        /* \"#utility.yul\":17346:17361   */\n      and\n        /* \"#utility.yul\":17336:17361   */\n      swap2\n      pop\n        /* \"#utility.yul\":17249:17367   */\n      pop\n        /* \"#utility.yul\":17198:17367   */\n      swap3\n      swap2\n      pop\n      pop\n      jump\t// out\n        /* \"#utility.yul\":17372:17667   */\n    tag_124:\n        /* \"#utility.yul\":17448:17452   */\n      0x00\n        /* \"#utility.yul\":17594:17623   */\n      tag_294\n        /* \"#utility.yul\":17619:17622   */\n      dup4\n        /* \"#utility.yul\":17613:17617   */\n      dup4\n        /* \"#utility.yul\":17594:17623   */\n      tag_123\n      jump\t// in\n    tag_294:\n        /* \"#utility.yul\":17586:17623   */\n      swap2\n      pop\n        /* \"#utility.yul\":17656:17659   */\n      dup3\n        /* \"#utility.yul\":17653:17654   */\n      0x02\n        /* \"#utility.yul\":17649:17660   */\n      mul\n        /* \"#utility.yul\":17643:17647   */\n      dup3\n        /* \"#utility.yul\":17640:17661   */\n      or\n        /* \"#utility.yul\":17632:17661   */\n      swap1\n      pop\n        /* \"#utility.yul\":17372:17667   */\n      swap3\n      swap2\n      pop\n      pop\n      jump\t// out\n        /* \"#utility.yul\":17672:19067   */\n    tag_66:\n        /* \"#utility.yul\":17789:17826   */\n      tag_296\n        /* \"#utility.yul\":17822:17825   */\n      dup3\n        /* \"#utility.yul\":17789:17826   */\n      tag_78\n      jump\t// in\n    tag_296:\n        /* \"#utility.yul\":17891:17909   */\n      0xffffffffffffffff\n        /* \"#utility.yul\":17883:17889   */\n      dup2\n        /* \"#utility.yul\":17880:17910   */\n      gt\n        /* \"#utility.yul\":17877:17933   */\n      iszero\n      tag_297\n      jumpi\n        /* \"#utility.yul\":17913:17931   */\n      tag_298\n      tag_98\n      jump\t// in\n    tag_298:\n        /* \"#utility.yul\":17877:17933   */\n    tag_297:\n        /* \"#utility.yul\":17957:17995   */\n      tag_299\n        /* \"#utility.yul\":17989:17993   */\n      dup3\n        /* \"#utility.yul\":17983:17994   */\n      sload\n        /* \"#utility.yul\":17957:17995   */\n      tag_31\n      jump\t// in\n    tag_299:\n        /* \"#utility.yul\":18042:18109   */\n      tag_300\n        /* \"#utility.yul\":18102:18108   */\n      dup3\n        /* \"#utility.yul\":18094:18100   */\n      dup3\n        /* \"#utility.yul\":18088:18092   */\n      dup6\n        /* \"#utility.yul\":18042:18109   */\n      tag_121\n      jump\t// in\n    tag_300:\n        /* \"#utility.yul\":18136:18137   */\n      0x00\n        /* \"#utility.yul\":18160:18164   */\n      0x20\n        /* \"#utility.yul\":18147:18164   */\n      swap1\n      pop\n        /* \"#utility.yul\":18192:18194   */\n      0x1f\n        /* \"#utility.yul\":18184:18190   */\n      dup4\n        /* \"#utility.yul\":18181:18195   */\n      gt\n        /* \"#utility.yul\":18209:18210   */\n      0x01\n        /* \"#utility.yul\":18204:18822   */\n      dup2\n      eq\n      tag_302\n      jumpi\n        /* \"#utility.yul\":18866:18867   */\n      0x00\n        /* \"#utility.yul\":18883:18889   */\n      dup5\n        /* \"#utility.yul\":18880:18957   */\n      iszero\n      tag_303\n      jumpi\n        /* \"#utility.yul\":18932:18941   */\n      dup3\n        /* \"#utility.yul\":18927:18930   */\n      dup8\n        /* \"#utility.yul\":18923:18942   */\n      add\n        /* \"#utility.yul\":18917:18943   */\n      mload\n        /* \"#utility.yul\":18908:18943   */\n      swap1\n      pop\n        /* \"#utility.yul\":18880:18957   */\n    tag_303:\n        /* \"#utility.yul\":18983:19050   */\n      tag_304\n        /* \"#utility.yul\":19043:19049   */\n      dup6\n        /* \"#utility.yul\":19036:19041   */\n      dup3\n        /* \"#utility.yul\":18983:19050   */\n      tag_124\n      jump\t// in\n    tag_304:\n        /* \"#utility.yul\":18977:18981   */\n      dup7\n        /* \"#utility.yul\":18970:19051   */\n      sstore\n        /* \"#utility.yul\":18839:19061   */\n      pop\n        /* \"#utility.yul\":18174:19061   */\n      jump(tag_301)\n        /* \"#utility.yul\":18204:18822   */\n    tag_302:\n        /* \"#utility.yul\":18256:18260   */\n      0x1f\n        /* \"#utility.yul\":18252:18261   */\n      not\n        /* \"#utility.yul\":18244:18250   */\n      dup5\n        /* \"#utility.yul\":18240:18262   */\n      and\n        /* \"#utility.yul\":18290:18327   */\n      tag_305\n        /* \"#utility.yul\":18322:18326   */\n      dup7\n        /* \"#utility.yul\":18290:18327   */\n      tag_110\n      jump\t// in\n    tag_305:\n        /* \"#utility.yul\":18349:18350   */\n      0x00\n        /* \"#utility.yul\":18363:18571   */\n    tag_306:\n        /* \"#utility.yul\":18377:18384   */\n      dup3\n        /* \"#utility.yul\":18374:18375   */\n      dup2\n        /* \"#utility.yul\":18371:18385   */\n      lt\n        /* \"#utility.yul\":18363:18571   */\n      iszero\n      tag_308\n      jumpi\n        /* \"#utility.yul\":18456:18465   */\n      dup5\n        /* \"#utility.yul\":18451:18454   */\n      dup10\n        /* \"#utility.yul\":18447:18466   */\n      add\n        /* \"#utility.yul\":18441:18467   */\n      mload\n        /* \"#utility.yul\":18433:18439   */\n      dup3\n        /* \"#utility.yul\":18426:18468   */\n      sstore\n        /* \"#utility.yul\":18507:18508   */\n      0x01\n        /* \"#utility.yul\":18499:18505   */\n      dup3\n        /* \"#utility.yul\":18495:18509   */\n      add\n        /* \"#utility.yul\":18485:18509   */\n      swap2\n      pop\n        /* \"#utility.yul\":18554:18556   */\n      0x20\n        /* \"#utility.yul\":18543:18552   */\n      dup6\n        /* \"#utility.yul\":18539:18557   */\n      add\n        /* \"#utility.yul\":18526:18557   */\n      swap5\n      pop\n        /* \"#utility.yul\":18400:18404   */\n      0x20\n        /* \"#utility.yul\":18397:18398   */\n      dup2\n        /* \"#utility.yul\":18393:18405   */\n      add\n        /* \"#utility.yul\":18388:18405   */\n      swap1\n      pop\n        /* \"#utility.yul\":18363:18571   */\n      jump(tag_306)\n    tag_308:\n        /* \"#utility.yul\":18599:18605   */\n      dup7\n        /* \"#utility.yul\":18590:18597   */\n      dup4\n        /* \"#utility.yul\":18587:18606   */\n      lt\n        /* \"#utility.yul\":18584:18763   */\n      iszero\n      tag_309\n      jumpi\n        /* \"#utility.yul\":18657:18666   */\n      dup5\n        /* \"#utility.yul\":18652:18655   */\n      dup10\n        /* \"#utility.yul\":18648:18667   */\n      add\n        /* \"#utility.yul\":18642:18668   */\n      mload\n        /* \"#utility.yul\":18700:18748   */\n      tag_310\n        /* \"#utility.yul\":18742:18746   */\n      0x1f\n        /* \"#utility.yul\":18734:18740   */\n      dup10\n        /* \"#utility.yul\":18730:18747   */\n      and\n        /* \"#utility.yul\":18719:18728   */\n      dup3\n        /* \"#utility.yul\":18700:18748   */\n      tag_123\n      jump\t// in\n    tag_310:\n        /* \"#utility.yul\":18692:18698   */\n      dup4\n        /* \"#utility.yul\":18685:18749   */\n      sstore\n        /* \"#utility.yul\":18607:18763   */\n      pop\n        /* \"#utility.yul\":18584:18763   */\n    tag_309:\n        /* \"#utility.yul\":18809:18810   */\n      0x01\n        /* \"#utility.yul\":18805:18806   */\n      0x02\n        /* \"#utility.yul\":18797:18803   */\n      dup9\n        /* \"#utility.yul\":18793:18807   */\n      mul\n        /* \"#utility.yul\":18789:18811   */\n      add\n        /* \"#utility.yul\":18783:18787   */\n      dup9\n        /* \"#utility.yul\":18776:18812   */\n      sstore\n        /* \"#utility.yul\":18211:18822   */\n      pop\n      pop\n      pop\n        /* \"#utility.yul\":18174:19061   */\n    tag_301:\n      pop\n        /* \"#utility.yul\":17764:19067   */\n      pop\n      pop\n      pop\n        /* \"#utility.yul\":17672:19067   */\n      pop\n      pop\n      jump\t// out\n\n    auxdata: 0xa26469706673582212203719fd1b014e6df36f33de0d3e48c121fc83d6903689ce609b0187f3de52ecc864736f6c634300081a0033\n}\n",
				"bytecode": {
					"linkReferences": {},
					"object": "6080604052348015600e575f80fd5b506110318061001c5f395ff3fe608060405234801561000f575f80fd5b506004361061004a575f3560e01c806305a1b4a91461004e57806312e7ee1c146100815780632cf02026146100b15780637c9cd2bc146100e1575b5f80fd5b61006860048036038101906100639190610760565b6100fd565b604051610078949392919061082c565b60405180910390f35b61009b60048036038101906100969190610876565b6101e7565b6040516100a89190610a22565b60405180910390f35b6100cb60048036038101906100c69190610760565b610377565b6040516100d89190610aa2565b60405180910390f35b6100fb60048036038101906100f69190610bee565b6104e4565b005b5f602052815f5260405f208181548110610115575f80fd5b905f5260205f2090600402015f9150915050805f015f9054906101000a900473ffffffffffffffffffffffffffffffffffffffff169080600101805461015a90610c62565b80601f016020809104026020016040519081016040528092919081815260200182805461018690610c62565b80156101d15780601f106101a8576101008083540402835291602001916101d1565b820191905f5260205f20905b8154815290600101906020018083116101b457829003601f168201915b5050505050908060020154908060030154905084565b60605f808373ffffffffffffffffffffffffffffffffffffffff1673ffffffffffffffffffffffffffffffffffffffff1681526020019081526020015f20805480602002602001604051908101604052809291908181526020015f905b8282101561036c578382905f5260205f2090600402016040518060800160405290815f82015f9054906101000a900473ffffffffffffffffffffffffffffffffffffffff1673ffffffffffffffffffffffffffffffffffffffff1673ffffffffffffffffffffffffffffffffffffffff1681526020016001820180546102c990610c62565b80601f01602080910402602001604051908101604052809291908181526020018280546102f590610c62565b80156103405780601f1061031757610100808354040283529160200191610340565b820191905f5260205f20905b81548152906001019060200180831161032357829003601f168201915b505050505081526020016002820154815260200160038201548152505081526020019060010190610244565b505050509050919050565b61037f610687565b5f808473ffffffffffffffffffffffffffffffffffffffff1673ffffffffffffffffffffffffffffffffffffffff1681526020019081526020015f2082815481106103cd576103cc610c92565b5b905f5260205f2090600402016040518060800160405290815f82015f9054906101000a900473ffffffffffffffffffffffffffffffffffffffff1673ffffffffffffffffffffffffffffffffffffffff1673ffffffffffffffffffffffffffffffffffffffff16815260200160018201805461044890610c62565b80601f016020809104026020016040519081016040528092919081815260200182805461047490610c62565b80156104bf5780601f10610496576101008083540402835291602001916104bf565b820191905f5260205f20905b8154815290600101906020018083116104a257829003601f168201915b5050505050815260200160028201548152602001600382015481525050905092915050565b60c861ffff168151111561052d576040517f08c379a000000000000000000000000000000000000000000000000000000000815260040161052490610d09565b60405180910390fd5b600a61ffff1681511015610576576040517f08c379a000000000000000000000000000000000000000000000000000000000815260040161056d90610d71565b60405180910390fd5b5f60405180608001604052803373ffffffffffffffffffffffffffffffffffffffff1681526020018381526020014281526020015f81525090505f803373ffffffffffffffffffffffffffffffffffffffff1673ffffffffffffffffffffffffffffffffffffffff1681526020019081526020015f2081908060018154018082558091505060019003905f5260205f2090600402015f909190919091505f820151815f015f6101000a81548173ffffffffffffffffffffffffffffffffffffffff021916908373ffffffffffffffffffffffffffffffffffffffff160217905550602082015181600101908161066c9190610f2c565b50604082015181600201556060820151816003015550505050565b60405180608001604052805f73ffffffffffffffffffffffffffffffffffffffff168152602001606081526020015f81526020015f81525090565b5f604051905090565b5f80fd5b5f80fd5b5f73ffffffffffffffffffffffffffffffffffffffff82169050919050565b5f6106fc826106d3565b9050919050565b61070c816106f2565b8114610716575f80fd5b50565b5f8135905061072781610703565b92915050565b5f819050919050565b61073f8161072d565b8114610749575f80fd5b50565b5f8135905061075a81610736565b92915050565b5f8060408385031215610776576107756106cb565b5b5f61078385828601610719565b92505060206107948582860161074c565b9150509250929050565b6107a7816106f2565b82525050565b5f81519050919050565b5f82825260208201905092915050565b8281835e5f83830152505050565b5f601f19601f8301169050919050565b5f6107ef826107ad565b6107f981856107b7565b93506108098185602086016107c7565b610812816107d5565b840191505092915050565b6108268161072d565b82525050565b5f60808201905061083f5f83018761079e565b818103602083015261085181866107e5565b9050610860604083018561081d565b61086d606083018461081d565b95945050505050565b5f6020828403121561088b5761088a6106cb565b5b5f61089884828501610719565b91505092915050565b5f81519050919050565b5f82825260208201905092915050565b5f819050602082019050919050565b6108d3816106f2565b82525050565b5f82825260208201905092915050565b5f6108f3826107ad565b6108fd81856108d9565b935061090d8185602086016107c7565b610916816107d5565b840191505092915050565b61092a8161072d565b82525050565b5f608083015f8301516109455f8601826108ca565b506020830151848203602086015261095d82826108e9565b91505060408301516109726040860182610921565b5060608301516109856060860182610921565b508091505092915050565b5f61099b8383610930565b905092915050565b5f602082019050919050565b5f6109b9826108a1565b6109c381856108ab565b9350836020820285016109d5856108bb565b805f5b85811015610a1057848403895281516109f18582610990565b94506109fc836109a3565b925060208a019950506001810190506109d8565b50829750879550505050505092915050565b5f6020820190508181035f830152610a3a81846109af565b905092915050565b5f608083015f830151610a575f8601826108ca565b5060208301518482036020860152610a6f82826108e9565b9150506040830151610a846040860182610921565b506060830151610a976060860182610921565b508091505092915050565b5f6020820190508181035f830152610aba8184610a42565b905092915050565b5f80fd5b5f80fd5b7f4e487b71000000000000000000000000000000000000000000000000000000005f52604160045260245ffd5b610b00826107d5565b810181811067ffffffffffffffff82111715610b1f57610b1e610aca565b5b80604052505050565b5f610b316106c2565b9050610b3d8282610af7565b919050565b5f67ffffffffffffffff821115610b5c57610b5b610aca565b5b610b65826107d5565b9050602081019050919050565b828183375f83830152505050565b5f610b92610b8d84610b42565b610b28565b905082815260208101848484011115610bae57610bad610ac6565b5b610bb9848285610b72565b509392505050565b5f82601f830112610bd557610bd4610ac2565b5b8135610be5848260208601610b80565b91505092915050565b5f60208284031215610c0357610c026106cb565b5b5f82013567ffffffffffffffff811115610c2057610c1f6106cf565b5b610c2c84828501610bc1565b91505092915050565b7f4e487b71000000000000000000000000000000000000000000000000000000005f52602260045260245ffd5b5f6002820490506001821680610c7957607f821691505b602082108103610c8c57610c8b610c35565b5b50919050565b7f4e487b71000000000000000000000000000000000000000000000000000000005f52603260045260245ffd5b7f5477656574206973206c6f6e67202100000000000000000000000000000000005f82015250565b5f610cf3600f836107b7565b9150610cfe82610cbf565b602082019050919050565b5f6020820190508181035f830152610d2081610ce7565b9050919050565b7f547765657420697320736f20736d616c6c2021000000000000000000000000005f82015250565b5f610d5b6013836107b7565b9150610d6682610d27565b602082019050919050565b5f6020820190508181035f830152610d8881610d4f565b9050919050565b5f819050815f5260205f209050919050565b5f6020601f8301049050919050565b5f82821b905092915050565b5f60088302610deb7fffffffffffffffffffffffffffffffffffffffffffffffffffffffffffffffff82610db0565b610df58683610db0565b95508019841693508086168417925050509392505050565b5f819050919050565b5f610e30610e2b610e268461072d565b610e0d565b61072d565b9050919050565b5f819050919050565b610e4983610e16565b610e5d610e5582610e37565b848454610dbc565b825550505050565b5f90565b610e71610e65565b610e7c818484610e40565b505050565b5b81811015610e9f57610e945f82610e69565b600181019050610e82565b5050565b601f821115610ee457610eb581610d8f565b610ebe84610da1565b81016020851015610ecd578190505b610ee1610ed985610da1565b830182610e81565b50505b505050565b5f82821c905092915050565b5f610f045f1984600802610ee9565b1980831691505092915050565b5f610f1c8383610ef5565b9150826002028217905092915050565b610f35826107ad565b67ffffffffffffffff811115610f4e57610f4d610aca565b5b610f588254610c62565b610f63828285610ea3565b5f60209050601f831160018114610f94575f8415610f82578287015190505b610f8c8582610f11565b865550610ff3565b601f198416610fa286610d8f565b5f5b82811015610fc957848901518255600182019150602085019450602081019050610fa4565b86831015610fe65784890151610fe2601f891682610ef5565b8355505b6001600288020188555050505b50505050505056fea26469706673582212203719fd1b014e6df36f33de0d3e48c121fc83d6903689ce609b0187f3de52ecc864736f6c634300081a0033",
					"opcodes": "PUSH1 0x80 PUSH1 0x40 MSTORE CALLVALUE DUP1 ISZERO PUSH1 0xE JUMPI PUSH0 DUP1 REVERT JUMPDEST POP PUSH2 0x1031 DUP1 PUSH2 0x1C PUSH0 CODECOPY PUSH0 RETURN INVALID PUSH1 0x80 PUSH1 0x40 MSTORE CALLVALUE DUP1 ISZERO PUSH2 0xF JUMPI PUSH0 DUP1 REVERT JUMPDEST POP PUSH1 0x4 CALLDATASIZE LT PUSH2 0x4A JUMPI PUSH0 CALLDATALOAD PUSH1 0xE0 SHR DUP1 PUSH4 0x5A1B4A9 EQ PUSH2 0x4E JUMPI DUP1 PUSH4 0x12E7EE1C EQ PUSH2 0x81 JUMPI DUP1 PUSH4 0x2CF02026 EQ PUSH2 0xB1 JUMPI DUP1 PUSH4 0x7C9CD2BC EQ PUSH2 0xE1 JUMPI JUMPDEST PUSH0 DUP1 REVERT JUMPDEST PUSH2 0x68 PUSH1 0x4 DUP1 CALLDATASIZE SUB DUP2 ADD SWAP1 PUSH2 0x63 SWAP2 SWAP1 PUSH2 0x760 JUMP JUMPDEST PUSH2 0xFD JUMP JUMPDEST PUSH1 0x40 MLOAD PUSH2 0x78 SWAP5 SWAP4 SWAP3 SWAP2 SWAP1 PUSH2 0x82C JUMP JUMPDEST PUSH1 0x40 MLOAD DUP1 SWAP2 SUB SWAP1 RETURN JUMPDEST PUSH2 0x9B PUSH1 0x4 DUP1 CALLDATASIZE SUB DUP2 ADD SWAP1 PUSH2 0x96 SWAP2 SWAP1 PUSH2 0x876 JUMP JUMPDEST PUSH2 0x1E7 JUMP JUMPDEST PUSH1 0x40 MLOAD PUSH2 0xA8 SWAP2 SWAP1 PUSH2 0xA22 JUMP JUMPDEST PUSH1 0x40 MLOAD DUP1 SWAP2 SUB SWAP1 RETURN JUMPDEST PUSH2 0xCB PUSH1 0x4 DUP1 CALLDATASIZE SUB DUP2 ADD SWAP1 PUSH2 0xC6 SWAP2 SWAP1 PUSH2 0x760 JUMP JUMPDEST PUSH2 0x377 JUMP JUMPDEST PUSH1 0x40 MLOAD PUSH2 0xD8 SWAP2 SWAP1 PUSH2 0xAA2 JUMP JUMPDEST PUSH1 0x40 MLOAD DUP1 SWAP2 SUB SWAP1 RETURN JUMPDEST PUSH2 0xFB PUSH1 0x4 DUP1 CALLDATASIZE SUB DUP2 ADD SWAP1 PUSH2 0xF6 SWAP2 SWAP1 PUSH2 0xBEE JUMP JUMPDEST PUSH2 0x4E4 JUMP JUMPDEST STOP JUMPDEST PUSH0 PUSH1 0x20 MSTORE DUP2 PUSH0 MSTORE PUSH1 0x40 PUSH0 KECCAK256 DUP2 DUP2 SLOAD DUP2 LT PUSH2 0x115 JUMPI PUSH0 DUP1 REVERT JUMPDEST SWAP1 PUSH0 MSTORE PUSH1 0x20 PUSH0 KECCAK256 SWAP1 PUSH1 0x4 MUL ADD PUSH0 SWAP2 POP SWAP2 POP POP DUP1 PUSH0 ADD PUSH0 SWAP1 SLOAD SWAP1 PUSH2 0x100 EXP SWAP1 DIV PUSH20 0xFFFFFFFFFFFFFFFFFFFFFFFFFFFFFFFFFFFFFFFF AND SWAP1 DUP1 PUSH1 0x1 ADD DUP1 SLOAD PUSH2 0x15A SWAP1 PUSH2 0xC62 JUMP JUMPDEST DUP1 PUSH1 0x1F ADD PUSH1 0x20 DUP1 SWAP2 DIV MUL PUSH1 0x20 ADD PUSH1 0x40 MLOAD SWAP1 DUP2 ADD PUSH1 0x40 MSTORE DUP1 SWAP3 SWAP2 SWAP1 DUP2 DUP2 MSTORE PUSH1 0x20 ADD DUP3 DUP1 SLOAD PUSH2 0x186 SWAP1 PUSH2 0xC62 JUMP JUMPDEST DUP1 ISZERO PUSH2 0x1D1 JUMPI DUP1 PUSH1 0x1F LT PUSH2 0x1A8 JUMPI PUSH2 0x100 DUP1 DUP4 SLOAD DIV MUL DUP4 MSTORE SWAP2 PUSH1 0x20 ADD SWAP2 PUSH2 0x1D1 JUMP JUMPDEST DUP3 ADD SWAP2 SWAP1 PUSH0 MSTORE PUSH1 0x20 PUSH0 KECCAK256 SWAP1 JUMPDEST DUP2 SLOAD DUP2 MSTORE SWAP1 PUSH1 0x1 ADD SWAP1 PUSH1 0x20 ADD DUP1 DUP4 GT PUSH2 0x1B4 JUMPI DUP3 SWAP1 SUB PUSH1 0x1F AND DUP3 ADD SWAP2 JUMPDEST POP POP POP POP POP SWAP1 DUP1 PUSH1 0x2 ADD SLOAD SWAP1 DUP1 PUSH1 0x3 ADD SLOAD SWAP1 POP DUP5 JUMP JUMPDEST PUSH1 0x60 PUSH0 DUP1 DUP4 PUSH20 0xFFFFFFFFFFFFFFFFFFFFFFFFFFFFFFFFFFFFFFFF AND PUSH20 0xFFFFFFFFFFFFFFFFFFFFFFFFFFFFFFFFFFFFFFFF AND DUP2 MSTORE PUSH1 0x20 ADD SWAP1 DUP2 MSTORE PUSH1 0x20 ADD PUSH0 KECCAK256 DUP1 SLOAD DUP1 PUSH1 0x20 MUL PUSH1 0x20 ADD PUSH1 0x40 MLOAD SWAP1 DUP2 ADD PUSH1 0x40 MSTORE DUP1 SWAP3 SWAP2 SWAP1 DUP2 DUP2 MSTORE PUSH1 0x20 ADD PUSH0 SWAP1 JUMPDEST DUP3 DUP3 LT ISZERO PUSH2 0x36C JUMPI DUP4 DUP3 SWAP1 PUSH0 MSTORE PUSH1 0x20 PUSH0 KECCAK256 SWAP1 PUSH1 0x4 MUL ADD PUSH1 0x40 MLOAD DUP1 PUSH1 0x80 ADD PUSH1 0x40 MSTORE SWAP1 DUP2 PUSH0 DUP3 ADD PUSH0 SWAP1 SLOAD SWAP1 PUSH2 0x100 EXP SWAP1 DIV PUSH20 0xFFFFFFFFFFFFFFFFFFFFFFFFFFFFFFFFFFFFFFFF AND PUSH20 0xFFFFFFFFFFFFFFFFFFFFFFFFFFFFFFFFFFFFFFFF AND PUSH20 0xFFFFFFFFFFFFFFFFFFFFFFFFFFFFFFFFFFFFFFFF AND DUP2 MSTORE PUSH1 0x20 ADD PUSH1 0x1 DUP3 ADD DUP1 SLOAD PUSH2 0x2C9 SWAP1 PUSH2 0xC62 JUMP JUMPDEST DUP1 PUSH1 0x1F ADD PUSH1 0x20 DUP1 SWAP2 DIV MUL PUSH1 0x20 ADD PUSH1 0x40 MLOAD SWAP1 DUP2 ADD PUSH1 0x40 MSTORE DUP1 SWAP3 SWAP2 SWAP1 DUP2 DUP2 MSTORE PUSH1 0x20 ADD DUP3 DUP1 SLOAD PUSH2 0x2F5 SWAP1 PUSH2 0xC62 JUMP JUMPDEST DUP1 ISZERO PUSH2 0x340 JUMPI DUP1 PUSH1 0x1F LT PUSH2 0x317 JUMPI PUSH2 0x100 DUP1 DUP4 SLOAD DIV MUL DUP4 MSTORE SWAP2 PUSH1 0x20 ADD SWAP2 PUSH2 0x340 JUMP JUMPDEST DUP3 ADD SWAP2 SWAP1 PUSH0 MSTORE PUSH1 0x20 PUSH0 KECCAK256 SWAP1 JUMPDEST DUP2 SLOAD DUP2 MSTORE SWAP1 PUSH1 0x1 ADD SWAP1 PUSH1 0x20 ADD DUP1 DUP4 GT PUSH2 0x323 JUMPI DUP3 SWAP1 SUB PUSH1 0x1F AND DUP3 ADD SWAP2 JUMPDEST POP POP POP POP POP DUP2 MSTORE PUSH1 0x20 ADD PUSH1 0x2 DUP3 ADD SLOAD DUP2 MSTORE PUSH1 0x20 ADD PUSH1 0x3 DUP3 ADD SLOAD DUP2 MSTORE POP POP DUP2 MSTORE PUSH1 0x20 ADD SWAP1 PUSH1 0x1 ADD SWAP1 PUSH2 0x244 JUMP JUMPDEST POP POP POP POP SWAP1 POP SWAP2 SWAP1 POP JUMP JUMPDEST PUSH2 0x37F PUSH2 0x687 JUMP JUMPDEST PUSH0 DUP1 DUP5 PUSH20 0xFFFFFFFFFFFFFFFFFFFFFFFFFFFFFFFFFFFFFFFF AND PUSH20 0xFFFFFFFFFFFFFFFFFFFFFFFFFFFFFFFFFFFFFFFF AND DUP2 MSTORE PUSH1 0x20 ADD SWAP1 DUP2 MSTORE PUSH1 0x20 ADD PUSH0 KECCAK256 DUP3 DUP2 SLOAD DUP2 LT PUSH2 0x3CD JUMPI PUSH2 0x3CC PUSH2 0xC92 JUMP JUMPDEST JUMPDEST SWAP1 PUSH0 MSTORE PUSH1 0x20 PUSH0 KECCAK256 SWAP1 PUSH1 0x4 MUL ADD PUSH1 0x40 MLOAD DUP1 PUSH1 0x80 ADD PUSH1 0x40 MSTORE SWAP1 DUP2 PUSH0 DUP3 ADD PUSH0 SWAP1 SLOAD SWAP1 PUSH2 0x100 EXP SWAP1 DIV PUSH20 0xFFFFFFFFFFFFFFFFFFFFFFFFFFFFFFFFFFFFFFFF AND PUSH20 0xFFFFFFFFFFFFFFFFFFFFFFFFFFFFFFFFFFFFFFFF AND PUSH20 0xFFFFFFFFFFFFFFFFFFFFFFFFFFFFFFFFFFFFFFFF AND DUP2 MSTORE PUSH1 0x20 ADD PUSH1 0x1 DUP3 ADD DUP1 SLOAD PUSH2 0x448 SWAP1 PUSH2 0xC62 JUMP JUMPDEST DUP1 PUSH1 0x1F ADD PUSH1 0x20 DUP1 SWAP2 DIV MUL PUSH1 0x20 ADD PUSH1 0x40 MLOAD SWAP1 DUP2 ADD PUSH1 0x40 MSTORE DUP1 SWAP3 SWAP2 SWAP1 DUP2 DUP2 MSTORE PUSH1 0x20 ADD DUP3 DUP1 SLOAD PUSH2 0x474 SWAP1 PUSH2 0xC62 JUMP JUMPDEST DUP1 ISZERO PUSH2 0x4BF JUMPI DUP1 PUSH1 0x1F LT PUSH2 0x496 JUMPI PUSH2 0x100 DUP1 DUP4 SLOAD DIV MUL DUP4 MSTORE SWAP2 PUSH1 0x20 ADD SWAP2 PUSH2 0x4BF JUMP JUMPDEST DUP3 ADD SWAP2 SWAP1 PUSH0 MSTORE PUSH1 0x20 PUSH0 KECCAK256 SWAP1 JUMPDEST DUP2 SLOAD DUP2 MSTORE SWAP1 PUSH1 0x1 ADD SWAP1 PUSH1 0x20 ADD DUP1 DUP4 GT PUSH2 0x4A2 JUMPI DUP3 SWAP1 SUB PUSH1 0x1F AND DUP3 ADD SWAP2 JUMPDEST POP POP POP POP POP DUP2 MSTORE PUSH1 0x20 ADD PUSH1 0x2 DUP3 ADD SLOAD DUP2 MSTORE PUSH1 0x20 ADD PUSH1 0x3 DUP3 ADD SLOAD DUP2 MSTORE POP POP SWAP1 POP SWAP3 SWAP2 POP POP JUMP JUMPDEST PUSH1 0xC8 PUSH2 0xFFFF AND DUP2 MLOAD GT ISZERO PUSH2 0x52D JUMPI PUSH1 0x40 MLOAD PUSH32 0x8C379A000000000000000000000000000000000000000000000000000000000 DUP2 MSTORE PUSH1 0x4 ADD PUSH2 0x524 SWAP1 PUSH2 0xD09 JUMP JUMPDEST PUSH1 0x40 MLOAD DUP1 SWAP2 SUB SWAP1 REVERT JUMPDEST PUSH1 0xA PUSH2 0xFFFF AND DUP2 MLOAD LT ISZERO PUSH2 0x576 JUMPI PUSH1 0x40 MLOAD PUSH32 0x8C379A000000000000000000000000000000000000000000000000000000000 DUP2 MSTORE PUSH1 0x4 ADD PUSH2 0x56D SWAP1 PUSH2 0xD71 JUMP JUMPDEST PUSH1 0x40 MLOAD DUP1 SWAP2 SUB SWAP1 REVERT JUMPDEST PUSH0 PUSH1 0x40 MLOAD DUP1 PUSH1 0x80 ADD PUSH1 0x40 MSTORE DUP1 CALLER PUSH20 0xFFFFFFFFFFFFFFFFFFFFFFFFFFFFFFFFFFFFFFFF AND DUP2 MSTORE PUSH1 0x20 ADD DUP4 DUP2 MSTORE PUSH1 0x20 ADD TIMESTAMP DUP2 MSTORE PUSH1 0x20 ADD PUSH0 DUP2 MSTORE POP SWAP1 POP PUSH0 DUP1 CALLER PUSH20 0xFFFFFFFFFFFFFFFFFFFFFFFFFFFFFFFFFFFFFFFF AND PUSH20 0xFFFFFFFFFFFFFFFFFFFFFFFFFFFFFFFFFFFFFFFF AND DUP2 MSTORE PUSH1 0x20 ADD SWAP1 DUP2 MSTORE PUSH1 0x20 ADD PUSH0 KECCAK256 DUP2 SWAP1 DUP1 PUSH1 0x1 DUP2 SLOAD ADD DUP1 DUP3 SSTORE DUP1 SWAP2 POP POP PUSH1 0x1 SWAP1 SUB SWAP1 PUSH0 MSTORE PUSH1 0x20 PUSH0 KECCAK256 SWAP1 PUSH1 0x4 MUL ADD PUSH0 SWAP1 SWAP2 SWAP1 SWAP2 SWAP1 SWAP2 POP PUSH0 DUP3 ADD MLOAD DUP2 PUSH0 ADD PUSH0 PUSH2 0x100 EXP DUP2 SLOAD DUP2 PUSH20 0xFFFFFFFFFFFFFFFFFFFFFFFFFFFFFFFFFFFFFFFF MUL NOT AND SWAP1 DUP4 PUSH20 0xFFFFFFFFFFFFFFFFFFFFFFFFFFFFFFFFFFFFFFFF AND MUL OR SWAP1 SSTORE POP PUSH1 0x20 DUP3 ADD MLOAD DUP2 PUSH1 0x1 ADD SWAP1 DUP2 PUSH2 0x66C SWAP2 SWAP1 PUSH2 0xF2C JUMP JUMPDEST POP PUSH1 0x40 DUP3 ADD MLOAD DUP2 PUSH1 0x2 ADD SSTORE PUSH1 0x60 DUP3 ADD MLOAD DUP2 PUSH1 0x3 ADD SSTORE POP POP POP POP JUMP JUMPDEST PUSH1 0x40 MLOAD DUP1 PUSH1 0x80 ADD PUSH1 0x40 MSTORE DUP1 PUSH0 PUSH20 0xFFFFFFFFFFFFFFFFFFFFFFFFFFFFFFFFFFFFFFFF AND DUP2 MSTORE PUSH1 0x20 ADD PUSH1 0x60 DUP2 MSTORE PUSH1 0x20 ADD PUSH0 DUP2 MSTORE PUSH1 0x20 ADD PUSH0 DUP2 MSTORE POP SWAP1 JUMP JUMPDEST PUSH0 PUSH1 0x40 MLOAD SWAP1 POP SWAP1 JUMP JUMPDEST PUSH0 DUP1 REVERT JUMPDEST PUSH0 DUP1 REVERT JUMPDEST PUSH0 PUSH20 0xFFFFFFFFFFFFFFFFFFFFFFFFFFFFFFFFFFFFFFFF DUP3 AND SWAP1 POP SWAP2 SWAP1 POP JUMP JUMPDEST PUSH0 PUSH2 0x6FC DUP3 PUSH2 0x6D3 JUMP JUMPDEST SWAP1 POP SWAP2 SWAP1 POP JUMP JUMPDEST PUSH2 0x70C DUP2 PUSH2 0x6F2 JUMP JUMPDEST DUP2 EQ PUSH2 0x716 JUMPI PUSH0 DUP1 REVERT JUMPDEST POP JUMP JUMPDEST PUSH0 DUP2 CALLDATALOAD SWAP1 POP PUSH2 0x727 DUP2 PUSH2 0x703 JUMP JUMPDEST SWAP3 SWAP2 POP POP JUMP JUMPDEST PUSH0 DUP2 SWAP1 POP SWAP2 SWAP1 POP JUMP JUMPDEST PUSH2 0x73F DUP2 PUSH2 0x72D JUMP JUMPDEST DUP2 EQ PUSH2 0x749 JUMPI PUSH0 DUP1 REVERT JUMPDEST POP JUMP JUMPDEST PUSH0 DUP2 CALLDATALOAD SWAP1 POP PUSH2 0x75A DUP2 PUSH2 0x736 JUMP JUMPDEST SWAP3 SWAP2 POP POP JUMP JUMPDEST PUSH0 DUP1 PUSH1 0x40 DUP4 DUP6 SUB SLT ISZERO PUSH2 0x776 JUMPI PUSH2 0x775 PUSH2 0x6CB JUMP JUMPDEST JUMPDEST PUSH0 PUSH2 0x783 DUP6 DUP3 DUP7 ADD PUSH2 0x719 JUMP JUMPDEST SWAP3 POP POP PUSH1 0x20 PUSH2 0x794 DUP6 DUP3 DUP7 ADD PUSH2 0x74C JUMP JUMPDEST SWAP2 POP POP SWAP3 POP SWAP3 SWAP1 POP JUMP JUMPDEST PUSH2 0x7A7 DUP2 PUSH2 0x6F2 JUMP JUMPDEST DUP3 MSTORE POP POP JUMP JUMPDEST PUSH0 DUP2 MLOAD SWAP1 POP SWAP2 SWAP1 POP JUMP JUMPDEST PUSH0 DUP3 DUP3 MSTORE PUSH1 0x20 DUP3 ADD SWAP1 POP SWAP3 SWAP2 POP POP JUMP JUMPDEST DUP3 DUP2 DUP4 MCOPY PUSH0 DUP4 DUP4 ADD MSTORE POP POP POP JUMP JUMPDEST PUSH0 PUSH1 0x1F NOT PUSH1 0x1F DUP4 ADD AND SWAP1 POP SWAP2 SWAP1 POP JUMP JUMPDEST PUSH0 PUSH2 0x7EF DUP3 PUSH2 0x7AD JUMP JUMPDEST PUSH2 0x7F9 DUP2 DUP6 PUSH2 0x7B7 JUMP JUMPDEST SWAP4 POP PUSH2 0x809 DUP2 DUP6 PUSH1 0x20 DUP7 ADD PUSH2 0x7C7 JUMP JUMPDEST PUSH2 0x812 DUP2 PUSH2 0x7D5 JUMP JUMPDEST DUP5 ADD SWAP2 POP POP SWAP3 SWAP2 POP POP JUMP JUMPDEST PUSH2 0x826 DUP2 PUSH2 0x72D JUMP JUMPDEST DUP3 MSTORE POP POP JUMP JUMPDEST PUSH0 PUSH1 0x80 DUP3 ADD SWAP1 POP PUSH2 0x83F PUSH0 DUP4 ADD DUP8 PUSH2 0x79E JUMP JUMPDEST DUP2 DUP2 SUB PUSH1 0x20 DUP4 ADD MSTORE PUSH2 0x851 DUP2 DUP7 PUSH2 0x7E5 JUMP JUMPDEST SWAP1 POP PUSH2 0x860 PUSH1 0x40 DUP4 ADD DUP6 PUSH2 0x81D JUMP JUMPDEST PUSH2 0x86D PUSH1 0x60 DUP4 ADD DUP5 PUSH2 0x81D JUMP JUMPDEST SWAP6 SWAP5 POP POP POP POP POP JUMP JUMPDEST PUSH0 PUSH1 0x20 DUP3 DUP5 SUB SLT ISZERO PUSH2 0x88B JUMPI PUSH2 0x88A PUSH2 0x6CB JUMP JUMPDEST JUMPDEST PUSH0 PUSH2 0x898 DUP5 DUP3 DUP6 ADD PUSH2 0x719 JUMP JUMPDEST SWAP2 POP POP SWAP3 SWAP2 POP POP JUMP JUMPDEST PUSH0 DUP2 MLOAD SWAP1 POP SWAP2 SWAP1 POP JUMP JUMPDEST PUSH0 DUP3 DUP3 MSTORE PUSH1 0x20 DUP3 ADD SWAP1 POP SWAP3 SWAP2 POP POP JUMP JUMPDEST PUSH0 DUP2 SWAP1 POP PUSH1 0x20 DUP3 ADD SWAP1 POP SWAP2 SWAP1 POP JUMP JUMPDEST PUSH2 0x8D3 DUP2 PUSH2 0x6F2 JUMP JUMPDEST DUP3 MSTORE POP POP JUMP JUMPDEST PUSH0 DUP3 DUP3 MSTORE PUSH1 0x20 DUP3 ADD SWAP1 POP SWAP3 SWAP2 POP POP JUMP JUMPDEST PUSH0 PUSH2 0x8F3 DUP3 PUSH2 0x7AD JUMP JUMPDEST PUSH2 0x8FD DUP2 DUP6 PUSH2 0x8D9 JUMP JUMPDEST SWAP4 POP PUSH2 0x90D DUP2 DUP6 PUSH1 0x20 DUP7 ADD PUSH2 0x7C7 JUMP JUMPDEST PUSH2 0x916 DUP2 PUSH2 0x7D5 JUMP JUMPDEST DUP5 ADD SWAP2 POP POP SWAP3 SWAP2 POP POP JUMP JUMPDEST PUSH2 0x92A DUP2 PUSH2 0x72D JUMP JUMPDEST DUP3 MSTORE POP POP JUMP JUMPDEST PUSH0 PUSH1 0x80 DUP4 ADD PUSH0 DUP4 ADD MLOAD PUSH2 0x945 PUSH0 DUP7 ADD DUP3 PUSH2 0x8CA JUMP JUMPDEST POP PUSH1 0x20 DUP4 ADD MLOAD DUP5 DUP3 SUB PUSH1 0x20 DUP7 ADD MSTORE PUSH2 0x95D DUP3 DUP3 PUSH2 0x8E9 JUMP JUMPDEST SWAP2 POP POP PUSH1 0x40 DUP4 ADD MLOAD PUSH2 0x972 PUSH1 0x40 DUP7 ADD DUP3 PUSH2 0x921 JUMP JUMPDEST POP PUSH1 0x60 DUP4 ADD MLOAD PUSH2 0x985 PUSH1 0x60 DUP7 ADD DUP3 PUSH2 0x921 JUMP JUMPDEST POP DUP1 SWAP2 POP POP SWAP3 SWAP2 POP POP JUMP JUMPDEST PUSH0 PUSH2 0x99B DUP4 DUP4 PUSH2 0x930 JUMP JUMPDEST SWAP1 POP SWAP3 SWAP2 POP POP JUMP JUMPDEST PUSH0 PUSH1 0x20 DUP3 ADD SWAP1 POP SWAP2 SWAP1 POP JUMP JUMPDEST PUSH0 PUSH2 0x9B9 DUP3 PUSH2 0x8A1 JUMP JUMPDEST PUSH2 0x9C3 DUP2 DUP6 PUSH2 0x8AB JUMP JUMPDEST SWAP4 POP DUP4 PUSH1 0x20 DUP3 MUL DUP6 ADD PUSH2 0x9D5 DUP6 PUSH2 0x8BB JUMP JUMPDEST DUP1 PUSH0 JUMPDEST DUP6 DUP2 LT ISZERO PUSH2 0xA10 JUMPI DUP5 DUP5 SUB DUP10 MSTORE DUP2 MLOAD PUSH2 0x9F1 DUP6 DUP3 PUSH2 0x990 JUMP JUMPDEST SWAP5 POP PUSH2 0x9FC DUP4 PUSH2 0x9A3 JUMP JUMPDEST SWAP3 POP PUSH1 0x20 DUP11 ADD SWAP10 POP POP PUSH1 0x1 DUP2 ADD SWAP1 POP PUSH2 0x9D8 JUMP JUMPDEST POP DUP3 SWAP8 POP DUP8 SWAP6 POP POP POP POP POP POP SWAP3 SWAP2 POP POP JUMP JUMPDEST PUSH0 PUSH1 0x20 DUP3 ADD SWAP1 POP DUP2 DUP2 SUB PUSH0 DUP4 ADD MSTORE PUSH2 0xA3A DUP2 DUP5 PUSH2 0x9AF JUMP JUMPDEST SWAP1 POP SWAP3 SWAP2 POP POP JUMP JUMPDEST PUSH0 PUSH1 0x80 DUP4 ADD PUSH0 DUP4 ADD MLOAD PUSH2 0xA57 PUSH0 DUP7 ADD DUP3 PUSH2 0x8CA JUMP JUMPDEST POP PUSH1 0x20 DUP4 ADD MLOAD DUP5 DUP3 SUB PUSH1 0x20 DUP7 ADD MSTORE PUSH2 0xA6F DUP3 DUP3 PUSH2 0x8E9 JUMP JUMPDEST SWAP2 POP POP PUSH1 0x40 DUP4 ADD MLOAD PUSH2 0xA84 PUSH1 0x40 DUP7 ADD DUP3 PUSH2 0x921 JUMP JUMPDEST POP PUSH1 0x60 DUP4 ADD MLOAD PUSH2 0xA97 PUSH1 0x60 DUP7 ADD DUP3 PUSH2 0x921 JUMP JUMPDEST POP DUP1 SWAP2 POP POP SWAP3 SWAP2 POP POP JUMP JUMPDEST PUSH0 PUSH1 0x20 DUP3 ADD SWAP1 POP DUP2 DUP2 SUB PUSH0 DUP4 ADD MSTORE PUSH2 0xABA DUP2 DUP5 PUSH2 0xA42 JUMP JUMPDEST SWAP1 POP SWAP3 SWAP2 POP POP JUMP JUMPDEST PUSH0 DUP1 REVERT JUMPDEST PUSH0 DUP1 REVERT JUMPDEST PUSH32 0x4E487B7100000000000000000000000000000000000000000000000000000000 PUSH0 MSTORE PUSH1 0x41 PUSH1 0x4 MSTORE PUSH1 0x24 PUSH0 REVERT JUMPDEST PUSH2 0xB00 DUP3 PUSH2 0x7D5 JUMP JUMPDEST DUP2 ADD DUP2 DUP2 LT PUSH8 0xFFFFFFFFFFFFFFFF DUP3 GT OR ISZERO PUSH2 0xB1F JUMPI PUSH2 0xB1E PUSH2 0xACA JUMP JUMPDEST JUMPDEST DUP1 PUSH1 0x40 MSTORE POP POP POP JUMP JUMPDEST PUSH0 PUSH2 0xB31 PUSH2 0x6C2 JUMP JUMPDEST SWAP1 POP PUSH2 0xB3D DUP3 DUP3 PUSH2 0xAF7 JUMP JUMPDEST SWAP2 SWAP1 POP JUMP JUMPDEST PUSH0 PUSH8 0xFFFFFFFFFFFFFFFF DUP3 GT ISZERO PUSH2 0xB5C JUMPI PUSH2 0xB5B PUSH2 0xACA JUMP JUMPDEST JUMPDEST PUSH2 0xB65 DUP3 PUSH2 0x7D5 JUMP JUMPDEST SWAP1 POP PUSH1 0x20 DUP2 ADD SWAP1 POP SWAP2 SWAP1 POP JUMP JUMPDEST DUP3 DUP2 DUP4 CALLDATACOPY PUSH0 DUP4 DUP4 ADD MSTORE POP POP POP JUMP JUMPDEST PUSH0 PUSH2 0xB92 PUSH2 0xB8D DUP5 PUSH2 0xB42 JUMP JUMPDEST PUSH2 0xB28 JUMP JUMPDEST SWAP1 POP DUP3 DUP2 MSTORE PUSH1 0x20 DUP2 ADD DUP5 DUP5 DUP5 ADD GT ISZERO PUSH2 0xBAE JUMPI PUSH2 0xBAD PUSH2 0xAC6 JUMP JUMPDEST JUMPDEST PUSH2 0xBB9 DUP5 DUP3 DUP6 PUSH2 0xB72 JUMP JUMPDEST POP SWAP4 SWAP3 POP POP POP JUMP JUMPDEST PUSH0 DUP3 PUSH1 0x1F DUP4 ADD SLT PUSH2 0xBD5 JUMPI PUSH2 0xBD4 PUSH2 0xAC2 JUMP JUMPDEST JUMPDEST DUP2 CALLDATALOAD PUSH2 0xBE5 DUP5 DUP3 PUSH1 0x20 DUP7 ADD PUSH2 0xB80 JUMP JUMPDEST SWAP2 POP POP SWAP3 SWAP2 POP POP JUMP JUMPDEST PUSH0 PUSH1 0x20 DUP3 DUP5 SUB SLT ISZERO PUSH2 0xC03 JUMPI PUSH2 0xC02 PUSH2 0x6CB JUMP JUMPDEST JUMPDEST PUSH0 DUP3 ADD CALLDATALOAD PUSH8 0xFFFFFFFFFFFFFFFF DUP2 GT ISZERO PUSH2 0xC20 JUMPI PUSH2 0xC1F PUSH2 0x6CF JUMP JUMPDEST JUMPDEST PUSH2 0xC2C DUP5 DUP3 DUP6 ADD PUSH2 0xBC1 JUMP JUMPDEST SWAP2 POP POP SWAP3 SWAP2 POP POP JUMP JUMPDEST PUSH32 0x4E487B7100000000000000000000000000000000000000000000000000000000 PUSH0 MSTORE PUSH1 0x22 PUSH1 0x4 MSTORE PUSH1 0x24 PUSH0 REVERT JUMPDEST PUSH0 PUSH1 0x2 DUP3 DIV SWAP1 POP PUSH1 0x1 DUP3 AND DUP1 PUSH2 0xC79 JUMPI PUSH1 0x7F DUP3 AND SWAP2 POP JUMPDEST PUSH1 0x20 DUP3 LT DUP2 SUB PUSH2 0xC8C JUMPI PUSH2 0xC8B PUSH2 0xC35 JUMP JUMPDEST JUMPDEST POP SWAP2 SWAP1 POP JUMP JUMPDEST PUSH32 0x4E487B7100000000000000000000000000000000000000000000000000000000 PUSH0 MSTORE PUSH1 0x32 PUSH1 0x4 MSTORE PUSH1 0x24 PUSH0 REVERT JUMPDEST PUSH32 0x5477656574206973206C6F6E6720210000000000000000000000000000000000 PUSH0 DUP3 ADD MSTORE POP JUMP JUMPDEST PUSH0 PUSH2 0xCF3 PUSH1 0xF DUP4 PUSH2 0x7B7 JUMP JUMPDEST SWAP2 POP PUSH2 0xCFE DUP3 PUSH2 0xCBF JUMP JUMPDEST PUSH1 0x20 DUP3 ADD SWAP1 POP SWAP2 SWAP1 POP JUMP JUMPDEST PUSH0 PUSH1 0x20 DUP3 ADD SWAP1 POP DUP2 DUP2 SUB PUSH0 DUP4 ADD MSTORE PUSH2 0xD20 DUP2 PUSH2 0xCE7 JUMP JUMPDEST SWAP1 POP SWAP2 SWAP1 POP JUMP JUMPDEST PUSH32 0x547765657420697320736F20736D616C6C202100000000000000000000000000 PUSH0 DUP3 ADD MSTORE POP JUMP JUMPDEST PUSH0 PUSH2 0xD5B PUSH1 0x13 DUP4 PUSH2 0x7B7 JUMP JUMPDEST SWAP2 POP PUSH2 0xD66 DUP3 PUSH2 0xD27 JUMP JUMPDEST PUSH1 0x20 DUP3 ADD SWAP1 POP SWAP2 SWAP1 POP JUMP JUMPDEST PUSH0 PUSH1 0x20 DUP3 ADD SWAP1 POP DUP2 DUP2 SUB PUSH0 DUP4 ADD MSTORE PUSH2 0xD88 DUP2 PUSH2 0xD4F JUMP JUMPDEST SWAP1 POP SWAP2 SWAP1 POP JUMP JUMPDEST PUSH0 DUP2 SWAP1 POP DUP2 PUSH0 MSTORE PUSH1 0x20 PUSH0 KECCAK256 SWAP1 POP SWAP2 SWAP1 POP JUMP JUMPDEST PUSH0 PUSH1 0x20 PUSH1 0x1F DUP4 ADD DIV SWAP1 POP SWAP2 SWAP1 POP JUMP JUMPDEST PUSH0 DUP3 DUP3 SHL SWAP1 POP SWAP3 SWAP2 POP POP JUMP JUMPDEST PUSH0 PUSH1 0x8 DUP4 MUL PUSH2 0xDEB PUSH32 0xFFFFFFFFFFFFFFFFFFFFFFFFFFFFFFFFFFFFFFFFFFFFFFFFFFFFFFFFFFFFFFFF DUP3 PUSH2 0xDB0 JUMP JUMPDEST PUSH2 0xDF5 DUP7 DUP4 PUSH2 0xDB0 JUMP JUMPDEST SWAP6 POP DUP1 NOT DUP5 AND SWAP4 POP DUP1 DUP7 AND DUP5 OR SWAP3 POP POP POP SWAP4 SWAP3 POP POP POP JUMP JUMPDEST PUSH0 DUP2 SWAP1 POP SWAP2 SWAP1 POP JUMP JUMPDEST PUSH0 PUSH2 0xE30 PUSH2 0xE2B PUSH2 0xE26 DUP5 PUSH2 0x72D JUMP JUMPDEST PUSH2 0xE0D JUMP JUMPDEST PUSH2 0x72D JUMP JUMPDEST SWAP1 POP SWAP2 SWAP1 POP JUMP JUMPDEST PUSH0 DUP2 SWAP1 POP SWAP2 SWAP1 POP JUMP JUMPDEST PUSH2 0xE49 DUP4 PUSH2 0xE16 JUMP JUMPDEST PUSH2 0xE5D PUSH2 0xE55 DUP3 PUSH2 0xE37 JUMP JUMPDEST DUP5 DUP5 SLOAD PUSH2 0xDBC JUMP JUMPDEST DUP3 SSTORE POP POP POP POP JUMP JUMPDEST PUSH0 SWAP1 JUMP JUMPDEST PUSH2 0xE71 PUSH2 0xE65 JUMP JUMPDEST PUSH2 0xE7C DUP2 DUP5 DUP5 PUSH2 0xE40 JUMP JUMPDEST POP POP POP JUMP JUMPDEST JUMPDEST DUP2 DUP2 LT ISZERO PUSH2 0xE9F JUMPI PUSH2 0xE94 PUSH0 DUP3 PUSH2 0xE69 JUMP JUMPDEST PUSH1 0x1 DUP2 ADD SWAP1 POP PUSH2 0xE82 JUMP JUMPDEST POP POP JUMP JUMPDEST PUSH1 0x1F DUP3 GT ISZERO PUSH2 0xEE4 JUMPI PUSH2 0xEB5 DUP2 PUSH2 0xD8F JUMP JUMPDEST PUSH2 0xEBE DUP5 PUSH2 0xDA1 JUMP JUMPDEST DUP2 ADD PUSH1 0x20 DUP6 LT ISZERO PUSH2 0xECD JUMPI DUP2 SWAP1 POP JUMPDEST PUSH2 0xEE1 PUSH2 0xED9 DUP6 PUSH2 0xDA1 JUMP JUMPDEST DUP4 ADD DUP3 PUSH2 0xE81 JUMP JUMPDEST POP POP JUMPDEST POP POP POP JUMP JUMPDEST PUSH0 DUP3 DUP3 SHR SWAP1 POP SWAP3 SWAP2 POP POP JUMP JUMPDEST PUSH0 PUSH2 0xF04 PUSH0 NOT DUP5 PUSH1 0x8 MUL PUSH2 0xEE9 JUMP JUMPDEST NOT DUP1 DUP4 AND SWAP2 POP POP SWAP3 SWAP2 POP POP JUMP JUMPDEST PUSH0 PUSH2 0xF1C DUP4 DUP4 PUSH2 0xEF5 JUMP JUMPDEST SWAP2 POP DUP3 PUSH1 0x2 MUL DUP3 OR SWAP1 POP SWAP3 SWAP2 POP POP JUMP JUMPDEST PUSH2 0xF35 DUP3 PUSH2 0x7AD JUMP JUMPDEST PUSH8 0xFFFFFFFFFFFFFFFF DUP2 GT ISZERO PUSH2 0xF4E JUMPI PUSH2 0xF4D PUSH2 0xACA JUMP JUMPDEST JUMPDEST PUSH2 0xF58 DUP3 SLOAD PUSH2 0xC62 JUMP JUMPDEST PUSH2 0xF63 DUP3 DUP3 DUP6 PUSH2 0xEA3 JUMP JUMPDEST PUSH0 PUSH1 0x20 SWAP1 POP PUSH1 0x1F DUP4 GT PUSH1 0x1 DUP2 EQ PUSH2 0xF94 JUMPI PUSH0 DUP5 ISZERO PUSH2 0xF82 JUMPI DUP3 DUP8 ADD MLOAD SWAP1 POP JUMPDEST PUSH2 0xF8C DUP6 DUP3 PUSH2 0xF11 JUMP JUMPDEST DUP7 SSTORE POP PUSH2 0xFF3 JUMP JUMPDEST PUSH1 0x1F NOT DUP5 AND PUSH2 0xFA2 DUP7 PUSH2 0xD8F JUMP JUMPDEST PUSH0 JUMPDEST DUP3 DUP2 LT ISZERO PUSH2 0xFC9 JUMPI DUP5 DUP10 ADD MLOAD DUP3 SSTORE PUSH1 0x1 DUP3 ADD SWAP2 POP PUSH1 0x20 DUP6 ADD SWAP5 POP PUSH1 0x20 DUP2 ADD SWAP1 POP PUSH2 0xFA4 JUMP JUMPDEST DUP7 DUP4 LT ISZERO PUSH2 0xFE6 JUMPI DUP5 DUP10 ADD MLOAD PUSH2 0xFE2 PUSH1 0x1F DUP10 AND DUP3 PUSH2 0xEF5 JUMP JUMPDEST DUP4 SSTORE POP JUMPDEST PUSH1 0x1 PUSH1 0x2 DUP9 MUL ADD DUP9 SSTORE POP POP POP JUMPDEST POP POP POP POP POP POP JUMP INVALID LOG2 PUSH5 0x6970667358 0x22 SLT KECCAK256 CALLDATACOPY NOT REVERT SHL ADD 0x4E PUSH14 0xF36F33DE0D3E48C121FC83D69036 DUP10 0xCE PUSH1 0x9B ADD DUP8 RETURN 0xDE MSTORE 0xEC 0xC8 PUSH5 0x736F6C6343 STOP ADDMOD BYTE STOP CALLER "
				},
				"gasEstimates": {
					"creation": {
						"codeDepositCost": "829000",
						"executionCost": "862",
						"totalCost": "829862"
					},
					"external": {
						"createTweet(string)": "infinite",
						"getAllTweets(address)": "infinite",
						"getTweets(address,uint256)": "infinite",
						"tweets(address,uint256)": "infinite"
					}
				},
				"methodIdentifiers": {
					"createTweet(string)": "7c9cd2bc",
					"getAllTweets(address)": "12e7ee1c",
					"getTweets(address,uint256)": "2cf02026",
					"tweets(address,uint256)": "05a1b4a9"
				}
			},
			"storageLayout": {
				"storage": [
					{
						"astId": 22,
						"contract": "contracts/Twitter.sol:Twitter",
						"label": "tweets",
						"offset": 0,
						"slot": "0",
						"type": "t_mapping(t_address,t_array(t_struct(Tweet)10_storage)dyn_storage)"
					}
				],
				"types": {
					"t_address": {
						"encoding": "inplace",
						"label": "address",
						"numberOfBytes": "20"
					},
					"t_array(t_struct(Tweet)10_storage)dyn_storage": {
						"base": "t_struct(Tweet)10_storage",
						"encoding": "dynamic_array",
						"label": "struct Twitter.Tweet[]",
						"numberOfBytes": "32"
					},
					"t_mapping(t_address,t_array(t_struct(Tweet)10_storage)dyn_storage)": {
						"encoding": "mapping",
						"key": "t_address",
						"label": "mapping(address => struct Twitter.Tweet[])",
						"numberOfBytes": "32",
						"value": "t_array(t_struct(Tweet)10_storage)dyn_storage"
					},
					"t_string_storage": {
						"encoding": "bytes",
						"label": "string",
						"numberOfBytes": "32"
					},
					"t_struct(Tweet)10_storage": {
						"encoding": "inplace",
						"label": "struct Twitter.Tweet",
						"members": [
							{
								"astId": 3,
								"contract": "contracts/Twitter.sol:Twitter",
								"label": "author",
								"offset": 0,
								"slot": "0",
								"type": "t_address"
							},
							{
								"astId": 5,
								"contract": "contracts/Twitter.sol:Twitter",
								"label": "content",
								"offset": 0,
								"slot": "1",
								"type": "t_string_storage"
							},
							{
								"astId": 7,
								"contract": "contracts/Twitter.sol:Twitter",
								"label": "timestamp",
								"offset": 0,
								"slot": "2",
								"type": "t_uint256"
							},
							{
								"astId": 9,
								"contract": "contracts/Twitter.sol:Twitter",
								"label": "likes",
								"offset": 0,
								"slot": "3",
								"type": "t_uint256"
							}
						],
						"numberOfBytes": "128"
					},
					"t_uint256": {
						"encoding": "inplace",
						"label": "uint256",
						"numberOfBytes": "32"
					}
				}
			},
			"userdoc": {
				"kind": "user",
				"methods": {},
				"version": 1
			}
		}
	}
}